:020000040800F2
:100000005008002045010008250C00083D0B0008A1
:10001000410B00080F0200087716000800000000DE
:10002000000000000000000000000000650E000855
:10003000D7040008000000001D0D0008510F000843
:100040005F0100085F0100085F0100085F01000810
:100050005F0100085F0100081D050008A5050008F4
:100060002D060008B50600085F0100085F010008C2
:10007000650200085F010008890200085F010008AE
:100080005F010008B10200085F0100085F0100087D
:100090005F0100085F0100085F0100085F010008C0
:1000A0005F0100085F0100085F0100085F010008B0
:1000B0005F0100085F0100085F0100085F010008A0
:1000C0005F0100085F0100085F0100085F01000890
:1000D0005F010008ED1300082D1400085F010008FF
:1000E0005F0100085F0100085F0100085F01000870
:1000F0005F0100085F0100085F0100085F01000860
:100100005F0100085F0100085F0100085F0100084F
:100110005F0100085F010008F50F000821100008CA
:100120005F0100085F0100085F0100085F0100082F
:10013000DFF80CD000F02EF800480047751B0008CF
:10014000500800200648804706480047FEE7FEE7C3
:10015000FEE7FEE7FEE7FEE7FEE7FEE7FEE7FEE777
:100160005D0F00083101000830B50B460146002044
:100170002022012409E021FA02F59D4205D303FA69
:1001800002F5491B04FA02F52844151EA2F10102EA
:10019000F1DC30BD064C074D06E0E06840F001039D
:1001A00094E8070098471034AC42F6D3FFF7C4FF39
:1001B0007C1B00089C1B000870B58C1810F8015BB4
:1001C00015F0070301D110F8013B2A1106D110F8F0
:1001D000012B03E010F8016B01F8016B5B1EF9D1F4
:1001E0002B0705D40023521E0DD401F8013BFAE77A
:1001F00010F8013BCB1A921C03E013F8015B01F8E5
:10020000015B521EF9D5A142D8D3002070BD00BFBA
:10021000FEE7000010B504462078012804D002282B
:100220000FD003280FD10DE000BF00F0D3FB002852
:10023000FBD106A001F0C2FB0121084601F084FBBE
:1002400001E000E000BF00BF10BD00002A2A2A47DD
:1002500079726F73636F70655265736574212A2AB2
:100260002A0D0A0010B5202000F0F6F848B1202031
:1002700000F032F80021034800F03CF8032001F0C0
:1002800095FB10BD1C00024010B54FF4005000F06B
:10029000E3F850B14FF4005000F01EF8002103487D
:1002A00000F028F8012001F081FB10BD440002405D
:1002B00010B54FF0007000F0CFF850B14FF0007063
:1002C00000F00AF80021034800F014F8022001F0C1
:1002D0006DFB10BD8000024000F0805111B1034958
:1002E000086001E0024948607047000004040240D1
:1002F0000000024021B1026842F00102026004E005
:1003000002684FF6FE731A400260704701684FF6AC
:10031000FE72114001600021016041608160C16096
:100320004B49884208D14A490839496841F00F01D0
:10033000474A083A51608AE045491431884208D159
:1003400043490839496841F0F001414A083A51608F
:100350007DE03F492831884208D13D490839496844
:1003600041F470613A4A083A516070E038493C31D2
:10037000884208D136490839496841F47041344A05
:10038000083A516063E032495031884208D130491F
:100390000839496841F470212D4A083A516056E005
:1003A0002B496431884208D129490839496841F408
:1003B0007001274A083A516049E02549783188425E
:1003C00008D123490839496841F07061204A083A48
:1003D00051603CE01F49884206D1011F096841F085
:1003E0000F01021F116032E01A491431884208D10E
:1003F0001849091F096841F0F001164A121F1160DF
:1004000025E014492831884208D11249091F09689A
:1004100041F470610F4A121F116018E00D493C3120
:10042000884208D10B49091F096841F47041094A03
:10043000121F11600BE007495031884207D105496E
:10044000091F096841F47021024A121F11607047A8
:10045000080002400804024001460020002201F08A
:10046000805313B1054B1A6801E0054B1A6802EA84
:1004700001030BB1012000E000207047000402409E
:10048000000002401AB103680B43036002E00368F6
:100490008B430360704710B50022026847F6F07383
:1004A0009A430C6A8B6823430C6923434C692343AA
:1004B0008C692343CC6923434C6A23438C6A2343CE
:1004C0001A430260CB6843600B6883604B68C3606B
:1004D00010BD41607047704710B5012000F0BAFCB4
:1004E0000446207810B1601CFFF794FE00F064FA17
:1004F00006490968884208D000F05EFA034908609E
:100500000846016802A001F059FA10BD64010020FC
:10051000596177203D2025640000000010B50120BE
:1005200000F018F9012829D11548008815490880DC
:10053000154800881549088015480088104908802A
:100540001448808C10490880012000F0FDF810212B
:10055000114800F008FA012808D010480068401C33
:100560000E49086000200E49088007E00B4800682B
:10057000401E0A49086001200949088010BD00009A
:10058000AA000020A20000209A0000209200002073
:100590009000002000100040001001407C0200206C
:1005A000B200002010B5022000F0D4F8012829D1B3
:1005B00015484088154948801548408815494880A5
:1005C00015480088104948801448808C104948809C
:1005D000022000F0B9F82021114800F0C4F90128E8
:1005E00008D010484068401C0E49486000200E4961
:1005F000488007E00B484068401E0A4948600120D7
:100600000949488010BD0000AA000020A200002077
:100610009A0000209200002090000020001000406E
:10062000001001407C020020B200002010B5042020
:1006300000F090F8012829D1154880881549888054
:100640001548808815498880154800881049888099
:100650001448808C10498880042000F075F84021EF
:10066000114800F080F9012808D010488068401C2B
:100670000E49886000200E49888007E00B4800681A
:10068000401E0A49086001200949888010BD000009
:10069000AA000020A20000209A0000209200002062
:1006A0009000002000100040001001407C0200205B
:1006B000B200002010B5082000F04CF8012829D124
:1006C0001548C0881549C8801548C0881549C88094
:1006D000154800881049C8801448808C1049C8808B
:1006E000082000F031F88021114800F03CF9012881
:1006F00008D01048C068401C0E49C86000200E4950
:10070000C88007E00B48C068401E0A49C860012045
:100710000949C88010BD0000AA000020A2000020E6
:100720009A0000209200002090000020001000405D
:10073000001001407C020020B20000200149086046
:100740007047000014040140014908607047000030
:1007500014040140014600200022074B1B6803EAF5
:100760000102054B14331B680B4013B10AB1012081
:1007700000E00020704700000004014000212349F0
:100780008279002A3AD00A46126803689A430B46D7
:100790001A600A1D126803689A430B1D1A600279D9
:1007A00011440A6803681A430A60184A083212683A
:1007B00003689A43154B08331A601A1D12680368C0
:1007C0009A43124B0C331A604279102A0ED11A1F29
:1007D000126803681A430D4B08331A601A1D126819
:1007E00003681A43094B0C331A600DE0074942793C
:1007F00011440A6803681A430A6005E0027911444B
:100800000A6803689A430A607047000000040140C8
:1008100030B500228B071C0F0F2303FA04F20B4B99
:100820008C1053F824309343084C8D1044F8253035
:1008300023468C1053F824308C07240F00FA04F45C
:100840002343024C8D1044F8253030BD0800014090
:100850002DE9F04102460025002600200023002457
:10086000002791F803C00CF00F0591F803C00CF0BD
:10087000100CBCF1000F03D091F802C04CEA050542
:1008800091F800C0BCF1000F31D0146800202BE0BB
:100890004FF0010C0CFA00F3B1F800C00CEA0306AB
:1008A0009E4220D183004FF00F0C0CFA03F7BC439B
:1008B00005FA03FC4CEA040491F803C0BCF1280FCC
:1008C00006D14FF0010C0CFA00FCC2F814C00AE08B
:1008D00091F803C0BCF1480F05D14FF0010C0CFAA0
:1008E00000FCC2F810C0401C0828D1D31460B1F835
:1008F00000C0BCF1FF0F34DD546800202EE000F191
:10090000080C4FF0010808FA0CF3B1F800C00CEA2B
:1009100003069E4221D183004FF00F0C0CFA03F71F
:10092000BC4305FA03FC4CEA040491F803C0BCF193
:10093000280F05D100F1080C08FA0CF8C2F8148051
:1009400091F803C0BCF1480F07D100F1080C4FF03B
:10095000010808FA0CF8C2F81080401C0828CED311
:100960005460BDE8F0810246002093680B400BB153
:10097000012000E0002070474161704710B500BFC2
:1009800004210A4800F07AFE0028F9D100BF0421B2
:10099000074800F073FE0028F9D100BF0421054884
:1009A00000F06CFE0028F9D110BD000058000020B6
:1009B000600000205C0000200148006870470000D3
:1009C0006400002010B50421014800F057FE10BD5E
:1009D0005C00002010B50421014800F04FFE10BD5E
:1009E000600000200146487A0B7A40EA032244F274
:1009F0005060824202DDA2F57F42FF3A0A2092FB5C
:100A0000F0F0024B18601846006870476400002040
:100A10000EB50121084600F0A3F90F200190012036
:100A20008DF80A0000208DF8080008208DF80900D4
:100A300000210220FFF7ECFE01210220FFF7E8FE73
:100A400002210846FFF7E4FE03210220FFF7E0FE43
:100A500001A8FFF793FE01208DF803008DF8010037
:100A600003208DF8020006208DF80000684600F093
:100A7000DBF807208DF80000684600F0D5F8082064
:100A80008DF80000684600F0CFF809208DF80000CE
:100A9000684600F0C9F80120FFF750FE0220FFF77A
:100AA0004DFE0420FFF74AFE0820FFF747FE0EBD6B
:100AB00008B50121102000F053F928208DF803001B
:100AC000FF20ADF8000069460148FFF7C1FE08BDF0
:100AD000001001401FB50121102000F031F9002065
:100AE000ADF80A00ADF8060042F20F70ADF808004C
:100AF00040F2CF20ADF8040000208DF80C0001A9D1
:100B00000D4800F021FC012211460B4800F0B6FA16
:100B100036208DF8000001208DF8030003208DF8A9
:100B200001008DF80200684600F07EF801210248BD
:100B300000F087FA1FBD00000010004000BFFEE774
:100B400000BFFEE708B50121082000F009F91820D0
:100B50008DF8030003208DF802004FF47070ADF89B
:100B6000000069460148FFF773FE08BD000C014014
:100B700010B500F023FAFFF7E5FF00F007F8FFF7E4
:100B800097FFFFF745FFFFF7A5FF10BD00B587B042
:100B90000121042000F0D4F80020ADF81600ADF8D3
:100BA000120041F61F40ADF814000020ADF810000F
:100BB0008DF8180004A91A4800F0C6FB6020ADF8B3
:100BC00000000020ADF808000120ADF80200002070
:100BD000ADF806006946124800F05AFA6946104816
:100BE00000F0ACFA69460E4800F008FB69460C4874
:100BF00000F05EFB08210A4800F096FA0821084838
:100C000000F0EEFA0821064800F048FB08210448ED
:100C100000F08CFB0121024800F013FA07B000BD80
:100C2000000800407047000070B5002100230F222B
:100C3000C47804B3154C246804F4E064C4F5E0649B
:100C4000210AC1F10403CA40447804FA03F184780C
:100C50001440214309010E4C0678A155047804F094
:100C60001F050124AC4005786D11AD0005F1E025AC
:100C7000C5F8004109E0047804F01F050124AC40E8
:100C8000044D0678761145F8264070BD0CED00E065
:100C900000E400E080E100E002490143024A116003
:100CA000704700000000FA050CED00E070B54FF44D
:100CB000A060FFF7F1FF00F007FD00F0A5FDFFF7D2
:100CC0005DFEFFF755FF1249B1F1807F00D31DE0B3
:100CD00021F07F40401E4FF0E022506150170F225C
:100CE000002807DA13071D0E0A4B00F00F04241F1B
:100CF0001D5503E013071C0E074B1C5400BF0020BA
:100D00004FF0E02290610720106100BF70BD00002D
:100D1000407E050018ED00E000E400E070470000B0
:100D200029B1064A52690243044B5A6104E0034A5E
:100D300052698243014B5A61704700000010024023
:100D400029B1064AD2690243044BDA6104E0034A3E
:100D5000D2698243014BDA61704700000010024003
:100D600029B1064A92690243044B9A6104E0034A9E
:100D700092698243014B9A61704700000010024063
:100D800030B500210022002400232D4D6D6805F0B0
:100D90000C0121B1042905D0082923D105E0294DF2
:100DA000056022E0274D05601FE0254D6D6805F4C4
:100DB0007012234D6D6805F48034022505EB9242D4
:100DC0001CB9214D554305600BE01D4D6D6805F4C0
:100DD00000351DB11C4D5543056002E0194D5543CA
:100DE000056002E0174D056000BF00BF144D6D683F
:100DF00005F0F0010909154D6B5C0568DD404560A3
:100E00000F4D6D6805F4E061090A104D6B5C456893
:100E1000DD4085600A4D6D6805F46051C90A0B4DCF
:100E20006B5C4568DD40C560054D6D6805F440416B
:100E3000890B074D6B5CC568B5FBF3F5056130BDEB
:100E40000010024000127A0000093D00000000205E
:100E5000100000200146481E014A02EB8010704736
:100E6000FC020020704710B500F002F810BD000031
:100E70000CB50020019000903348006840F48030A9
:100E80003149086000BF3048006800F4003000902D
:100E90000198401C0190009818B90198B0F5A06F16
:100EA000F1D12948006800F4003010B10120009011
:100EB00001E0002000900098012843D123480068F9
:100EC00040F01000214908600846006820F0030047
:100ED00008600846006840F0020008601A48406850
:100EE000194948600846406848600846406840F430
:100EF000806048600846406820F47C1048600846DE
:100F0000406840F4E81048600846006840F080708F
:100F1000086000BF0C48006800F000700028F9D09D
:100F20000948406820F003000749486008464068C7
:100F300040F00200486000BF0348406800F00C0029
:100F40000828F9D10CBD000000100240002002402A
:100F500010B5FFF737FDFFF7BFFA10BD10B5134806
:100F6000006840F0010011490860084640681049D7
:100F700008400E494860084600680E4908400B4981
:100F800008600846006820F4802008600846406831
:100F900020F4FE0048604FF41F008860FFF763FFF5
:100FA0004FF000600449086010BD000000100240CE
:100FB0000000FFF8FFFFF6FE08ED00E008B5012194
:100FC0001020FFF7CDFE10208DF8030003208DF8D0
:100FD00002004FF47F40ADF8000069460448FFF777
:100FE00037FC4FF47F410248FFF7C6FC08BD000004
:100FF0000010014010B50121074800F02EF801282B
:1010000008D106480088401C044908800121024894
:1010100000F014F810BD0000001000409000002007
:1010200010B50121044800F018F8012803D101216E
:10103000014800F003F810BD00140040CA430282CA
:10104000704721B1028842F00102028004E0028868
:101050004FF6FE731A400280704730B502460020FA
:1010600000230024158A05EA0103958905EA010495
:1010700013B10CB1012000E0002030BD1AB183890A
:101080000B43838102E083898B4383817047000097
:1010900070B5002400220023058C4FF6FE76354003
:1010A0000584028C8388048B4FF68F752C40B51E07
:1010B0002C400D882C43751E2A400D892A434D88EB
:1010C0002A43144DA8420BD0134DA84208D0134D0B
:1010D000A84205D0124DA84202D0124DA84213D109
:1010E0004FF6F7752A404D892A434FF6FB752A4083
:1010F0008D882A434FF6FF652B404FF6FF552B4056
:101100008D892B43CD892B4383800483CD888586AD
:10111000028470BD002C01400034014000400140B9
:1011200000440140004801400A460021018B4FF66F
:10113000F7731940114301837047000070B5002414
:1011400000220023058C4FF6EF7635400584028C93
:101150008388048B48F6FF752C404FF6FF452C40E2
:101160000D884FF6FF7606EA05252C434FF6DF750E
:101170002A400D8906EA05152A434D8806EA051519
:101180002A43154DA84202D0144DA8421DD14FF656
:101190007F752A404D894FF6FF7606EA05152A43EA
:1011A0004FF6BF752A408D8806EA05152A434FF68B
:1011B000FF352B404FF2FF752B408D8906EA8505E0
:1011C0002B43CD8906EA85052B4383800483CD8894
:1011D0000587028470BD0000002C014000340140EE
:1011E0000A460021018B4FF2FF7319404FF6FF733F
:1011F00003EA0223194301837047000070B50024FD
:1012000000220023058C4FF6FF6635400584028CD2
:101210008388848B4FF68F752C404FF6FC752C40DD
:101220000D882C434FF6FF552A400D894FF6FF7667
:1012300006EA05252A434D8806EA05252A43154D69
:10124000A84202D0144DA8421DD14FF2FF752A408A
:101250004D894FF6FF7606EA05252A434FF6FF35FE
:101260002A408D8806EA05252A434EF6FF752B4055
:101270004DF6FF752B408D8906EA05152B43CD8968
:1012800006EA05152B4383808483CD8885870284F5
:1012900070BD0000002C0140003401400A460021CE
:1012A000818B4FF6F773194011438183704700001B
:1012B00070B5002200230024058C4EF6FF763540E1
:1012C0000584038C8488828B48F6FF752A404FF68C
:1012D000FF452A400D884FF6FF7606EA05252A438A
:1012E0004DF6FF752B400D8906EA05352B434D88D9
:1012F00006EA05352B430B4DA84202D00A4DA84201
:1013000008D14BF6FF752C408D894FF6FF7606EA23
:1013100085152C4384808283CD88A0F840500384B7
:1013200070BD0000002C0140003401400A4600213D
:10133000818B4FF2FF7319404FF6FF7303EA0223CC
:101340001943818370470000002202881D4B984298
:101350000ED01D4B98420BD0B0F1804F08D01B4BE4
:10136000984205D01A4B984202D01A4B984204D1A9
:101370004FF68F731A404B881A43174B984207D089
:10138000164B984204D04FF6FF431A40CB881A43BD
:1013900002808B8883850B8803850A4B98420BD08B
:1013A000094B984208D00E4B984205D00D4B9842FD
:1013B00002D00D4B984201D10B7A03860123838220
:1013C00070470000002C0140003401400004004040
:1013D00000080040000C00400010004000140040D5
:1013E00000400140004401400048014010B540F277
:1013F00025510C4800F07BF898B10B480478007830
:10140000401C094908703F2C06D0064800F02AF914
:10141000C1B2054A601C115440F22551014800F048
:1014200035F810BD00380140FC02002010B540F234
:101430002551144800F05BF810B3134890F8404071
:1014400090F84000401C104981F840000D4800F021
:1014500009F9C2B20C484030611C4254403890F83F
:1014600040000B2807D10020074981F8400001F116
:101470004100FFF7B7FA40F22551024800F006F8A4
:1014800010BD000000440040FC02002010B5002206
:10149000002340F66A14A14200D100BF0A120124C1
:1014A0009440A3B2DC43048010BD21B1828942F490
:1014B0000052828104E082894DF6FF731A408281D6
:1014C00070471AB1838A0B43838202E0838A8B437D
:1014D0008382704702460020B1F5007F00D100BF33
:1014E00013880B400BB1012000E00020704770B55D
:1014F0000246002400230025002040F66A16B1426F
:1015000000D100BFC1F3421501F01F03012606FA06
:1015100003F3012D02D19689334006E0022D02D15A
:10152000168A334001E0968A33400C12012606FAEF
:1015300004F41688344013B10CB1012000E00020FF
:1015400070BDF0B50346002400260025002040F6BB
:101550006A17B94200D100BF1846C1F3421401F026
:101560001F06012707FA06F5012C01D10C3004E013
:10157000022C01D1103000E014301AB107682F435B
:10158000076002E00768AF430760F0BD2DE9F04750
:1015900086B005460E460024A24600BFA14600279D
:1015A000B08900B100BF2F462C8A4CF6FF70044072
:1015B000F08804432C82AC894EF6F3100440B088C6
:1015C00031890843718908430443AC81AC8A4FF6E2
:1015D000FF400440B0890443AC8201A8FFF7D0FB70
:1015E0001F48874202D1DDF810A001E0DDF80CA011
:1015F000A88900F4004040B10AEBCA0000EB0A10D1
:1016000031684900B0FBF1F807E00AEBCA0000EBD3
:101610000A1031688900B0FBF1F86420B8FBF0F0E3
:1016200004012009642101FB1089A88900F400400D
:1016300040B1322000EBC900B0FBF1F000F0070030
:10164000044308E0322000EB09106421B0FBF1F004
:1016500000F00F0004432C8106B0BDE8F0870000C5
:101660000038014001468888C0F308007047C1F384
:1016700008028280704700BFFEE7000070B5054693
:101680000E460E484078B0B901200C49487000243D
:1016900005E028780A4908556D1C601CC4B2B442A4
:1016A000F7DB31460748FEF714FF01210548FEF736
:1016B00021FE002070BD0120FCE700000C0100208D
:1016C000EC0300208000024000B587B00121042017
:1016D000FFF746FB01210820FFF742FB18208DF899
:1016E0000B0003208DF80A004FF40170ADF80800DC
:1016F00002A94048FFF7ACF84FF48060ADF808004D
:1017000002A93D48FFF7A4F804208DF80B004FF420
:101710008160ADF8080002A93648FFF799F84FF448
:101720000060ADF8080002A93348FFF791F84FF4C4
:10173000E13003900020ADF818000C20ADF8160041
:101740000020ADF81400ADF81200ADF81000012132
:101750008803FFF705FB01214804FFF7F1FA012197
:101760008804FFF7EDFA03A92448FFF70FFF03A948
:101770002348FFF70BFF03A92248FFF707FF0120CB
:101780008DF8070002208DF8050001208DF8060075
:1017900025208DF8040001A8FFF746FA26208DF8D1
:1017A000040001A8FFF740FA27208DF8040001A8E3
:1017B000FFF73AFA012240F225511048FFF7C1FE27
:1017C000012240F225510E48FFF7BBFE012240F2F4
:1017D00025510C48FFF7B5FE01210848FFF765FECB
:1017E00001210748FFF761FE01210648FFF75DFE72
:1017F00007B000BD00080140000C01400038014066
:10180000004400400048004000B58DB0012108466A
:10181000FFF786FA002005901020049000200C901D
:1018200009908020079000200A90089006904FF4BD
:1018300000500B9001208DF805008DF806000E2059
:101840008DF8040001208DF8070001A8FFF7ECF9DE
:1018500011208DF8040001208DF8070001A8FFF782
:10186000E3F90C208DF8040001208DF8070001A891
:10187000FFF7DAF92D4803902D48029040140B90A1
:101880002C48FEF743FD4FF48050FEF725FD012262
:1018900002212848FEF7F6FD02A92648FEF7FBFDC7
:1018A000254803902548029040140B9021483C3075
:1018B000FEF72CFD4FF08070FEF70EFD0122022195
:1018C0001C483C30FEF7DEFD02A91A483C30FEF70A
:1018D000E2FD1B4803901B48029040140B901548F2
:1018E0002838FEF713FD1020FEF7F6FC0122022136
:1018F00010482838FEF7C6FD02A90E482838FEF722
:10190000CAFD012280210A48001FFFF7DAFD0122EB
:1019100080210A48001FFFF7D4FD012280210948D9
:10192000001FFFF7CEFD0DB000BD0000BC0300207E
:101930000438014044000240EC030020044400400D
:101940001C0400200448004030B50246501E164CCE
:1019500004EB80100078884224DB002312E0581C3E
:1019600008443F280CDA501E0F4C04EB8014581C1E
:101970000844245C501E0C4D05EB8015581C2C545B
:10198000581CC3B28B42EADB501E074C04EB80109C
:101990000078401AC4B2501E034D05EB801004704D
:1019A000002030BD0120FCE7FC0200200022411E87
:1019B000014B5A54704700000C0100200FB4054B36
:1019C00010B503A9044A029800F018F810BC5DF89D
:1019D00014FB0000511B00086801002002E008C849
:1019E000121F08C1002AFAD170477047002001E099
:1019F00001C1121F002AFBD1704700002DE9FF4FE3
:101A000089B09B460446002506E025280BD05A469F
:101A10000B999047641C6D1C20780028F5D10DB0FF
:101A20002846BDE8F08F0027B8460122474900E06C
:101A3000074314F8013F203B02FA03F00842F7D1B4
:101A400020782E2819D114F8010F47F004072A280E
:101A50000ED06FF02F022078A0F1300109290CD8A8
:101A600008EB880102EB410100EB0108641CF2E77E
:101A70000A98641C50F8048B0A9020780028CED075
:101A8000642808D0692806D075281ED05A460B99BC
:101A900090476D1C58E00A994FF00A0901C90A9154
:101AA000002802DA40422D2102E0390504D52B211D
:101AB0008DF82010012103E0F90704D02021F7E779
:101AC0008A4608AE0DE00021FAE70A994FF00A09AC
:101AD00001C90A91F7E74946FEF746FB303106F89F
:101AE000011D0028F7D1ADEB060000F120097807B1
:101AF00001D44FF00108C84502DDA8EB090000E061
:101B000000208046002706E008A85A46C05D0B99D1
:101B100090476D1C7F1C5745F6DB04E030205A4689
:101B20000B9990476D1CB8F10001A8F10108F5DC94
:101B300005E016F8010B5A460B9990476D1CB9F158
:101B40000001A9F10109F4DC641C65E70928010022
:101B500070B504460D46A1B20548FFF788FD00BFE9
:101B600080210348FFF7B6FC0028F9D0204670BD5D
:101B700000380140FFF79AF800BFFEE79C1B000801
:101B8000000000206C010000B8010008C81B00081C
:101B90006C010020E4060000EC190008412D010250
:101BA0000304040009440607080902040608080D96
:101BB0003AA555100AA55601FCA55702FE24015866
:081BC00009567C091A580000C7
:0400000508000131BD
:00000001FF
