:020000040800F2
:1000000048080020450100086D0B0008850A00081B
:10001000890A0008E3010008131600080000000028
:10002000000000000000000000000000C90D0008F2
:100030005B04000800000000910C0008150F000888
:100040005F0100085F0100085F0100085F01000810
:100050005F0100085F0100085D040008F10400086A
:1000600085050008190600085F0100085F01000807
:10007000E90100085F0100080D0200085F010008A7
:100080005F010008350200085F0100085F010008F9
:100090005F0100085F0100085F0100085F010008C0
:1000A0005F0100085F0100085F0100085F010008B0
:1000B0005F0100085F0100085F0100085F010008A0
:1000C0005F0100085F0100085F0100085F01000890
:1000D0005F010008A9130008E91300085F01000888
:1000E0005F0100085F0100085F0100085F01000870
:1000F0005F0100085F0100085F0100085F01000860
:100100005F0100085F0100085F0100085F0100084F
:100110005F0100085F010008B10F0008DD0F000853
:100120005F0100085F0100085F0100085F0100082F
:10013000DFF80CD000F018F8004800471319000849
:10014000480800200648804706480047FEE7FEE7CB
:10015000FEE7FEE7FEE7FEE7FEE7FEE7FEE7FEE777
:10016000190F000831010008064C074D06E0E06851
:1001700040F0010394E8070098471034AC42F6D3EE
:10018000FFF7DAFF1C1900083C19000870B58C183D
:1001900010F8015B15F0070301D110F8013B2A119B
:1001A00006D110F8012B03E010F8016B01F8016B88
:1001B0005B1EF9D12B0705D40023521E0DD401F884
:1001C000013BFAE710F8013BCB1A921C03E013F84D
:1001D000015B01F8015B521EF9D5A142D8D3002082
:1001E00070BD00BFFEE7000010B5202000F0F6F85B
:1001F00048B1202000F032F80021034800F03CF81C
:10020000032001F06FFB10BD1C00024010B54FF43D
:10021000005000F0E3F850B14FF4005000F01EF829
:100220000021034800F028F8012001F05BFB10BD1D
:100230004400024010B54FF0007000F0CFF850B10C
:100240004FF0007000F00AF80021034800F014F8A5
:10025000022001F047FB10BD8000024000F08051F9
:1002600011B10349086001E002494860704700008D
:10027000040402400000024021B1026842F0010281
:10028000026004E002684FF6FE731A400260704795
:1002900001684FF6FE72114001600021016041606B
:1002A0008160C1604B49884208D14A490839496890
:1002B00041F00F01474A083A51608AE0454914313C
:1002C000884208D143490839496841F0F001414A60
:1002D000083A51607DE03F492831884208D13D49C4
:1002E0000839496841F470613A4A083A516070E04F
:1002F00038493C31884208D136490839496841F4C7
:100300007041344A083A516063E0324950318842C2
:1003100008D130490839496841F470212D4A083A1A
:10032000516056E02B496431884208D12949083987
:10033000496841F47001274A083A516049E025496B
:100340007831884208D123490839496841F0706101
:10035000204A083A51603CE01F49884206D1011FFB
:10036000096841F00F01021F116032E01A4914318F
:10037000884208D11849091F096841F0F001164A5E
:10038000121F116025E014492831884208D1124912
:10039000091F096841F470610F4A121F116018E0CB
:1003A0000D493C31884208D10B49091F096841F4C5
:1003B0007041094A121F11600BE007495031884211
:1003C00007D10549091F096841F47021024A121F2B
:1003D00011607047080002400804024001460020F6
:1003E000002201F0805313B1054B1A6801E0054B60
:1003F0001A6802EA01030BB1012000E000207047F7
:1004000000040240000002401AB103680B4303607D
:1004100002E003688B430360704710B50022026856
:1004200047F6F0739A430C6A8B6823430C692343A5
:100430004C6923438C692343CC6923434C6A23438F
:100440008C6A23431A430260CB6843600B68836065
:100450004B68C36010BD41607047704710B5012004
:1004600000F030F901282DD11748C0881749C880FD
:100470001748C0881749C880174800881249C880A3
:100480001648808C1249C880012000F015F91448E4
:1004900080791449C8701021134800F01CFA012813
:1004A00008D01248C068401C1049C86000200C49A0
:1004B000C88007E00D48C068401E0C49C860012094
:1004C0000749C88010BD0000DE000020D6000020D3
:1004D000CE000020C6000020C40000200010004014
:1004E000EA000020E6000020001001407402002015
:1004F00010B5022000F0E6F801282DD117488088B9
:1005000017498880174880881749888017480088CD
:10051000124988801648808C12498880022000F099
:10052000CBF814480079144988702021134800F052
:10053000D2F9012808D012488068401E104988600E
:1005400001200C49888007E00D488068401C0C4958
:10055000886000200749888010BD0000DE00002070
:10056000D6000020CE000020C6000020C4000020DD
:1005700000100040EA000020E600002000100140CA
:100580007402002010B5042000F09CF801282DD141
:1005900017484088174948801748408817494880BD
:1005A00017480088124948801648808C12494880B4
:1005B000042000F081F814488078144948708021A4
:1005C000134800F088F9012808D012484068401C00
:1005D0001049486000200C49488007E00D484068F9
:1005E000401E0C49486001200749488010BD0000AA
:1005F000DE000020D6000020CE000020C600002033
:10060000C400002000100040EA000020E6000020A6
:10061000001001407402002010B5082000F052F8CC
:1006200001282DD1174800881749088017480088ED
:100630001749088017480088124908801648808C9E
:1006400012490880082000F037F81448007814494F
:1006500008704021134800F03EF9012808D01248E4
:100660000068401E1049086001200C49088007E01E
:100670000D480068401C0C490860002007490880AC
:1006800010BD0000DE000020D6000020CE000020BB
:10069000C6000020C400002000100040EA00002036
:1006A000E6000020001001407402002001490860AB
:1006B00070470000140401400149086070470000C1
:1006C00014040140014600200022074B1B6803EA86
:1006D0000102054B14331B680B4013B10AB1012012
:1006E00000E0002070470000000401400021234981
:1006F0008279002A3AD00A46126803689A430B4668
:100700001A600A1D126803689A430B1D1A60027969
:1007100011440A6803681A430A60184A08321268CA
:1007200003689A43154B08331A601A1D1268036850
:100730009A43124B0C331A604279102A0ED11A1FB9
:10074000126803681A430D4B08331A601A1D1268A9
:1007500003681A43094B0C331A600DE007494279CC
:1007600011440A6803681A430A6005E002791144DB
:100770000A6803689A430A60704700000004014059
:1007800030B500228B071C0F0F2303FA04F20B4B2A
:100790008C1053F824309343084C8D1044F82530C6
:1007A00023468C1053F824308C07240F00FA04F4ED
:1007B0002343024C8D1044F8253030BD0800014021
:1007C0002DE9F041024600250026002000230024E8
:1007D000002791F803C00CF00F0591F803C00CF04E
:1007E000100CBCF1000F03D091F802C04CEA0505D3
:1007F00091F800C0BCF1000F31D0146800202BE04C
:100800004FF0010C0CFA00F3B1F800C00CEA03063B
:100810009E4220D183004FF00F0C0CFA03F7BC432B
:1008200005FA03FC4CEA040491F803C0BCF1280F5C
:1008300006D14FF0010C0CFA00FCC2F814C00AE01B
:1008400091F803C0BCF1480F05D14FF0010C0CFA30
:1008500000FCC2F810C0401C0828D1D31460B1F8C5
:1008600000C0BCF1FF0F34DD546800202EE000F121
:10087000080C4FF0010808FA0CF3B1F800C00CEABC
:1008800003069E4221D183004FF00F0C0CFA03F7B0
:10089000BC4305FA03FC4CEA040491F803C0BCF124
:1008A000280F05D100F1080C08FA0CF8C2F81480E2
:1008B00091F803C0BCF1480F07D100F1080C4FF0CC
:1008C000010808FA0CF8C2F81080401C0828CED3A2
:1008D0005460BDE8F0810246002093680B400BB1E4
:1008E000012000E0002070474161704701617047BE
:1008F00010B500BF04210A4800F08EFE0028F9D18F
:1009000000BF0421074800F087FE0028F9D100BF8E
:100910000421054800F080FE0028F9D110BD000038
:10092000740000207C000020780000200146487AF6
:100930000B7A40EA032244F25060824202DDA2F5C3
:100940007F42FF3A0A2092FBF0F0024B18601846F3
:1009500000687047800000200EB50121084600F0B5
:10096000B9F90F20019001208DF80A0000208DF8C0
:10097000080008208DF8090000210220FFF700FF81
:1009800001210220FFF7FCFE02210846FFF7F8FED6
:1009900003210220FFF7F4FE01A8FFF7A7FE0120C4
:1009A0008DF803008DF8010003208DF80200062069
:1009B0008DF80000684600F0DBF807208DF8000095
:1009C000684600F0D5F808208DF80000684600F071
:1009D000CFF809208DF80000684600F0C9F8012022
:1009E000FFF764FE0220FFF761FE0420FFF75EFEC2
:1009F0000820FFF75BFE0EBD08B50121102000F0B6
:100A000069F928208DF80300FF20ADF80000694641
:100A10000148FFF7D5FE08BD001001401FB50121B8
:100A2000102000F047F90020ADF80A00ADF80600EC
:100A30004EF65F20ADF8080040F2CF20ADF804007C
:100A400000208DF80C0001A90D4800F05BFC01228C
:100A500011460B4800F0F0FA36208DF80000012016
:100A60008DF8030000208DF801008DF80200684623
:100A700000F07EF80121024800F0C1FA1FBD00001D
:100A80000010004000BFFEE700BFFEE708B50121EF
:100A9000082000F01FF918208DF8030003208DF8BE
:100AA00002004FF47070ADF8000069460148FFF78E
:100AB00087FE08BD000C014010B500F05DFAFFF79D
:100AC000E5FF00F007F8FFF797FFFFF745FFFFF797
:100AD000A5FF10BD00B587B00121042000F0EAF8A1
:100AE0000020ADF81600ADF8120041F61F40ADF839
:100AF00014000020ADF810008DF8180004A91A4861
:100B000000F000FC6020ADF800000020ADF8080007
:100B10000120ADF802000020ADF806006946124839
:100B200000F094FA6946104800F0E6FA69460E486B
:100B300000F042FB69460C4800F098FB08210A4887
:100B400000F0D0FA0821084800F028FB08210648E8
:100B500000F082FB0821044800F0C6FB0121024896
:100B600000F04DFA07B000BD0008004070470000DB
:100B700070B5002100230F22C47804B3154C2468FB
:100B800004F4E064C4F5E064210AC1F10403CA403E
:100B9000447804FA03F184781440214309010E4C8F
:100BA0000678A155047804F01F050124AC400578AF
:100BB0006D11AD0005F1E025C5F8004109E00478AC
:100BC00004F01F050124AC40044D0678761145F869
:100BD000264070BD0CED00E000E400E080E100E0A4
:100BE00002490143024A1160704700000000FA0503
:100BF0000CED00E070B54FF4A060FFF7F1FF00F0DE
:100C000031FD00F0CFFDFFF773FEFFF755FF4FF406
:100C100080711A48FFF768FE4FF400711748FFF71C
:100C200065FE40F6B830164908801649B1F1807F5C
:100C300000D31DE021F07F40401E4FF0E0225061C4
:100C400050170F22002807DA13071D0E0E4B00F075
:100C50000F04241F1D5503E013071C0E0B4B1C54DF
:100C600000BF00204FF0E02290610720106100BF1C
:100C700048210A2000F01EF970BD0000001001405C
:100C800034080040407E050018ED00E000E400E07C
:100C90007047000029B1064A52690243044B5A6169
:100CA00004E0034A52698243014B5A6170470000D5
:100CB0000010024029B1064AD2690243044BDA61AE
:100CC00004E0034AD2698243014BDA6170470000B5
:100CD0000010024029B1064A92690243044B9A610E
:100CE00004E0034A92698243014B9A617047000015
:100CF0000010024030B500210022002400232D4DB9
:100D00006D6805F00C0121B1042905D0082923D113
:100D100005E0294D056022E0274D05601FE0254DC7
:100D20006D6805F47012234D6D6805F4803402255A
:100D300005EB92421CB9214D554305600BE01D4D5A
:100D40006D6805F400351DB11C4D5543056002E08A
:100D5000194D5543056002E0174D056000BF00BF07
:100D6000144D6D6805F0F0010909154D6B5C0568BF
:100D7000DD4045600F4D6D6805F4E061090A104DD6
:100D80006B5C4568DD4085600A4D6D6805F4605117
:100D9000C90A0B4D6B5C4568DD40C560054D6D684B
:100DA00005F44041890B074D6B5CC568B5FBF3F555
:100DB000056130BD0010024000127A0000093D00BC
:100DC0000000002010000020704710B500F002F86D
:100DD00010BD00000CB50020019000903348006861
:100DE00040F480303149086000BF3048006800F4AA
:100DF000003000900198401C0190009818B90198AB
:100E0000B0F5A06FF1D12948006800F4003010B1AE
:100E10000120009001E0002000900098012843D1BB
:100E20002348006840F01000214908600846006827
:100E300020F0030008600846006840F002000860E7
:100E40001A484068194948600846406848600846A2
:100E5000406840F4806048600846406820F47C1098
:100E600048600846406840F4E8104860084600685A
:100E700040F08070086000BF0C48006800F000700F
:100E80000028F9D00948406820F00300074948606D
:100E90000846406840F00200486000BF03484068D0
:100EA00000F00C000828F9D10CBD00000010024031
:100EB000002002407FB504460D4601212020FFF7A7
:100EC000F9FE0020ADF80A00ADF80600ADF80450B8
:100ED000ADF808408DF80C0001A90D4800F012FA99
:100EE000012211460A4800F0A7F837208DF80000CB
:100EF00001208DF8030000208DF801008DF802001C
:100F00006846FFF735FE0121014800F078F87FBD03
:100F1000001400407047000010B51348006840F00E
:100F200001001149086008464068104908400E4910
:100F30004860084600680E4908400B4908600846AA
:100F4000006820F4802008600846406820F4FE0015
:100F500048604FF41F008860FFF737FF4FF00060D4
:100F60000449086010BD0000001002400000FFF8B6
:100F7000FFFFF6FE08ED00E008B501211020FFF7A5
:100F8000A9FE10208DF8030003208DF802004FF415
:100F90007F40ADF8000069460448FFF711FC4FF4AC
:100FA0007F410248FFF7A0FC08BD0000001001408F
:100FB00010B50121074800F02EF8012808D1064895
:100FC0000088401C044908800121024800F014F800
:100FD00010BD000000100040C400002010B5012129
:100FE000044800F018F8012803D10121014800F05D
:100FF00003F810BD00140040CA430282704721B1BB
:10100000028842F00102028004E002884FF6FE737B
:101010001A400280704730B50246002000230024A9
:10102000158A05EA0103958905EA010413B10CB19B
:10103000012000E0002030BD1AB183890B43838179
:1010400002E083898B4383817047000070B50024E0
:1010500000220023058C4FF6FE7635400584028C75
:101060008388048B4FF68F752C40B51E2C400D885D
:101070002C43751E2A400D892A434D882A43144D5E
:10108000A8420BD0134DA84208D0134DA84205D05A
:10109000124DA84202D0124DA84213D14FF6F77557
:1010A0002A404D892A434FF6FB752A408D882A43F2
:1010B0004FF6FF652B404FF6FF552B408D892B4394
:1010C000CD892B4383800483CD888586028470BDBF
:1010D000002C014000340140004001400044014028
:1010E000004801400A460021018B4FF6F773194072
:1010F000114301837047000070B5002400220023D3
:10110000058C4FF6EF7635400584028C8388048B7E
:1011100048F6FF752C404FF6FF452C400D884FF6E2
:10112000FF7606EA05252C434FF6DF752A400D8928
:1011300006EA05152A434D8806EA05152A43154D8A
:10114000A84202D0144DA8421DD14FF67F752A4007
:101150004D894FF6FF7606EA05152A434FF6BF750F
:101160002A408D8806EA05152A434FF6FF352B40A5
:101170004FF2FF752B408D8906EA85052B43CD89FB
:1011800006EA85052B4383800483CD880587028486
:1011900070BD0000002C0140003401400A460021CF
:1011A000018B4FF2FF7319404FF6FF7303EA0223DE
:1011B000194301837047000070B50024002200230A
:1011C000058C4FF6FF6635400584028C8388848B3E
:1011D0004FF68F752C404FF6FC752C400D882C4334
:1011E0004FF6FF552A400D894FF6FF7606EA052592
:1011F0002A434D8806EA05252A43154DA84202D008
:10120000144DA8421DD14FF2FF752A404D894FF66B
:10121000FF7606EA05252A434FF6FF352A408D88DA
:1012200006EA05252A434EF6FF752B404DF6FF755D
:101230002B408D8906EA05152B43CD8906EA051555
:101240002B4383808483CD888587028470BD000012
:10125000002C0140003401400A460021818B4FF6EA
:10126000F7731940114381837047000070B5002265
:1012700000230024058C4EF6FF7635400584038C50
:101280008488828B48F6FF752A404FF6FF452A4036
:101290000D884FF6FF7606EA05252A434DF6FF75C1
:1012A0002B400D8906EA05352B434D8806EA0535A6
:1012B0002B430B4DA84202D00A4DA84208D14BF651
:1012C000FF752C408D894FF6FF7606EA85152C4375
:1012D00084808283CD88A0F84050038470BD0000D4
:1012E000002C0140003401400A460021818B4FF25E
:1012F000FF7319404FF6FF7303EA022319438183FA
:1013000070470000002202881D4B98420ED01D4BF2
:1013100098420BD0B0F1804F08D01B4B984205D0BB
:101320001A4B984202D01A4B984204D14FF68F7351
:101330001A404B881A43174B984207D0164B9842D5
:1013400004D04FF6FF431A40CB881A4302808B88A3
:1013500083850B8803850A4B98420BD0094B984232
:1013600008D00E4B984205D00D4B984202D00D4B41
:10137000984201D10B7A03860123838270470000D3
:10138000002C0140003401400004004000080040EF
:10139000000C0040001000400014004000400140DC
:1013A000004401400048014010B540F225510C486E
:1013B00000F06EF898B10B4804780078401C094999
:1013C00008703F2C06D0064800F01EF9C1B2054A4D
:1013D000601C115440F22551014800F035F810BD51
:1013E00000380140F402002010B540F225511448A5
:1013F00000F04EF810B3134890F8404090F84000C9
:10140000401C104981F840000D4800F0FDF8C2B2C0
:101410000C484030611C4254403890F840000B2882
:1014200007D10020074981F8400001F14100FFF792
:101430007DFA40F22551024800F006F810BD000088
:1014400000440040F402002010B50022002340F6C2
:101450006A14A14200D100BF0A1201249440A3B231
:10146000DC43048010BD21B1828942F400528281A4
:1014700004E082894DF6FF731A40828170471AB1E9
:10148000838A0B43838202E0838A8B438382704783
:1014900070B50246002400230025002040F66A169D
:1014A000B14200D100BFC1F3421501F01F03012674
:1014B00006FA03F3012D02D19689334006E0022D8E
:1014C00002D1168A334001E0968A33400C1201267D
:1014D00006FA04F41688344013B10CB1012000E080
:1014E000002070BDF0B50346002400260025002032
:1014F00040F66A17B94200D100BF1846C1F3421442
:1015000001F01F06012707FA06F5012C01D10C3066
:1015100004E0022C01D1103000E014301AB1076849
:101520002F43076002E00768AF430760F0BD00008B
:101530002DE9F04786B005460E460024A24600BFBE
:10154000A1460027B08900B100BF2F462C8A4CF677
:10155000FF700440F08804432C82AC894EF6F310EF
:101560000440B08831890843718908430443AC8141
:10157000AC8A4FF6FF400440B0890443AC8201A816
:10158000FFF7B8FB1F48874202D1DDF810A001E049
:10159000DDF80CA0A88900F4004040B10AEBCA00B5
:1015A00000EB0A1031684900B0FBF1F807E00AEBE4
:1015B000CA0000EB0A1031688900B0FBF1F8642022
:1015C000B8FBF0F004012009642101FB1089A8890F
:1015D00000F4004040B1322000EBC900B0FBF1F054
:1015E00000F00700044308E0322000EB09106421FA
:1015F000B0FBF1F000F00F0004432C8106B0BDE811
:10160000F08700000038014001468888C0F30800D8
:10161000704700BFFEE7000070B505460E460E4855
:101620004078B0B901200C494870002405E02878C2
:101630000A4908556D1C601CC4B2B442F7DB314640
:101640000748FEF708FF01210548FEF715FE0020B8
:1016500070BD0120FCE7000060010020E4030020D1
:101660008000024000B587B001210420FFF732FB63
:1016700001210820FFF72EFB18208DF80B00032016
:101680008DF80A004FF40170ADF8080002A9404837
:10169000FFF796F84FF48060ADF8080002A93D48C6
:1016A000FFF78EF804208DF80B004FF48160ADF841
:1016B000080002A93648FFF783F84FF40060ADF840
:1016C000080002A93348FFF77BF84FF4E13003909C
:1016D0000020ADF818000C20ADF816000020ADF881
:1016E0001400ADF81200ADF8100001218803FFF7D7
:1016F000F1FA01214804FFF7DDFA01218804FFF720
:10170000D9FA03A92448FFF713FF03A92348FFF7D9
:101710000FFF03A92248FFF70BFF01208DF80700F8
:1017200002208DF8050001208DF8060025208DF897
:10173000040001A8FFF71CFA26208DF8040001A878
:10174000FFF716FA27208DF8040001A8FFF710FA1A
:10175000012240F225511048FFF7C4FE012240F259
:1017600025510E48FFF7BEFE012240F225510C48DC
:10177000FFF7B8FE01210848FFF775FE0121074871
:10178000FFF771FE01210648FFF76DFE07B000BDAF
:1017900000080140000C01400038014000440040B6
:1017A0000048004000B58DB001210846FFF772FAED
:1017B000002005901020049000200C9009908020BB
:1017C000079000200A90089006904FF400500B906C
:1017D00001208DF805008DF806000E208DF804001C
:1017E00001208DF8070001A8FFF7C2F911208DF83C
:1017F000040001208DF8070001A8FFF7B9F90C20BB
:101800008DF8040001208DF8070001A8FFF7B0F95A
:101810002D4803902D48029040140B902C48FEF761
:1018200037FD4FF48050FEF719FD012202212848B0
:10183000FEF7EAFD02A92648FEF7EFFD25480390D2
:101840002548029040140B9021483C30FEF720FDC3
:101850004FF08070FEF702FD012202211C483C304F
:10186000FEF7D2FD02A91A483C30FEF7D6FD1B4810
:1018700003901B48029040140B9015482838FEF73F
:1018800007FD1020FEF7EAFC01220221104828384B
:10189000FEF7BAFD02A90E482838FEF7BEFD012268
:1018A00080210A48001FFFF7EAFD012280210A4833
:1018B000001FFFF7E4FD012280210948001FFFF708
:1018C000DEFD0DB000BD0000B4030020043801406F
:1018D00044000240E40300200444004014040020BB
:1018E000044800400022411E014B5A54704700003A
:1018F0006001002002E008C8121F08C1002AFAD1C6
:1019000070477047002001E001C1121F002AFBD17F
:101910007047FFF76FF900BFFEE700003C190008B1
:1019200000000020640100008C0100086419000818
:1019300064010020E406000004190008412D0102A2
:101940000304040009600607080902040608080DDC
:101950006AA555100AA55601FCA55702FE3C09765A
:04196000D8000000AB
:0400000508000131BD
:00000001FF
