:020000040800F2
:10000000101A00204501000875160008E9110008C3
:1000100059150008370800081B2D000800000000D3
:10002000000000000000000000000000D5210008D2
:10003000550B000800000000211D0008FD240008E9
:100040005F0100085F0100085F0100085F01000810
:100050005F0100085F010008750B00085F010008E0
:10006000090C00085F0100089D0C00085F010008F2
:100070003D0800085F010008610800085F010008F2
:100080005F010008890800085F0100085F0100089F
:100090005F0100085F0100085F010008310D0008E2
:1000A0005F0100085F0100085F0100085F010008B0
:1000B0005F0100085F0100085F0100085F010008A0
:1000C0005F0100085F0100085F0100085F01000890
:1000D0005F010008692A0008A92A0008F12A00081F
:1000E0005F0100085F0100085F0100085F01000870
:1000F0005F0100085F0100085F0100085F01000860
:100100005F0100085F0100085F0100085F0100084F
:100110005F0100085F010008E925000815260008B6
:100120005F0100085F0100085F0100085F0100082F
:10013000DFF80CD000F02EFB004800470B31000820
:10014000101A00200648804706480047FEE7FEE7F1
:10015000FEE7FEE7FEE7FEE7FEE7FEE7FEE7FEE777
:100160003D250008310100082DE9F0410024061B5F
:10017000254671F1000605DA01240027D0EB0700BF
:1001800067EB0101161E73F1000605DA0027D2EBBA
:100190000702012567EB030300F016FA86460E46B8
:1001A00017469C46AC4204D00025D0EB050E65EB0B
:1001B000010624B10020D2EB000760EB030C70466F
:1001C00031463A466346BDE8F081F0B480EA010268
:1001D000D40F4200B2EB410F02D20246084611464C
:1001E0004A0042D0C30DDDB2C1F3C752AD1A202D73
:1001F00035DAC1F3160141F4000204B15242C5F1EF
:10020000200602FA06F12A411044B3EBD05F23D056
:10021000C4B1012DA0EBC35009DCF0BC4FF000428B
:1002200002EAC352DBB200F5000000F028BA400039
:1002300000F1807000EBC350A0F1807040EAD170F3
:10024000490009E0490841EAC071A0EBC35000F53C
:100250000000400800EBC350F0BC00F007BA614258
:10026000012202EB4101001BF6E7F0BC704781F070
:100270000041AAE780F00040A7E780EA010210B53C
:1002800002F00043400022D04A001FD0010E01EBD3
:100290001261C0F35600C2F3560240F4000042F46B
:1002A0000002A0FB022000047F39140400D0401C8F
:1002B00050EA124001D44000491EC2B20C0604EBC1
:1002C000D010401C4008802A02D003E0002010BD5E
:1002D00020F00100002900DA0020184310BD2DE9AC
:1002E000FE4F804681EA0300C00F0C46009021F0CB
:1002F000004123F00045B8EB0200A94105D2404679
:10030000214690461C460B46024623F0004010430F
:1003100047D0270DC7F30A00C3F30A510290401AD1
:10032000019040286BDAC3F3130040F4801B00985F
:10033000924620B10023D2EB030A63EB0B0B01982A
:100340005946C0F14002504600F06FF906460D468E
:1003500050465946019A00F077F910EB08006141C8
:10036000002487EA115284EAE7731A4340D0009AC6
:1003700062B3019A012A4FEA075215DC001B61EBB8
:1003800002014FF0004202EA0752CDE90042001C90
:1003900041F5801132462B4600F0AEF903B0BDE8BE
:1003A000F08F40462146F9E7001B61EB0201001C7B
:1003B00041F5801300185B412018A2F5001747EBA8
:1003C000030140EAD570B6196D4111E06D084FEA9E
:1003D000360645EAC0754FEA0752001B61EB020181
:1003E000001C41F5801149084FEA300000195141C5
:1003F00032462B4603B0BDE8F04F00F06EB90098CE
:10040000012240000023D0EB020263EBE07300986E
:1004100021464FEAE074B8EB000061EB0401E9E724
:1004200083F000435BE781F0004158E72DE9FE4F80
:1004300081EA030404F0004421F0004100944FF0ED
:10044000000B23F0004350EA01045ED052EA03049B
:100450005BD0C3F30A54C1F30A552C44A4F2F3341D
:100460000194A0FB0254C1F3130141F48011C3F3C2
:10047000130343F4801301FB024400FB034E840A80
:10048000970A44EA815447EA8357A4FB0768029518
:100490008D0A05FB07854FEA932C04FB0C542705B6
:1004A000029D4FEA065847EA1637B5EB08056EEB92
:1004B000070C870E920E47EA811742EA8312A7FBC8
:1004C0000201B6EB0B0164EB00042B0D43EA0C3385
:1004D0005E1844EB1C50DA465146E7FB0201C5F3B7
:1004E00013044FEA0B3343EA14534FEA0432019CDE
:1004F00043EA0603A4F10C040294009CCDE900B485
:1005000000F0FAF803B0BDE8F08F00200146F9E7EB
:10051000C10F80EAE0700844CA079623002100F06A
:10052000AEB800F0004220F00040C10DC0F316004C
:1005300040F400007F2901DA00207047962903DC8F
:10054000C1F19601C84001E096398840002AF4D0F4
:100550004042704700F0004230F000400AD0C10D28
:1005600001F56071C0F3160042EA0151C20840076C
:100570001143704700200146704701F0004330B43A
:1005800021F0004150EA010206D00A0DA2F5607286
:10059000C1F31301002A02DC30BC00207047440F75
:1005A00044EAC104C100E01830BC00EBC25000F0C6
:1005B0005DB80000002801DBC0F10040002901DB2C
:1005C000C1F10041814270472DE9F05F05460020EE
:1005D00092469B4688460646814640241BE02846B4
:1005E00041464746224600F0E7F853465A46C01AAD
:1005F000914110D311461846224600F016F82D1AE4
:1006000067EB01084F4622460120002100F00DF85B
:1006100017EB00094E41201EA4F10104DFDC48461F
:1006200031462A464346BDE8F09F202A04DB203AA3
:1006300000FA02F1002070479140C2F1200320FA35
:1006400003F3194390407047202A06DBCB17203A6A
:1006500041FA02F043EAE07306E041FA02F3D040C7
:10066000C2F1200291400843194670470029A8BFF3
:100670007047401C490008BF20F00100704710B4CB
:10068000B0FA80FC00FA0CF050EA010404BF10BC80
:10069000704749B1CCF1200421FA04F411FA0CF1AD
:1006A00018BF012121430843A3EB0C01CB1D4FEAE6
:1006B00000614FEA102042BF002010BC704700EBE1
:1006C000C35010440029A4BF10BC7047401C49000F
:1006D00008BF20F0010010BC704710B5141E73F164
:1006E000000408DA401C41F1000192185B411A43F2
:1006F00001D120F0010010BD2DE9F04D92469B463E
:1007000011B1B1FA81F202E0B0FA80F220329046E3
:10071000FFF78BFF04460F4640EA0A0041EA0B014F
:1007200053465A46084313D0114653EA010019D0E4
:10073000C8F14002504600F03FF805460E465046CC
:1007400059464246FFF771FF084305D0012004E0F7
:1007500020463946BDE8F08D0020054346EAE076A4
:100760002C4337430A986305E40AA0EB08000022F3
:10077000FD0A44EA47540A3002D500200146E9E761
:10078000010510196941DDE9084500196941BDE815
:10079000F04DA2E7064C074D06E0E06840F001038B
:1007A00094E8070098471034AC42F6D3FFF7C4FC36
:1007B000E438000804390008202A04DB203A21FA32
:1007C00002F00021704721FA02F3D040C2F120026A
:1007D000914008431946704770B58D1810F8014BC9
:1007E00014F0030201D110F8012B231106D110F8E7
:1007F000013B03E010F8016B01F8016B521EF9D1C7
:10080000ABB110F8012B04F00C048A1A0C2C03D0A5
:10081000A2EB84129B1C08E010F8014BA2EB04220F
:10082000F8E712F8014B01F8014B5B1EF9D5A9421C
:10083000D4D3002070BD00BFFEE7000010B520201B
:1008400000F0F6F848B1202000F032F8002103480B
:1008500000F03CF8032002F0D3FB10BD1C00024066
:1008600010B54FF4005000F0E3F850B14FF40050D1
:1008700000F01EF80021034800F028F8012002F0E3
:10088000BFFB10BD4400024010B54FF0007000F0F7
:10089000CFF850B14FF0007000F00AF80021034883
:1008A00000F014F8022002F0ABFB10BD8000024003
:1008B00000F0805111B10349086001E0024948602D
:1008C00070470000040402400000024021B10268A9
:1008D00042F00102026004E002684FF6FE731A4023
:1008E0000260704701684FF6FE72114001600021FE
:1008F000016041608160C1604B49884208D14A492A
:100900000839496841F00F01474A083A51608AE0C6
:1009100045491431884208D143490839496841F0B2
:10092000F001414A083A51607DE03F492831884250
:1009300008D13D490839496841F470613A4A083A9A
:10094000516070E038493C31884208D13649083955
:10095000496841F47041344A083A516063E03249D1
:100960005031884208D130490839496841F4702132
:100970002D4A083A516056E02B496431884208D12B
:1009800029490839496841F47001274A083A5160F9
:1009900049E025497831884208D123490839496816
:1009A00041F07061204A083A51603CE01F4988429A
:1009B00006D1011F096841F00F01021F116032E0EA
:1009C0001A491431884208D11849091F096841F0B1
:1009D000F001164A121F116025E01449283188429F
:1009E00008D11249091F096841F470610F4A121FAA
:1009F000116018E00D493C31884208D10B49091FAC
:100A0000096841F47041094A121F11600BE007495F
:100A10005031884207D10549091F096841F4702106
:100A2000024A121F11607047080002400804024089
:100A300001460020002201F0805313B1054B1A68D3
:100A400001E0054B1A6802EA01030BB1012000E046
:100A50000020704700040240000002401AB1036801
:100A60000B43036002E003688B430360704710B5DB
:100A70000022026847F6F0739A430C6A8B6823439E
:100A80000C6923434C6923438C692343CC6923437A
:100A90004C6A23438C6A23431A430260CB68436049
:100AA0000B6883604B68C36010BD416070470000F5
:100AB00013B50C460A2C00DC04B91CBD0B2C43D228
:100AC000DFE804F042060C12181E242A30363C00DF
:100AD00001221F49684600F0DFF935E005221C4974
:100AE000684600F0D9F92FE009221949684600F05C
:100AF000D3F929E00D221649684600F0CDF923E02C
:100B000011221349684600F0C7F91DE0152210496B
:100B1000684600F0C1F917E019220D49684600F057
:100B2000BBF911E01D220A49684600F0B5F90BE057
:100B300021220749684600F0AFF905E02522044963
:100B4000684600F0A9F900BF00BF00BFB5E700008C
:100B50009412002070470000002005E00021044AA4
:100B600042F82010411C88B20428F7DB70470000CF
:100B7000F407002010B5012000F030F901282DD134
:100B800017488088174988801748808817498880C7
:100B900017480088124988801648808C124988803E
:100BA000012000F015F914480079144988700221D9
:100BB000134800F02AFA012808D012488068401E25
:100BC0001049886001200C49888007E00D48806842
:100BD000401C0C49886000200749888010BD000037
:100BE0008E010020860100207E0100207601002079
:100BF00074010020001000409A010020960100209E
:100C000000100140F407002010B5042000F0E6F8C1
:100C100001282DD11748C0881749C8801748C088B7
:100C20001749C880174800881249C8801648808C28
:100C30001249C880042000F0CBF814488079144988
:100C4000C8700821134800F0E0F9012808D01248C4
:100C5000C068401C1049C86000200C49C88007E0EB
:100C60000D48C068401E0C49C86001200749C88073
:100C700010BD00008E010020860100207E010020B2
:100C80007601002074010020001000409A0100202D
:100C90009601002000100140F407002010B510203C
:100CA00000F09CF801282DD117484088174948804A
:100CB00017484088174948801748008812494880DB
:100CC0001648808C12494880102000F081F81448A2
:100CD0008078144948704021134800F096F90128A3
:100CE00008D012484068401E1049486001200C4955
:100CF000488007E00D484068401C0C4948600020CF
:100D00000749488010BD00008E01002086010020A8
:100D10007E010020760100207401002000100040B8
:100D20009A0100209601002000100140F4070020E5
:100D300010B5202000F052F801282DD11748008866
:100D40001749088017480088174908801748008805
:100D5000124908801648808C12490880202000F033
:100D600037F814480078144908708021134800F0BF
:100D70004CF9012808D012480068401C104908604E
:100D800000200C49088007E00D480068401E0C490F
:100D9000086001200749088010BD00008E01002076
:100DA000860100207E0100207601002074010020D1
:100DB000001000409A010020960100200010014020
:100DC000F407002001490860704700001404014046
:100DD00001490860704700001404014001460020EA
:100DE0000022074B1B6803EA0102054B14331B6802
:100DF0000B4013B10AB1012000E000207047000051
:100E000000040140002123498279002A3AD00A4691
:100E1000126803689A430B461A600A1D1268036839
:100E20009A430B1D1A60027911440A6803681A4339
:100E30000A60184A0832126803689A43154B08334F
:100E40001A601A1D126803689A43124B0C331A6019
:100E50004279102A0ED11A1F126803681A430D4BEB
:100E600008331A601A1D126803681A43094B0C33C1
:100E70001A600DE00749427911440A6803681A4371
:100E80000A6005E0027911440A6803689A430A601F
:100E9000704700000004014030B503461C788C54B4
:100EA0005D78541C0D559D78941C0D55DD78D41C2F
:100EB0000D5530BD30B500228B071C0F0F2303FAF0
:100EC00004F20B4B8C1053F824309343084C8D10D4
:100ED00044F8253023468C1053F824308C07240F17
:100EE00000FA04F42343024C8D1044F8253030BD41
:100EF000080001402DE9F0410246002500260020AF
:100F000000230024002791F803C00CF00F0591F88E
:100F100003C00CF0100CBCF1000F03D091F802C01C
:100F20004CEA050591F800C0BCF1000F31D01468FF
:100F300000202BE04FF0010C0CFA00F3B1F800C0D8
:100F40000CEA03069E4220D183004FF00F0C0CFAEE
:100F500003F7BC4305FA03FC4CEA040491F803C010
:100F6000BCF1280F06D14FF0010C0CFA00FCC2F8BE
:100F700014C00AE091F803C0BCF1480F05D14FF04E
:100F8000010C0CFA00FCC2F810C0401C0828D1D398
:100F90001460B1F800C0BCF1FF0F34DD54680020CC
:100FA0002EE000F1080C4FF0010808FA0CF3B1F83C
:100FB00000C00CEA03069E4221D183004FF00F0CC3
:100FC0000CFA03F7BC4305FA03FC4CEA040491F85D
:100FD00003C0BCF1280F05D100F1080C08FA0CF889
:100FE000C2F8148091F803C0BCF1480F07D100F19A
:100FF000080C4FF0010808FA0CF8C2F81080401CE9
:101000000828CED35460BDE8F081024600209368E2
:101010000B400BB1012000E0002070474161704798
:101020000161704710B500BF04210B4801F078FE44
:101030000028F9D100BF0421084801F071FE002802
:10104000F9D100BF0421064801F06AFE0028F9D159
:1010500001F0DEFF10BD0000BF000020C70000202F
:10106000C3000020024800680A2190FBF1F070479D
:10107000CC00002010B5032001F0B8FF0421024885
:1010800001F04EFE10BD0000C30000200246507A61
:10109000137A40EA032144F25060814202DDA1F557
:1010A0007F41FF3903480068091A0348016000685E
:1010B00070470000D0000020CC0000200EB50121B8
:1010C000084600F059FF3520019001208DF80A00F4
:1010D00000208DF8080008208DF80900002102206A
:1010E000FFF7E8FE02210846FFF7E4FE0421022094
:1010F000FFF7E0FE05210220FFF7DCFE01A8FFF765
:1011000081FE01208DF803008DF8010003208DF889
:10111000020006208DF80000684600F0ADFA0820B5
:101120008DF80000684600F0A7FA0A208DF800004C
:10113000684600F0A1FA17208DF80000684600F01C
:101140009BFA0120FFF73EFE0420FFF73BFE102034
:10115000FFF738FE2020FFF735FE0EBD08B5012150
:10116000102000F009FF04208DF80300FF20ADF8E7
:10117000000069460148FFF7BDFE08BD00100140B0
:101180001FB50121102000F0E7FE0020ADF80A0095
:10119000ADF806004EF65F20ADF8080040F2CF2013
:1011A000ADF8040000208DF80C0001A90D4801F0F5
:1011B000D5FB012211460B4801F062FA36208DF86A
:1011C000000001208DF8030000208DF801008DF84B
:1011D0000200684600F050FA0121024801F033FA9B
:1011E0001FBD00000010004000BFFEE708B5012150
:1011F000042000F0C1FE10208DF803004FF4C05011
:10120000ADF8000003208DF8020069460648FFF79C
:1012100071FE4FF400610448FFF702FF4FF4805164
:101220000148FFF7FDFE08BD0008014070B5044607
:1012300000251BE004F0800028B14FF480510D48D8
:10124000FFF7EEFE04E04FF480510A48FFF7E6FE98
:101250004FF400610748FFF7E3FE4FF400610548D3
:10126000FFF7DCFE6006040E681CC5B2082DE1DB4A
:1012700070BD00000008014010B54FF480510948CE
:10128000FFF7CEFE4FF400610648FFF7C9FE4FF4AA
:1012900080510448FFF7C2FE4FF400610148FFF798
:1012A000BDFE10BD0008014010B54FF48051074845
:1012B000FFF7B6FE4FF400610448FFF7AFFE4FF4AE
:1012C00000610248FFF7ACFE10BD000000080140BD
:1012D00010B54FF400610448FFF7A2FE4FF400611F
:1012E0000148FFF79BFE10BD000801402DE9F04FBB
:1012F00089B083460C46A068E0606068A0605846EC
:101300002168FEF7B7FF60604FF08040A168FEF7EC
:10131000B4FF81466168FEF7ADFF8046E168FEF7E5
:1013200054FF0546FFF716F90646184A184BFFF713
:101330007DF8CDE904016068FFF70CF90746154A0E
:10134000154BFFF773F805460E46D4E90101FEF789
:101350008EFF0190FFF7FEF807464FF066320F4B05
:10136000FFF764F881462A463346FEF7B8FFCDE919
:101370000201DDE90423FEF7B2FFCDE90601FFF724
:10138000FCF80890089809B0BDE8F08FB81E85EB0E
:1013900051B88E3F3D0AD7A3703DEA3F6666F23FE3
:1013A0002DE9F04100F066FE0546002442E02549A3
:1013B00001EB041108680021FFF7FCF834D055F860
:1013C0002400FFF7A5F80646601CC1B23046FFF7BF
:1013D0006FFB55F82400FFF79BF80746194800EB10
:1013E00004113846FFF782FF0646FFF79AF81649C0
:1013F00051F824100844144941F82400084650F8D4
:10140000240041F65831884203DD08460E4941F870
:1014100024000D4850F824000C49884208DA084698
:10142000094941F8240003E00020074941F824005D
:10143000601CC4B2042CBADB034800F0A7FBBDE873
:10144000F081000090150020D0150020A8E4FFFFD7
:10145000014699B100200EE00F4A32F810200F4BE0
:1014600053F820301A800C4A32F810200C4B23F825
:101470001020421CD0B20528EEDB0BE0002007E074
:10148000054A32F81020064B23F81020421CD0B237
:101490000528F5DB70470000CE030020AC030020D8
:1014A000D803002000204DE0284951F82010098879
:1014B000274A32F81020914221DA244951F82010AD
:1014C0000988244A32F810201144214A32F81020A9
:1014D00091420CDA1D4951F8201009881D4A32F852
:1014E00010201144194A52F82020118028E0184990
:1014F00031F81010154A52F82020118020E01449CC
:1015000031F81010134A32F8102011440F4A52F8E3
:101510002020128891420CDA0C4951F820100988D9
:101520000C4A32F81020891A084A52F820201180FB
:1015300006E0074931F81010044A52F820201180C3
:10154000411CC8B20528AFDB70470000AC03002087
:10155000D8030020E203002000BFFEE708B5012108
:10156000082000F009FD18208DF8030003208DF8F5
:1015700002004FF47070ADF8000069460148FFF7B3
:10158000B9FC08BD000C014010B501F011F8FFF7DF
:10159000E5FF00F007F8FFF7E1FDFFF78FFDFFF72C
:1015A000EFFD10BD00B587B00121042000F0D4FC90
:1015B0000020ADF81600ADF8120041F61F40ADF85E
:1015C00014000020ADF810008DF8180004A91A4886
:1015D00001F0C4F96020ADF800000020ADF808006B
:1015E0000120ADF802000020ADF80600694612485F
:1015F00001F050F86946104801F0A2F869460E481B
:1016000001F0FEF869460C4801F054F908210A4837
:1016100001F08CF80821084801F0E4F80821064898
:1016200001F03EF90821044801F082F90121024845
:1016300001F009F807B000BD0008004038B10A4ABF
:10164000D16011604A42084B9A605A6004E0064A31
:10165000116051609160D1600622044B1A70002223
:10166000034B1A7070470000F0150020B0040020F2
:10167000B10400207047000070B5002100230F2244
:10168000C47804B3154C246804F4E064C4F5E06441
:10169000210AC1F10403CA40447804FA03F18478B2
:1016A0001440214309010E4C0678A155047804F03A
:1016B0001F050124AC4005786D11AD0005F1E02552
:1016C000C5F8004109E0047804F01F050124AC408E
:1016D000044D0678761145F8264070BD0CED00E00B
:1016E00000E400E080E100E002490143024A1160A9
:1016F000704700000000FA050CED00E070B5002412
:101700000FE00021204600F0BDF8002505E0012192
:10171000002000F0D2F8681CC5B2802DF7DB601CF9
:10172000C4B2082CEDDB70BD10B513480078012859
:101730000ED001230022114610A000F079F90123F8
:101740000022194610A000F073F901200A49087020
:101750000123402200210F48007800F021F90E48B3
:101760000068C821B0FBF1F084B201233922194688
:10177000204600F015F910BD2B0300205379735358
:10178000746174653A00000053797354696D653A69
:1017900000000000280300202003002010B50021D5
:1017A000AE2000F08AF80021084600F086F80021FB
:1017B000102000F082F80021402000F07EF8002187
:1017C000812000F07AF80021CF2000F076F8002187
:1017D000A12000F072F80021C82000F06EF800216E
:1017E000A62000F06AF80021A82000F066F8002189
:1017F0003F2000F062F80021D32000F05EF80021C5
:10180000084600F05AF80021D52000F056F80021D3
:10181000802000F052F80021D92000F04EF800217D
:10182000F12000F04AF80021DA2000F046F800210B
:10183000122000F042F80021DB2000F03EF80021E9
:10184000402000F03AF80021202000F036F8002176
:10185000022000F032F800218D2000F02EF8002147
:10186000142000F02AF80021A42000F026F800211E
:10187000A62000F022F80021AF2000F01EF8FFF7AC
:101880003DFF10BD70B505460C46072D01DC7F2CD1
:1018900000DD70BD05F1B001C8B2002100F00DF807
:1018A00004F00F00002100F008F8102101EB1410E3
:1018B000002100F002F800BFEBE770B505460C46CA
:1018C000FFF7DAFC7820FFF7B1FCFFF701FD1CB150
:1018D0004020FFF7ABFC02E00020FFF7A7FCFFF77A
:1018E000F7FC2846FFF7A2FCFFF7F2FCFFF7DCFC51
:1018F00070BD00002DE9F04105460E46174698469A
:1019000039463046FFF7BEFF202D42DB7A2D40DC02
:10191000B8F1010F03D0B8F1020F38D111E0002463
:101920000CE0A5F1200101EB41011B4A02EB410152
:10193000085D0121FFF7C1FF601CC4B2062CF0DB7B
:1019400026E000240AE0A5F12001144A02EB01116F
:10195000085D0121FFF7B1FF601CC4B2082CF2DB67
:10196000711CC8B23946FFF78DFF00240CE0A5F1C9
:1019700020010A4A02EB011204F10801505C012126
:10198000FFF79BFF601CC4B2082CF0DB00E000BF37
:1019900000BFBDE8F08100001231000834330008B8
:1019A0002DE9FF5F064691469A46BAF1010F03D032
:1019B000BAF1020F06D102E04FF0070803E04FF042
:1019C000090800E000BF00BF37460A2409E00A20EA
:1019D00097FBF0F087B204EB84004FF6FF7101EA49
:1019E0004004002FF3D1642094FBF0F084B24D4604
:1019F00019E096FBF4F00A2190FBF1F201FB1200D2
:101A000000F0FF0B0BF13001C8B253462A46019992
:101A1000FFF770FF0A2094FBF0F084B204B904E0F1
:101A200005EB0800C5B27F2DE3DB00BFBDE8FF9FDB
:101A30002DE9F0470446894617469846B8F1010F4C
:101A400003D0B8F1020F04D101E0072602E0092615
:101A500000E000BF00BF3D460BE0207843462A4629
:101A60004946FFF747FF641C207800B903E0A81936
:101A7000C5B27F2DF1DB00BFBDE8F0874FF4A06059
:101A8000FFF732FE48210A2000F008FD01F06EF950
:101A900001F00CFA00F08CFCFFF776FDFFF7C2FABC
:101AA000FFF7A4FBFFF77AFE2F4B03220121084624
:101AB00000F0A6FF2D4B02220121084600F0A0FFF6
:101AC0002B4B02220121084600F09AFF294B0322EA
:101AD0000021012000F094FF274B03220021012068
:101AE00000F08EFF012000F059FD6FF095010120FC
:101AF000FFF7A4FD2149B1F1807F00D31DE021F063
:101B00007F40401E4FF0E022506150170F22002806
:101B100007DA13071D0E1A4B00F00F04241F1D5582
:101B200003E013071C0E174B1C5400BF00204FF09E
:101B3000E02290610720106100BF13E000240AE05A
:101B4000114810F8340020B10F4901EBC401486876
:101B50008047601CC4B20C4800EBC40040680028F9
:101B6000EED100BFEAE7000039250008251D000876
:101B7000A51400083B25000829170008407E050031
:101B800018ED00E000E400E0440E002010B504462B
:101B9000206818B3206800280FDD4FF480715E487C
:101BA000FFF73EFA4FF400715B48FFF737FA2088E1
:101BB00081B25A4800F0C9FE1AE04FF4007156484D
:101BC000FFF72EFA4FF480715348FFF727FA208869
:101BD000404281B2514800F0B8FE09E04FF4407134
:101BE0004D48FFF71DFA4FF6FF714C4800F0ADFE6F
:101BF000241D206818B3206800280FDD4FF4806191
:101C00004548FFF70DFA4FF400614348FFF706FA25
:101C1000208881B2414800F09AFE1AE04FF400613A
:101C20003D48FFF7FDF94FF480613B48FFF7F6F9B7
:101C30002088404281B2394800F089FE09E04FF423
:101C400040613548FFF7ECF94FF6FF71334800F07B
:101C50007EFE241D206818B3206800280FDD4FF495
:101C600000512D48FFF7DCF94FF480512A48FFF767
:101C7000D5F9208881B2294800F06BFE1AE04FF4B4
:101C800080512548FFF7CCF94FF400512248FFF767
:101C9000C5F92088404281B2204800F05AFE09E090
:101CA0004FF440511C48FFF7BBF94FF6FF711B483A
:101CB00000F04FFE241D206818B3206800280FDDB7
:101CC0004FF400411448FFF7ABF94FF4804112483C
:101CD000FFF7A4F9208881B2104800F03CFE1AE01A
:101CE0004FF480410C48FFF79BF94FF400410A483C
:101CF000FFF794F92088404281B2084800F02BFE9B
:101D000009E04FF440410448FFF78AF94FF6FF71AC
:101D1000024800F020FE10BD001001400008004005
:101D20007047000010B500F0C5F81048007880B189
:101D300000F068F80E480078012803D00C480078BD
:101D4000032806D10A490C7804EBD471481000F03E
:101D500013F801F099F900F0C7FA064800F0B0FA5C
:101D6000FFF71EFBFFF786F910BD0000B10400204D
:101D7000B0040020E015002010B50146194B18688A
:101D8000002800DA4042184B53F82130B3F5A07F09
:101D900005DC154B53F8213013F5A07F02DA4FF420
:101DA000A07202E0104B53F82120002A00DA5242C0
:101DB000401C904200DD10460B4B53F82130002BA5
:101DC00000DA404239B1074B1860D8604342054CF5
:101DD000A360636004E0034B1860D86098605860AB
:101DE00010BD0000F0150020A804002000B500F090
:101DF00049F803480078401C0149087000BD000004
:101E0000B004002000B51C480078052831D2DFE876
:101E100000F0030C151E2700184800680A2190FBEB
:101E2000F1F008B9FFF7E2FF23E0154800680A2146
:101E300090FBF1F008B9FFF7D9FF1AE00F480068EE
:101E40000A2190FBF1F008B9FFF7D0FF11E00C4830
:101E500040680A2190FBF1F008B9FFF7C7FF08E0DE
:101E6000064800680A2190FBF1F008B9FFF7BEFFB1
:101E700000BF00BF00BD0000B00400209C04002093
:101E8000A804002000200BE00021074A42F820109F
:101E9000064A42F82010064A42F82010411CC8B2F7
:101EA0000428F1DB70470000E01500200016002038
:101EB000F015002010B5FFF7D5F81B49086000F0B9
:101EC000D5F80446D4E900121144A2681144E2682E
:101ED0008818C11700EB9171144A126802EBA10136
:101EE000124A1160D4E90012891AA268891AE268BC
:101EF0008818C11700EB91710C4A526802EBA101DE
:101F00000A4A51600A48006811460968401A09499E
:101F100008600748406811464968401A054948600A
:101F2000FEF71AFE10BD00009C040020940400205F
:101F3000A0040020A804002029B1064A52690243E7
:101F4000044B5A6104E0034A52698243014B5A61CF
:101F5000704700000010024029B1064AD2690243CE
:101F6000044BDA6104E0034AD2698243014BDA612F
:101F7000704700000010024029B1064A92690243EE
:101F8000044B9A6104E0034A92698243014B9A61CF
:101F9000704700000010024030B5002100220024EC
:101FA00000232D4D6D6805F00C0121B1042905D0E9
:101FB000082923D105E0294D056022E0274D056061
:101FC0001FE0254D6D6805F47012234D6D6805F412
:101FD0008034022505EB92421CB9214D5543056022
:101FE0000BE01D4D6D6805F400351DB11C4D5543CA
:101FF000056002E0194D5543056002E0174D05608C
:1020000000BF00BF144D6D6805F0F0010909154DC2
:102010006B5C0568DD4045600F4D6D6805F4E0615F
:10202000090A104D6B5C4568DD4085600A4D6D689E
:1020300005F46051C90A0B4D6B5C4568DD40C56015
:10204000054D6D6805F44041890B074D6B5CC56813
:10205000B5FBF3F5056130BD0010024000127A00B7
:1020600000093D00000000201000002000487047DB
:10207000F40700202DE9F04100248AE04848808CD4
:10208000484931F81410471A4FEAE778464830F8C3
:1020900014004649098888420BD0434830F81400A0
:1020A00042490988081A4EF660214843C71948EB8F
:1020B000E07844F62061791A78F1000063DA394853
:1020C00030F814003A4931F81410451AEE1739481F
:1020D00030F81400344931F8141088420CD03248DA
:1020E00030F81400334931F81410401A4EF66021CC
:1020F0004843451946EBE0762A46334644F62060CD
:102100004FF00001FEF730F805460E462A48005D04
:102110002A4931F8141088421ED0294850F824006A
:10212000291A66EBE0703C3970F1000014DA24489B
:1021300050F824002A1A66EBE0706FF03B034FF072
:10214000FF319A1A814107DA0222002328463146DC
:10215000FEF70AF805460E46184830F8140018B184
:1021600000226D4262EB06064FF4FA71691A76F1AD
:1021700000000CDA13494812491BB04107DA104835
:1021800040F8245003E000200D4941F82400601C71
:10219000C4B2042CFFF672AF0948BDE8F08100001C
:1021A000001000407E0100208E01002074010020FC
:1021B0007601002086010020960100209A0100206F
:1021C000040800200CFEFFFF014800687047000073
:1021D00024030020704710B500F002F810BD000085
:1021E0000CB50020019000903348006840F4803026
:1021F0003149086000BF3048006800F400300090AA
:102200000198401C0190009818B90198B0F5A06F92
:10221000F1D12948006800F4003010B1012000908D
:1022200001E0002000900098012843D12348006875
:1022300040F01000214908600846006820F00300C3
:1022400008600846006840F0020008601A484068CC
:10225000194948600846406848600846406840F4AC
:10226000806048600846406820F47C10486008465A
:10227000406840F4E81048600846006840F080700C
:10228000086000BF0C48006800F000700028F9D01A
:102290000948406820F00300074948600846406844
:1022A00040F00200486000BF0348406800F00C00A6
:1022B0000828F9D10CBD00000010024000200240A7
:1022C00070B50546002409E055F82400FEF720F912
:1022D000044901EB04110860601CC4B2042CF3DB58
:1022E00070BD000090150020002033E01B4A52F81A
:1022F00020201B4B53F820301A441146194B43F849
:102300002020002900DA4942B1F5BE7F0EDD154AD2
:1023100052F82020002A05DD4FF4BE72114B43F81D
:10232000202003E0104A0F4B43F8202032290FDA17
:1023300071B10C4A52F82020002A04DD3222094BE8
:1023400043F8202004E06FF03102064B43F82020D0
:10235000421CD0B20428C9DB70470000F0150020F1
:1023600000160020E015002084FEFFFF08B50121C3
:102370000420FFF701FE01210820FFF7FDFD1820D2
:102380008DF8030003208DF80200C320ADF8000093
:1023900069460548FEF7AEFD0320ADF8000069462A
:1023A0000248FEF7A7FD08BD00080140000C0140EF
:1023B00010B5FFF7DBFF00F005F80120FFF748F844
:1023C00010BD000000B587B001210846FFF7C4FD2D
:1023D00001210220FFF7C0FD0020ADF81600ADF886
:1023E000120044F61F60ADF814004720ADF810004D
:1023F00000208DF8180004A94FF0804000F0AEFADC
:1024000004A9254800F0AAFA6020ADF800000020D9
:10241000ADF808000120ADF802000020ADF806007C
:1024200069464FF0804000F035F969464FF0804032
:1024300000F086F96946184800F02CF969461648FC
:1024400000F07EF96946144800F0DAF9694612484E
:1024500000F030FA0821C80600F068F90821C80623
:1024600000F0C0F908210C4800F060F908210A4882
:1024700000F0B8F90821084800F012FA08210648CF
:1024800000F056FA0121880700F0DDF8012102482A
:1024900000F0D9F807B000BD000400407FB5044645
:1024A0000D4601212020FFF757FD0020ADF80A005E
:1024B000ADF80600ADF80450ADF808408DF80C00FA
:1024C00001A90D4800F04AFA012211460A4800F01D
:1024D000D7F837208DF8000001208DF80300002088
:1024E0008DF801008DF802006846FFF7C5F801215C
:1024F000014800F0A8F87FBD0014004010B50C485A
:102500000068401C0A49086000240AE0094810F8E5
:10251000340020B1074901EBC40148688047601CC2
:10252000C4B2044800EBC40040680028EED110BDDE
:1025300020030020440D00207047704710B5134859
:10254000006840F0010011490860084640681049E1
:1025500008400E494860084600680E4908400B498B
:1025600008600846006820F480200860084640683B
:1025700020F4FE0048604FF41F008860FFF72BFE38
:102580004FF000600449086010BD000000100240D8
:102590000000FFF8FFFFF6FE08ED00E00146052908
:1025A00001DA0248017001480078704728030020D2
:1025B00008B501211020FFF7DFFC10208DF8030083
:1025C00003208DF802004FF47F40ADF8000069460B
:1025D0000448FEF78FFC4FF47F410248FEF71EFDD2
:1025E00008BD00000010014010B50121074800F0AF
:1025F00036F8012808D106480088401C04490880A4
:102600000121024800F01CF810BD0000001000403D
:102610007401002010B50121074800F020F80128BE
:1026200008D106480068401C04490860012102489E
:1026300000F006F810BD0000001400402403002044
:10264000CA430282704721B1028842F0010202802F
:1026500004E002884FF6FE731A400280704730B5DE
:102660000246002000230024158A05EA010395890B
:1026700005EA010413B10CB1012000E0002030BDD7
:102680001AB183890B43838102E083898B43838161
:102690007047000070B5002400220023058C4FF61F
:1026A000FE7635400584028C8388048B4FF68F7547
:1026B0002C40B51E2C400D882C43751E2A400D89D8
:1026C0002A434D882A43144DA8420BD0134DA842EB
:1026D00008D0134DA84205D0124DA84202D0124D89
:1026E000A84213D14FF6F7752A404D892A434FF679
:1026F000FB752A408D882A434FF6FF652B404FF625
:10270000FF552B408D892B43CD892B438380048338
:10271000CD888586028470BD002C014000340140C4
:102720000040014000440140004801400A460021A9
:10273000018B4FF6F7731940114301837047000076
:1027400070B5002400220023058C4FF6EF7635404B
:102750000584028C8388048B48F6FF752C404FF665
:10276000FF452C400D884FF6FF7606EA05252C43E1
:102770004FF6DF752A400D8906EA05152A434D8874
:1027800006EA05152A43154DA84202D0144DA84269
:102790001DD14FF67F752A404D894FF6FF7606EA28
:1027A00005152A434FF6BF752A408D8806EA0515A0
:1027B0002A434FF6FF352B404FF2FF752B408D8992
:1027C00006EA85052B43CD8906EA85052B438380E0
:1027D0000483CD880587028470BD0000002C014071
:1027E000003401400A460021018B4FF2FF7319406B
:1027F0004FF6FF7303EA0223194301837047000079
:1028000070B5002400220023058C4FF6FF6635408A
:102810000584028C8388848B4FF68F752C404FF68D
:10282000FC752C400D882C434FF6FF552A400D892E
:102830004FF6FF7606EA05252A434D8806EA052568
:102840002A43154DA84202D0144DA8421DD14FF283
:10285000FF752A404D894FF6FF7606EA05252A4383
:102860004FF6FF352A408D8806EA05252A434EF6A5
:10287000FF752B404DF6FF752B408D8906EA051537
:102880002B43CD8906EA05152B4383808483CD88AD
:102890008587028470BD0000002C01400034014097
:1028A0000A460021818B4FF6F7731940114381834B
:1028B0007047000070B5002200230024058C4EF6FE
:1028C000FF7635400584038C8488828B48F6FF753B
:1028D0002A404FF6FF452A400D884FF6FF7606EA5C
:1028E00005252A434DF6FF752B400D8906EA05356F
:1028F0002B434D8806EA05352B430B4DA84202D0E9
:102900000A4DA84208D14BF6FF752C408D894FF631
:10291000FF7606EA85152C4384808283CD88A0F853
:102920004050038470BD0000002C01400034014081
:102930000A460021818B4FF2FF7319404FF6FF7357
:1029400003EA022319438183704781867047018718
:10295000704781877047A0F84010704700220288B6
:102960001D4B98420ED01D4B98420BD0B0F1804FBA
:1029700008D01B4B984205D01A4B984202D01A4BF4
:10298000984204D14FF68F731A404B881A43174B65
:10299000984207D0164B984204D04FF6FF431A4096
:1029A000CB881A4302808B8883850B8803850A4B6A
:1029B00098420BD0094B984208D00E4B984205D054
:1029C0000D4B984202D00D4B984201D10B7A0386F1
:1029D0000123838270470000002C01400034014035
:1029E0000004004000080040000C004000100040BF
:1029F00000140040004001400044014000480140F4
:102A00007CB58DF800008DF801108DF8022001933F
:102A100081B1114C24788DF803400F4C257824782F
:102A2000641C0D4E34700D4C04EBC504DDE90056FA
:102A300060C40FE00A4C24788DF80340084C2578D8
:102A40002478641C064E3470064C04EBC504DDE9A2
:102A5000005660C47CBD000029030020440D002006
:102A60002A030020440E002010B540F225510C48E6
:102A700000F092F898B10B4804780078401C09499E
:102A800008703F2C06D0064800F042F9C1B2054A52
:102A9000601C115440F22551014800F059F810BD56
:102AA00000380140A40A002010B540F225510E481C
:102AB00000F072F8B8B10D4890F8404090F840002E
:102AC000401C0A4981F840003F2C07D0064800F01E
:102AD0001FF9C2B205484030611C425440F22551F2
:102AE000014800F035F810BD00440040A40A002061
:102AF00010B540F22551144800F04EF810B31348B9
:102B000090F8804090F88000401C104981F88000C7
:102B10000D4800F0FDF8C2B20C488030611C4254F0
:102B2000803890F880000B2807D10020074981F8F1
:102B3000800001F18100FEF7A9FA40F22551024818
:102B400000F006F810BD000000480040A40A002074
:102B500010B50022002340F66A14A14200D100BF44
:102B60000A1201249440A3B2DC43048010BD21B1B9
:102B7000828942F40052828104E082894DF6FF731B
:102B80001A40828170471AB1838A0B43838202E024
:102B9000838A8B438382704770B5024600240023EA
:102BA0000025002040F66A16B14200D100BFC1F3F3
:102BB000421501F01F03012606FA03F3012D02D18D
:102BC0009689334006E0022D02D1168A334001E097
:102BD000968A33400C12012606FA04F41688344013
:102BE00013B10CB1012000E0002070BDF0B5034628
:102BF000002400260025002040F66A17B94200D1C3
:102C000000BF1846C1F3421401F01F06012707FA5E
:102C100006F5012C01D10C3004E0022C01D110305A
:102C200000E014301AB107682F43076002E007681C
:102C3000AF430760F0BD00002DE9F04786B00546C0
:102C40000E460024A24600BFA1460027B08900B16D
:102C500000BF2F462C8A4CF6FF700440F0880443D6
:102C60002C82AC894EF6F3100440B08831890843B9
:102C7000718908430443AC81AC8A4FF6FF4004409D
:102C8000B0890443AC8201A8FFF786F91F48874248
:102C900002D1DDF810A001E0DDF80CA0A88900F455
:102CA000004040B10AEBCA0000EB0A10316849004D
:102CB000B0FBF1F807E00AEBCA0000EB0A1031683C
:102CC0008900B0FBF1F86420B8FBF0F004012009A2
:102CD000642101FB1089A88900F4004040B1322032
:102CE00000EBC900B0FBF1F000F00700044308E07E
:102CF000322000EB09106421B0FBF1F000F00F006E
:102D000004432C8106B0BDE8F08700000038014084
:102D100001468888C0F30800704700BFFEE7000046
:102D200070B505460E460E488078B0B901200C49B2
:102D30008870002405E028780A4908556D1C601C3D
:102D4000C4B2B442F7DB31460748FDF7AEFE0121BD
:102D50000548FDF7BBFD002070BD0120FCE7000029
:102D600063020020C40B00201C00024000B587B0A5
:102D700001210420FFF700F901210820FFF7FCF8EA
:102D800018208DF80B0003208DF80A004FF4017015
:102D9000ADF8080002A94048FEF7ACF84FF4806097
:102DA000ADF8080002A93D48FEF7A4F804208DF80C
:102DB0000B004FF48160ADF8080002A93648FEF719
:102DC00099F84FF40060ADF8080002A93348FEF707
:102DD00091F84FF4E13003900020ADF818000C207A
:102DE000ADF816000020ADF81400ADF81200ADF8F3
:102DF000100001218803FFF7BFF801214804FFF705
:102E0000ABF801218804FFF7A7F803A92448FFF7CE
:102E100013FF03A92348FFF70FFF03A92248FFF779
:102E20000BFF01208DF8070002208DF8050001201E
:102E30008DF8060025208DF8040001A8FEF71CFC83
:102E400026208DF8040001A8FEF716FC27208DF837
:102E5000040001A8FEF710FC012240F225511048A1
:102E6000FFF7C4FE012240F225510E48FFF7BEFED7
:102E7000012240F225510C48FFF7B8FE0121084815
:102E8000FFF775FE01210748FFF771FE0121064893
:102E9000FFF76DFE07B000BD00080140000C0140C7
:102EA00000380140004400400048004000B58DB0AB
:102EB00001210846FFF740F80020059010200490FB
:102EC00000200C9009908020079000200A90089024
:102ED00006904FF400500B9001208DF805008DF8FE
:102EE00006000E208DF8040001208DF8070001A8CF
:102EF000FEF7C2FB11208DF8040001208DF80700B9
:102F000001A8FEF7B9FB0C208DF8040001208DF814
:102F1000070001A8FEF7B0FB2D4803902D48029052
:102F200040140B902C48FDF7DDFC4FF48050FDF76A
:102F3000BFFC012202212848FDF790FD02A9264886
:102F4000FDF795FD254803902548029040140B900D
:102F500021483C30FDF7C6FC4FF08070FDF7A8FC1F
:102F6000012202211C483C30FDF778FD02A91A48D5
:102F70003C30FDF77CFD1B4803901B480290401439
:102F80000B9015482838FDF7ADFC1020FDF790FC9C
:102F90000122022110482838FDF760FD02A90E48E1
:102FA0002838FDF764FD012280210A48001FFFF741
:102FB000EAFD012280210A48001FFFF7E4FD0122FB
:102FC00080210948001FFFF7DEFD0DB000BD0000A5
:102FD000640B00200438014044000240940B0020A0
:102FE00004440040C40B0020044800400022411E5D
:102FF000024B03EB81110A7070470000A40A002005
:103000000022411E014B5A54704700006302002009
:1030100010B5FFF7D9F80446FEF72CF820E0FFF7CB
:10302000D3F814490968401AB0F5FA7F18D9FFF7A8
:10303000CBF81049086010480068104909688842B8
:1030400003D000200E49087004E00D480078401CB1
:103050000B4908700948006807490860FEF70AF83C
:10306000074800786428DAD10448006805490860F8
:1030700010BD0000DC000020D8000020CC000020A3
:10308000D4000020D000002000B515480368154882
:103090000078012807D013480078032803D011488E
:1030A0000078062809D11048036058420E4948604C
:1030B000084683605842C86011E0094800680A2148
:1030C00090FBF1F048B10848036058420649486057
:1030D000084683605842C86001E0FEF7D3FE00BD99
:1030E0009C040020B00400200016002002E008C864
:1030F000121F08C1002AFAD170477047002001E072
:1031000001C1121F002AFBD17047FEF7B7FC00BFB8
:10311000FEE70000000000000000002F000000009B
:103120000700070000147F147F1400242A7F2A124E
:10313000006264081323003649552250000005033D
:10314000000000001C224100000041221C0000146D
:10315000083E08140008083E0808000000A06000AF
:10316000000808080808000060600000002010083F
:103170000402003E5149453E0000427F40000042AB
:1031800061514946002141454B31001814127F100E
:10319000002745454539003C4A494930000171093D
:1031A000050300364949493600064949291E0000F1
:1031B0003636000000005636000000081422410098
:1031C00000141414141400004122140800020151C8
:1031D000090600324959513E007C1211127C007FD1
:1031E00049494936003E41414122007F4141221C6C
:1031F000007F49494941007F09090901003E4149D1
:10320000497A007F0808087F0000417F41000020C4
:1032100040413F01007F08142241007F4040404070
:10322000007F020C027F007F0408107F003E4141B6
:10323000413E007F09090906003E4151215E007FA1
:10324000091929460046494949310001017F010118
:10325000003F4040403F001F2040201F003F4038BB
:10326000403F0063140814630007087008070061FA
:103270005149454300007F41410000552A552A55D8
:10328000000041417F000004020102040040404070
:103290004040000001020400002054545478007F94
:1032A0004844443800384444442000384444487F6B
:1032B00000385454541800087E0901020018A4A4D0
:1032C000A47C007F080404780000447D4000004096
:1032D00080847D00007F102844000000417F400072
:1032E000007C04180478007C080404780038444406
:1032F000443800FC242424180018242418FC007CE2
:103300000804040800485454542000043F4440205A
:10331000003C4040207C001C2040201C003C4030F1
:10332000403C004428102844001CA0A0A07C00447D
:1033300064544C4400000000000000000000000045
:1033400000000000000000F8000000000000003352
:103350003000000000100C06100C060000000000F9
:103360000000000040C07840C0784000043F0404E2
:103370003F040400007088FC08300000001820FFA3
:10338000211E0000F008F000E018000000211C03DE
:103390001E211E0000F00888700000001E2123245A
:1033A0001927211010160E00000000000000000078
:1033B00000000000000000E0180402000000000708
:1033C0001820400000020418E0000000004020180F
:1033D00007000000404080F0804040000202010FE2
:1033E00001020200000000F0000000000101011FC6
:1033F00001010100000000000000000080B070002A
:1034000000000000000000000000000000010101B9
:103410000101010100000000000000000030300048
:103420000000000000000000806018040060180622
:103430000100000000E010080810E000000F10205C
:1034400020100F00001010F8000000000020203FA6
:103450002020000000700808088870000030282430
:1034600022213000003008888848300000182020D1
:1034700020110E000000C02010F8000000070424F6
:10348000243F240000F8088888080800001921203B
:1034900020110E0000E0108888180000000F112095
:1034A00020110E0000380808C83808000000003F4E
:1034B000000000000070880808887000001C2221AD
:1034C00021221C0000E010080810E000000031225A
:1034D00022110F00000000C0C000000000000030FA
:1034E000300000000000008000000000000080604C
:1034F00000000000000080402010080000010204CD
:1035000008102000404040404040400004040404B3
:10351000040404000008102040800000002010086F
:1035200004020100007048080808F00000000030A4
:1035300036010000C030C828E810E0000718272432
:1035400023140B000000C038E0000000203C2302E0
:103550000227382008F8888888700000203F202043
:1035600020110E00C0300808080838000718202075
:103570002010080008F808080810E000203F20206C
:1035800020100F0008F88888E8081000203F20204D
:103590002320180008F88888E8081000203F200041
:1035A00003000000C0300808083800000718202079
:1035B000221E020008F808000008F808203F210138
:1035C00001213F20000808F8080800000020203FE3
:1035D0002020000000000808F8080800C080808053
:1035E0007F00000008F888C028180800203F20014C
:1035F0002638200008F8080000000000203F2020A6
:103600002020300008F8F800F8F80800203F003FBC
:10361000003F200008F830C00008F808203F2000D4
:1036200007183F00E01008080810E0000F102020E5
:1036300020100F0008F808080808F000203F2101BA
:1036400001010000E01008080810E0000F18242411
:1036500038504F0008F8888888887000203F200084
:10366000030C30200070880808083800003820213A
:1036700021221C00180808F8080818000000203F44
:103680002000000008F808000008F808001F2020AB
:1036900020201F000878880000C83808000007387C
:1036A0000E010000F80800F80008F800033C0700CD
:1036B000073C0300081868808068180820302C0335
:1036C000032C30200838C800C83808000000203F0C
:1036D0002000000010080808C838080020382621FB
:1036E00020201800000000FE020202000000007FFF
:1036F00040404000000C30C000000000000000010D
:103700000638C00000020202FE00000000404040F7
:103710007F0000000000040202020400000000001C
:103720000000000000000000000000008080808099
:103730008080808000020204000000000000000081
:10374000000000000000808080800000001924221A
:1037500022223F2008F8008080000000003F112056
:1037600020110E000000008080800000000E11205B
:1037700020201100000000808088F800000E112039
:1037800020103F200000808080800000001F222247
:1037900022221300008080F0888888180020203FB3
:1037A000202000000000808080808000006B9494C6
:1037B0009493600008F8008080800000203F210082
:1037C00000203F2000809898000000000020203F4B
:1037D00020200000000000809898000000C0808039
:1037E000807F000008F8000080808000203F2402D5
:1037F0002D302000000808F8000000000020203FC5
:10380000202000008080808080808000203F200079
:103810003F20003F8080008080800000203F21000A
:1038200000203F200000808080800000001F2020BA
:1038300020201F00808000808000000080FFA120E9
:1038400020110E000000008080808000000E1120FA
:1038500020A0FF80808080008080800020203F2189
:10386000200001000000808080808000003324243C
:1038700024241900008080E0808000000000001FE8
:10388000202000008080000000808000001F202099
:1038900020103F20808080000080808000010E305A
:1038A0000806010080800080008080800F300C03BB
:1038B0000C300F0000808000808080000020312EBE
:1038C0000E312000808080000080808080818E709A
:1038D0001806010000808080808080000021302C4C
:1038E000222130000439000800000020B404000048
:1038F000D807000884390008B40400205C150000D3
:10390000FC30000812000120050102030404000A33
:1039100031060708090204060800011006340400F5
:10392000403804123C0412400C133400101104609F
:1039300015965A5A00E457A41FA41FE7099D039047
:1039400001BA09F4010A40052C01030002021F0616
:103950006002140577000D79A555100AA55601FCE3
:10396000A55702FE9C01238701670101C6F005DE11
:10397000B8052E480D5E64030D5840030948302DEC
:043980000804000037
:0400000508000131BD
:00000001FF
