:020000040800F2
:10000000D022002045010008BD1E00086519000827
:10001000D91D0008790C00086738000800000000AE
:10002000000000000000000000000000B12C0008EB
:100030000F1100080000000045270008DD2F000810
:100040005F0100085F0100085F0100085F01000810
:100050005F0100085F0100082D1100085F01000822
:10006000C11100085F010008551200085F01000877
:100070009D0E00085F010008C10E00085F01000826
:100080005F010008E90E00085F0100085F01000839
:100090005F0100085F0100085F010008E912000825
:1000A0005F0100085F0100085F0100085F010008B0
:1000B0005F0100085F0100085F0100085F010008A0
:1000C0005F0100085F0100085F0100085F01000890
:1000D0005F010008B5350008F53500083D36000819
:1000E0005F0100085F0100085F0100085F01000870
:1000F0005F0100085F0100085F0100085F01000860
:100100005F0100085F0100085F0100085F0100084F
:100110005F0100085F010008C5300008F1300008E9
:100120005F0100085F0100085F0100085F0100082F
:10013000DFF80CD000F09AFC00480047F1420008BC
:10014000D02200200648804706480047FEE7FEE729
:10015000FEE7FEE7FEE7FEE7FEE7FEE7FEE7FEE777
:1001600019300008310100082DE9F0410024061B78
:10017000254671F1000605DA01240027D0EB0700BF
:1001800067EB0101161E73F1000605DA0027D2EBBA
:100190000702012567EB030300F00AFB86460E46C3
:1001A00017469C46AC4204D00025D0EB050E65EB0B
:1001B000010624B10020D2EB000760EB030C70466F
:1001C00031463A466346BDE8F081F0B480EA010268
:1001D000D40F4200B2EB410F02D20246084611464C
:1001E0004A0042D0C30DDDB2C1F3C752AD1A202D73
:1001F00035DAC1F3160141F4000204B15242C5F1EF
:10020000200602FA06F12A411044B3EBD05F23D056
:10021000C4B1012DA0EBC35009DCF0BC4FF000428B
:1002200002EAC352DBB200F5000000F02CBB400034
:1002300000F1807000EBC350A0F1807040EAD170F3
:10024000490009E0490841EAC071A0EBC35000F53C
:100250000000400800EBC350F0BC00F00BBB614253
:10026000012202EB4101001BF6E7F0BC704781F070
:100270000041AAE780F00040A7E780EA010210B53C
:1002800002F00043400022D04A001FD0010E01EBD3
:100290001261C0F35600C2F3560240F4000042F46B
:1002A0000002A0FB022000047F39140400D0401C8F
:1002B00050EA124001D44000491EC2B20C0604EBC1
:1002C000D010401C4008802A02D003E0002010BD5E
:1002D00020F00100002900DA0020184310BD2DE9AC
:1002E000FE4F804681EA0300C00F0C46009021F0CB
:1002F000004123F00045B8EB0200A94105D2404679
:10030000214690461C460B46024623F0004010430F
:1003100047D0270DC7F30A00C3F30A510290401AD1
:10032000019040286BDAC3F3130040F4801B00985F
:10033000924620B10023D2EB030A63EB0B0B01982A
:100340005946C0F14002504600F063FA06460D4699
:1003500050465946019A00F07BFA10EB08006141C3
:10036000002487EA115284EAE7731A4340D0009AC6
:1003700062B3019A012A4FEA075215DC001B61EBB8
:1003800002014FF0004202EA0752CDE90042001C90
:1003900041F5801132462B4600F0B2FA03B0BDE8B9
:1003A000F08F40462146F9E7001B61EB0201001C7B
:1003B00041F5801300185B412018A2F5001747EBA8
:1003C000030140EAD570B6196D4111E06D084FEA9E
:1003D000360645EAC0754FEA0752001B61EB020181
:1003E000001C41F5801149084FEA300000195141C5
:1003F00032462B4603B0BDE8F04F00F072BA0098C9
:10040000012240000023D0EB020263EBE07300986E
:1004100021464FEAE074B8EB000061EB0401E9E724
:1004200083F000435BE781F0004158E72DE9FE4F80
:1004300081EA030404F0004421F0004100944FF0ED
:10044000000B23F0004350EA01045ED052EA03049B
:100450005BD0C3F30A54C1F30A552C44A4F2F3341D
:100460000194A0FB0254C1F3130141F48011C3F3C2
:10047000130343F4801301FB024400FB034E840A80
:10048000970A44EA815447EA8357A4FB0768029518
:100490008D0A05FB07854FEA932C04FB0C542705B6
:1004A000029D4FEA065847EA1637B5EB08056EEB92
:1004B000070C870E920E47EA811742EA8312A7FBC8
:1004C0000201B6EB0B0164EB00042B0D43EA0C3385
:1004D0005E1844EB1C50DA465146E7FB0201C5F3B7
:1004E00013044FEA0B3343EA14534FEA0432019CDE
:1004F00043EA0603A4F10C040294009CCDE900B485
:1005000000F0FEF903B0BDE8F08F00200146F9E7E6
:100510002DE9F04D81EA030404F0004B21F0004581
:1005200014464FF0000A23F0004150EA050220D0A3
:1005300054EA01021DD0C5F30A570246C5F313035E
:10054000C1F31300C1F30A5640F4801543F480133D
:10055000A7EB0608101BD64608F2FD3873EB050022
:1005600002D308F1010801E092185B41B8F1000FD5
:1005700003DA00200146BDE8F08D00204FF4801121
:10058000064684460EE0171B73EB050705D3121BC6
:1005900063EB050306434CEA010C49084FEA3000BF
:1005A00092185B4150EA0107EDD152EA030012D0E4
:1005B00082EA040083EA0501084305D0101BAB4121
:1005C00006D20122002306E000224FF0004302E0A1
:1005D0006FF0010253101AEB06004CEB085110EBC0
:1005E0000A0041EB0B01BDE8F04D00F07AB9C10FF4
:1005F00080EAE0700844CA079623002100F043B95E
:100600000EB5C10F80EAE0700844CA07002140F22D
:1006100033438DE80E000A460B4600F071F903B033
:1006200000BD0EB540F2334102910021CDE9001129
:100630000A460B4600F064F903B000BD00F000422A
:1006400020F00040C10DC0F3160040F400007F29E7
:1006500001DA00207047962903DCC1F19601C840F9
:1006600001E096398840002AF4D04042704770B5C6
:10067000C1F30A5201F000450024C1F3130140F216
:10068000FF3341F480119A4201DA002070BD40F23C
:1006900033439A42A2F2334203DC524200F0C8F8DC
:1006A00000E090402C43F1D0404270BDC1F30A52AB
:1006B00010B5C1F3130140F2FF3341F480119A42A7
:1006C00001DA002010BD40F233439A42A2F23342D5
:1006D00003DC524200F0ACF810BD904010BD00F0B9
:1006E000004230F000400AD0C10D01F56071C0F346
:1006F000160042EA0151C20840071143704700202A
:100700000146704730B5041E71F1000404DB4FF060
:100710000044404264EB0101141E73F1000405DB48
:100720001C464FF00043524263EB04038B4208BF68
:10073000824230BD30B5041E71F1000404DB4FF07D
:100740000044404264EB0101141E73F1000405DB18
:100750001C464FF00043524263EB0403994208BF2A
:10076000904230BD01F0004330B421F0004150EA26
:10077000010206D00A0DA2F56072C1F31301002A2E
:1007800002DC30BC00207047440F44EAC104C100C1
:10079000E01830BC00EBC25000F06CB8002801DB60
:1007A000C0F10040002901DBC1F1004181427047E6
:1007B0002DE9F05F0546002092469B468846064696
:1007C000814640241BE0284641464746224600F029
:1007D0002FF853465A46C01A914110D31146184675
:1007E000224600F016F82D1A67EB01084F46224604
:1007F0000120002100F00DF817EB00094E41201EEA
:10080000A4F10104DFDC484631462A464346BDE8F0
:10081000F09F202A04DB203A00FA02F10020704702
:100820009140C2F1200320FA03F31943904070472E
:10083000202A04DB203A21FA02F00021704721FA35
:1008400002F3D040C2F1200291400843194670479C
:10085000202A06DBCB17203A41FA02F043EAE07384
:1008600006E041FA02F3D040C2F120029140084371
:10087000194670470029A8BF7047401C490008BFAF
:1008800020F00100704710B4B0FA80FC00FA0CF0C0
:1008900050EA010404BF10BC704749B1CCF12004F8
:1008A00021FA04F411FA0CF118BF01212143084385
:1008B000A3EB0C01CB1D4FEA00614FEA102042BFB1
:1008C000002010BC704700EBC35010440029A4BFA7
:1008D00010BC7047401C490008BF20F0010010BC4C
:1008E000704710B5141E73F1000408DA401C41F182
:1008F000000192185B411A4301D120F0010010BDA4
:100900002DE9F04D92469B4611B1B1FA81F202E019
:10091000B0FA80F220329046FFF77BFF04460F4684
:1009200040EA0A0041EA0B0153465A46084313D0F5
:10093000114653EA010019D0C8F140025046FFF7B2
:1009400077FF05460E46504659464246FFF761FF7F
:10095000084305D0012004E020463946BDE8F08D6B
:100960000020054346EAE0762C4337430A986305A6
:10097000E40AA0EB08000022FD0A44EA47540A30CA
:1009800002D500200146E9E7010510196941DDE9BA
:10099000084500196941BDE8F04DA2E770B521F0A6
:1009A000004303430CD0C1F30A550024D5EB0405E2
:1009B00064EB0403D617AD1AB34102DB00200146F5
:1009C00070BD201841EB025170BD2DE9F04D0023A0
:1009D0001A461B1A8A4103DB00200146BDE8F08D50
:1009E000C1F30A52C1F3130141F480154FF0000B1B
:1009F000D10702D100186D41521E0027044640F273
:100A0000FF11384601EB620A3E468046024600204E
:100A10004FF48011FFF70CFFC2197141BB1846EB70
:100A20000100B4EB030C75EB000C04D3E41A65EB86
:100A3000000517460E46241908F101006D41804655
:100A40003428E3DDF91946EB0600091BA84103D25F
:100A50004FF0FF32134601E0002213461BEB070064
:100A600046EB0A51BDE8F04DFFF73BBF064C074D82
:100A700006E0E06840F0010394E80700984710346E
:100A8000AC42F6D3FFF758FB904C0008B04C00087E
:100A900070B58D1810F8014B14F0030201D110F855
:100AA000012B231106D110F8013B03E010F8016B74
:100AB00001F8016B521EF9D1ABB110F8012B04F013
:100AC0000C048A1A0C2C03D0A2EB84129B1C08E0A5
:100AD00010F8014BA2EB0422F8E712F8014B01F8E1
:100AE000014B5B1EF9D5A942D4D3002070BD000094
:100AF00070B5044600220C4BD4E900512846FFF79C
:100B000019FE03D200200849C4E900010022074B66
:100B1000D4E900512846FFF7F5FD03D20021034830
:100B2000C4E9001070BD000000805640008056C02F
:100B30002DE9F04104460D46074A084B2046294658
:100B4000FFF774FC0746FFF792FD00F2DC5086B217
:100B50003046BDE8F081000046B6F3FDD4382640AB
:100B600001460948007808B1012070470748017024
:100B70000420074A10700120034A10700020054A23
:100B8000107000BFF1E70000EF090020F409002019
:100B9000F5090020F609002070B5174800780228F2
:100BA00007D11648007816490870002015490870CA
:100BB00020E00121002000F061F8002418E0124834
:100BC0000E49097800EB411000EBC400D0E9002188
:100BD0001046FFF7ADFF05460C48084A127800EBB7
:100BE0008200015D2246284602F09AFC601CC4B2D5
:100BF000042CE4DB70BD0000F6090020F40900209D
:100C0000F0090020EF090020000A0020A00A0020BF
:100C100070B501F07DFF0546022001F07FFB14480E
:100C2000007848B90120124908700220FFF798FFA8
:100C3000022001F047FE19E001F060FFB0B901F0B9
:100C400047FF98B92878FF2810D00020094908707C
:100C5000002409E0C4EBC401CAB2285D012319468F
:100C600001F0CEFA601CC4B2032CF3DB70BD0000AF
:100C70005C0C00205B0C002000BFFEE70022064B4E
:100C80001A700122054B1A70054A32F81020054BE4
:100C90001A81054A117170476F0600207006002006
:100CA000A4060020840600208E0600202DE9F04FC7
:100CB00087B004460F4671488078241A143F07FB1A
:100CC00007F004FB04084046FFF7ABFC814603F045
:100CD00059FBCDE90201FFF7E9FC83462CB320461E
:100CE000FFF78EFC81460022654BFFF79FFBCDE9A5
:100CF00002013846FFF784FC81460022604BFFF773
:100D000095FBCDE90001DDE90223FFF701FC054673
:100D10000E462846314603F0AFF98146594A5A4BF0
:100D2000FFF784FB05460E4601E00025574E4FEACB
:100D30004B01524A127801FB02F0FFF772FC814628
:100D400000224F4BFFF772FBCDE9020150490988A1
:100D500041444F4A5288881AFFF763FC81460022BB
:100D6000474BFFF763FBCDE90001DDE90223FFF705
:100D7000CFFBCDE90401DDE9040103F03FF82A4689
:100D8000334600204149FFF74BFB81462A46334654
:100D9000FFF746FB3F4A03C23E48FFF7A9FE37492B
:100DA00049784900354A127801FB02F0FFF728FC28
:100DB00081460022324BFFF739FBCDE9020134496D
:100DC0004988334A12881144A1EB0800FFF729FC37
:100DD000814600222A4BFFF729FBCDE90001DDE91E
:100DE0000223FFF795FB2B4AC2E902011046D0E926
:100DF0000221104603F002F88146224A224BFFF7F7
:100E000015FB244AC2E902011046D0E902934A4682
:100E100000202149FFF704FB1E4AC2E9020102F14A
:100E20000800FFF765FE1B48D0E900934A46002002
:100E30001649FFF7F5FACDE902011648D0E9029309
:100E40004A460298FFF7ECFA124AC2E9040102F19D
:100E50001000FFF74DFE0F49D1E9020181F000417A
:100E60000C4AC2E902011146D1E9040181F00041B6
:100E7000C2E90401104607B0BDE8F08F71060020FA
:100E80000000F03F295C8FC2F5A84C40008056401E
:100E900074060020B81E00200080664010B5202097
:100EA00000F0F6F848B1202000F032F800210348A5
:100EB00000F03CF8032002F06FFE10BD1C00024061
:100EC00010B54FF4005000F0E3F850B14FF400506B
:100ED00000F01EF80021034800F028F8012002F07D
:100EE0005BFE10BD4400024010B54FF0007000F0F2
:100EF000CFF850B14FF0007000F00AF8002103481D
:100F000000F014F8022002F047FE10BD80000240FD
:100F100000F0805111B10349086001E002494860C6
:100F200070470000040402400000024021B1026842
:100F300042F00102026004E002684FF6FE731A40BC
:100F40000260704701684FF6FE7211400160002197
:100F5000016041608160C1604B49884208D14A49C3
:100F60000839496841F00F01474A083A51608AE060
:100F700045491431884208D143490839496841F04C
:100F8000F001414A083A51607DE03F4928318842EA
:100F900008D13D490839496841F470613A4A083A34
:100FA000516070E038493C31884208D136490839EF
:100FB000496841F47041344A083A516063E032496B
:100FC0005031884208D130490839496841F47021CC
:100FD0002D4A083A516056E02B496431884208D1C5
:100FE00029490839496841F47001274A083A516093
:100FF00049E025497831884208D1234908394968B0
:1010000041F07061204A083A51603CE01F49884233
:1010100006D1011F096841F00F01021F116032E083
:101020001A491431884208D11849091F096841F04A
:10103000F001164A121F116025E014492831884238
:1010400008D11249091F096841F470610F4A121F43
:10105000116018E00D493C31884208D10B49091F45
:10106000096841F47041094A121F11600BE00749F9
:101070005031884207D10549091F096841F47021A0
:10108000024A121F11607047080002400804024023
:1010900001460020002201F0805313B1054B1A686D
:1010A00001E0054B1A6802EA01030BB1012000E0E0
:1010B0000020704700040240000002401AB103689B
:1010C0000B43036002E003688B430360704710B575
:1010D0000022026847F6F0739A430C6A8B68234338
:1010E0000C6923434C6923438C692343CC69234314
:1010F0004C6A23438C6A23431A430260CB684360E3
:101100000B6883604B68C36010BD416070477047D7
:10111000002005E00021044A42F82010411C88B25A
:101120000428F7DB70470000C410002010B5012030
:1011300000F030F901282DD11748808817498880A0
:101140001748808817498880174800881249888086
:101150001648808C12498880012000F015F9144847
:101160000079144988700221134800F06CFA0128B4
:1011700008D012488068401E1049886001200C4940
:10118000888007E00D488068401C0C49886000207A
:101190000749888010BD00003A020020320200207A
:1011A0002A0200202202002020020020001000401D
:1011B000460200204202002000100140C41000201E
:1011C00010B5042000F0E6F801282DD11748C0889A
:1011D0001749C8801748C0881749C8801748008831
:1011E0001249C8801648808C1249C880042000F03B
:1011F000CBF8144880791449C8700821134800F0CE
:1012000022FA012808D01248C068401C1049C86062
:1012100000200C49C88007E00D48C068401E0C49FA
:10122000C86001200749C88010BD00003A020020B4
:10123000320200202A020020220200202002002088
:101240000010004046020020420200200010014031
:10125000C410002010B5102000F09CF801282DD1FA
:1012600017484088174948801748408817494880E0
:1012700017480088124948801648808C12494880D7
:10128000102000F081F814488078144948704021FB
:10129000134800F0D8F9012808D012484068401ED1
:1012A0001049486001200C49488007E00D4840681B
:1012B000401C0C49486000200749488010BD0000D0
:1012C0003A020020320200202A02002022020020DE
:1012D00020020020001000404602002042020020B0
:1012E00000100140C410002010B5202000F052F87A
:1012F00001282DD117480088174908801748008811
:101300001749088017480088124908801648808CC1
:1013100012490880202000F037F81448007814495A
:1013200008708021134800F08EF9012808D0124877
:101330000068401C1049086000200C49088007E044
:101340000D480068401E0C490860012007490880CC
:1013500010BD00003A020020320200202A020020C4
:10136000220200202002002000100040460200203F
:101370004202002000100140C41000200149086012
:1013800070470000140401400149086070470000E4
:1013900014040140014600200022074B1B6803EAA9
:1013A0000102054B14331B680B4013B10AB1012035
:1013B00000E00020704700000004014000212349A4
:1013C0008279002A3AD00A46126803689A430B468B
:1013D0001A600A1D126803689A430B1D1A6002798D
:1013E00011440A6803681A430A60184A08321268EE
:1013F00003689A43154B08331A601A1D1268036874
:101400009A43124B0C331A604279102A0ED11A1FDC
:10141000126803681A430D4B08331A601A1D1268CC
:1014200003681A43094B0C331A600DE007494279EF
:1014300011440A6803681A430A6005E002791144FE
:101440000A6803689A430A6070470000000401407C
:1014500010B501F04DFB052816D10C480078401C52
:101460000A49087008460078012806D101220021A7
:1014700041F2883002F032F806E004480078022891
:1014800002D100200249087010BD00007D0D00202F
:101490007B0D002010B501F02BFB052820D1114851
:1014A0000078401C0F49087008460078012805D1D3
:1014B00001220D49002002F011F811E009480078DE
:1014C000022806D1012200214FF4E16002F006F863
:1014D00006E004480078032802D100200349087080
:1014E00010BD00007E0D002018FCFFFF7B0D0020CA
:1014F00030B500228B071C0F0F2303FA04F20B4BAD
:101500008C1053F824309343084C8D1044F8253048
:1015100023468C1053F824308C07240F00FA04F46F
:101520002343024C8D1044F8253030BD08000140A3
:101530002DE9F0410246002500260020002300246A
:10154000002791F803C00CF00F0591F803C00CF0D0
:10155000100CBCF1000F03D091F802C04CEA050555
:1015600091F800C0BCF1000F31D0146800202BE0CE
:101570004FF0010C0CFA00F3B1F800C00CEA0306BE
:101580009E4220D183004FF00F0C0CFA03F7BC43AE
:1015900005FA03FC4CEA040491F803C0BCF1280FDF
:1015A00006D14FF0010C0CFA00FCC2F814C00AE09E
:1015B00091F803C0BCF1480F05D14FF0010C0CFAB3
:1015C00000FCC2F810C0401C0828D1D31460B1F848
:1015D00000C0BCF1FF0F34DD546800202EE000F1A4
:1015E000080C4FF0010808FA0CF3B1F800C00CEA3F
:1015F00003069E4221D183004FF00F0C0CFA03F733
:10160000BC4305FA03FC4CEA040491F803C0BCF1A6
:10161000280F05D100F1080C08FA0CF8C2F8148064
:1016200091F803C0BCF1480F07D100F1080C4FF04E
:10163000010808FA0CF8C2F81080401C0828CED324
:101640005460BDE8F0810246002093680B400BB166
:10165000012000E000207047416170470161704740
:1016600070B537480078062867D2DFE800F06603D7
:10167000213F4462002418E032483349097800EBE6
:10168000411000EBC400D0E900211046FFF750FAEA
:1016900005462E482C4A127800EB8200015D224656
:1016A000284601F03DFF601CC4B2042CE4DB44E09A
:1016B000002418E026482449097800EB411000EB8B
:1016C000C400D0E900211046FFF732FA0546214850
:1016D0001D4A127800EB8200015D2246284601F087
:1016E0001FFF601CC4B2042CE4DB26E00221084684
:1016F000FFF7C4FA21E0002418E0124812490978E3
:1017000000EB411000EBC400D0E900211046FFF7C8
:101710000FFA05460D480C4A127800EB8200015D75
:101720002246284601F0FCFE601CC4B2042CE4DB17
:1017300003E000200849087000BF00BF70BD000032
:10174000F6090020B80A0020F2090020F80A00205B
:10175000000B0020400B0020EF09002010B50120F5
:1017600000F0DCFD0C48007840B901200A490870FF
:10177000FFF7F6F9012001F0A5F80CE001F0BEF941
:1017800048B901F0A5F930B901F0BEF9007810B1FF
:1017900000200249087010BD5C0C00205B0C00208A
:1017A00010B500BF04210B4802F086F80028F9D1DB
:1017B00000BF0421084802F07FF80028F9D100BFDB
:1017C0000421064802F078F80028F9D102F0ECF97B
:1017D00010BD0000170100201F0100201B01002088
:1017E000024800680A2190FBF1F0704724010020B4
:1017F00010B5032002F0C6F90421024802F05CF89B
:1018000010BD00001B0100200246507A137A40EA06
:10181000032144F25060814202DDA1F57F41FF398E
:1018200003480068091A0348016000687047000017
:1018300028010020240100200EB50121084601F0F6
:10184000CDF83520019001208DF80A0000208DF898
:10185000080008208DF8090000210220FFF748FE4B
:1018600002210846FFF744FE04210220FFF740FE54
:1018700005210220FFF73CFE01A8FFF79FFD012094
:101880008DF803008DF8010003208DF8020006207A
:101890008DF80000684600F013FB08208DF800006A
:1018A000684600F00DFB0A208DF80000684600F045
:1018B00007FB17208DF80000684600F001FB0120AF
:1018C000FFF75CFD0420FFF759FD1020FFF756FDE0
:1018D0002020FFF753FD0EBD08B50121102001F0B7
:1018E0007DF804208DF80300FF20ADF80000694664
:1018F0000148FFF71DFE08BD001001401FB5012182
:10190000102001F05BF80020ADF80A00ADF80600E9
:101910004EF65F20ADF8080040F2CF20ADF804008D
:1019200000208DF80C0001A90D4801F085FD012271
:1019300011460B4801F012FC36208DF80000012002
:101940008DF8030000208DF801008DF80200684634
:1019500000F0B6FA0121024801F0E3FB1FBD0000D0
:101960000010004000BFFEE708B50121042001F08F
:1019700035F810208DF803004FF4C050ADF800008A
:1019800003208DF8020069460648FFF7D1FD4FF4A9
:1019900000610448FFF762FE4FF480510148FFF7F1
:1019A0005DFE08BD0008014070B5044600251BE03F
:1019B00004F0800028B14FF480510D48FFF74EFE2F
:1019C00004E04FF480510A48FFF746FE4FF40061EF
:1019D0000748FFF743FE4FF400610548FFF73CFE60
:1019E0006006040E681CC5B2082DE1DB70BD000066
:1019F0000008014010B54FF480510948FFF72EFE52
:101A00004FF400610648FFF729FE4FF48051044867
:101A1000FFF722FE4FF400610148FFF71DFE10BDE5
:101A20000008014010B54FF480510748FFF716FE3B
:101A30004FF400610448FFF70FFE4FF400610248C5
:101A4000FFF70CFE10BD00000008014010B54FF478
:101A500000610448FFF702FE4FF400610148FFF700
:101A6000FBFD10BD000801402DE9F04F89B0834611
:101A70000C46A068E0606068A06058462168FEF7E8
:101A8000F9FB60604FF08040A168FEF7F6FB8146ED
:101A90006168FEF7EFFB8046E168FEF796FB0546BE
:101AA000FEF71DFE0646184A184BFEF7BFFCCDE9AF
:101AB00004016068FEF713FE0746154A154BFEF752
:101AC000B5FC05460E46D4E90101FEF7D0FB0190B6
:101AD000FEF705FE07464FF066320F4BFEF7A6FCF9
:101AE00081462A463346FEF7FAFBCDE90201DDE9DD
:101AF0000423FEF7F4FBCDE90601FEF733FE089060
:101B0000089809B0BDE8F08FB81E85EB51B88E3F3C
:101B10003D0AD7A3703DEA3F6666F23F2DE9F041EA
:101B200001F008F80546002438E0204901EB0411D3
:101B300008680021FEF732FE2AD055F82400FEF78F
:101B400056FD0746194800EB04113846FFF78CFF95
:101B50000646FEF773FD164951F82410084414494F
:101B600041F82400084650F8240041F658318842D4
:101B700003DD08460E4941F824000D4850F82400C2
:101B80000C49884208DA0846094941F8240003E074
:101B90000020074941F82400601CC4B2042CC4DBB7
:101BA000034800F005FDBDE8F0810000E41A0020C4
:101BB000241B0020A8E4FFFF10B51B480078401C40
:101BC000194908700846007805282CDD002420E01B
:101BD000164850F82400164951F82410884207DAB4
:101BE000124850F82400401C104941F824000EE02F
:101BF0000E4850F824000E4951F82410884206D0AF
:101C00000A4850F82400401E084941F82400601C8E
:101C1000C4B2022CDCDB054A5168106800F00AF8F7
:101C200000200149087010BDAA0600209C06002073
:101C3000940600202DE9F04105460E46314628461F
:101C4000FFF734F807460B480560466000240DE0B6
:101C500007EBC400D0E900211046FEF769FF064AF1
:101C6000611C52F821100880601CC4B2032CEFDB09
:101C7000BDE8F0819C060020CC050020002008E093
:101C8000054931F81010054A52F820201180411CF6
:101C9000C8B20528F4DB70477A060020CC05002086
:101CA00010B500F011F80648007838B10548007802
:101CB00010B1FFF781FF01E000F040F810BD000017
:101CC000700600206F0600200021164A12783AB3F1
:101CD000154A12787AB100200AE0144A52F82020FE
:101CE000134B53F820309A4200D00121421CD0B24D
:101CF0000228F2DB0FE000200BE00E4A32F8102041
:101D00000D4B53F820301B889A4200D00121421C11
:101D1000D0B20528F1DB012902D00022014B1A7054
:101D200070470000700600206F0600209C0600200F
:101D30009406002084060020CC050020002041E00D
:101D4000224951F820100988214A32F81020914286
:101D50001BDA1E4951F8201009881E4A125C1144F2
:101D60001A4A52F820201180184951F82010098889
:101D7000174A32F81020914222DD154931F810102F
:101D8000124A52F8202011801AE0104951F8201010
:101D90000988104A125C891A0C4A52F820201180D6
:101DA0000A4951F820100988094A32F81020914256
:101DB00006DA074931F81010044A52F82020118041
:101DC000411CC8B20528BBDB70470000CC050020D1
:101DD000840600208E06002000BFFEE708B5012122
:101DE000082000F0FBFD18208DF8030003208DF87B
:101DF00002004FF47070ADF8000069460148FFF72B
:101E000097FB08BD000C014010B501F03FF9FFF74A
:101E1000E5FF00F007F8FFF75FFDFFF70DFDFFF7A7
:101E20006DFD10BD00B587B00121042000F0C6FD96
:101E30000020ADF81600ADF8120041F61F40ADF8D5
:101E400014000020ADF810008DF8180004A91A48FD
:101E500001F0F2FA6020ADF800000020ADF80800B3
:101E60000120ADF802000020ADF8060069461248D6
:101E700001F07EF96946104801F0D0F969460E4834
:101E800001F02CFA69460C4801F082FA08210A4850
:101E900001F0BAF90821084801F012FA08210648B1
:101EA00001F06CFA0821044801F0B0FA012102485F
:101EB00001F037F907B000BD00080040704700008E
:101EC00070B5002100230F22C47804B3154C246898
:101ED00004F4E064C4F5E064210AC1F10403CA40DB
:101EE000447804FA03F184781440214309010E4C2C
:101EF0000678A155047804F01F050124AC4005784C
:101F00006D11AD0005F1E025C5F8004109E0047848
:101F100004F01F050124AC40044D0678761145F805
:101F2000264070BD0CED00E000E400E080E100E040
:101F300002490143024A1160704700000000FA059F
:101F40000CED00E070B500240FE00021204600F009
:101F5000C9F8002505E00121002000F0DEF8681C2A
:101F6000C5B2802DF7DB601CC4B2082CEDDB70BD60
:101F70002DE9F04706460F4614469846354613E0CD
:101F80002146284600F0AEF8A14607E001210020D6
:101F900000F0C3F809F1010000F0FF0908F10100A9
:101FA0008145F3DB681CC5B2781C8542E8DBBDE8DF
:101FB000F087000070B50D480078012808D0012393
:101FC000002211460AA000F063F9012007490870B9
:101FD00000F060FE0446C820B4FBF0F085B2012397
:101FE00039220021284600F00BF970BDDF080020DF
:101FF00053797354696D653A0000000010B50021F3
:10200000AE2000F08AF80021084600F086F8002192
:10201000102000F082F80021402000F07EF800211E
:10202000812000F07AF80021CF2000F076F800211E
:10203000A12000F072F80021C82000F06EF8002105
:10204000A62000F06AF80021A82000F066F8002120
:102050003F2000F062F80021D32000F05EF800215C
:10206000084600F05AF80021D52000F056F800216B
:10207000802000F052F80021D92000F04EF8002115
:10208000F12000F04AF80021DA2000F046F80021A3
:10209000122000F042F80021DB2000F03EF8002181
:1020A000402000F03AF80021202000F036F800210E
:1020B000022000F032F800218D2000F02EF80021DF
:1020C000142000F02AF80021A42000F026F80021B6
:1020D000A62000F022F80021AF2000F01EF8FFF744
:1020E00031FF10BD70B505460C46072D01DC7F2C75
:1020F00000DD70BD05F1B001C8B2002100F00DF89F
:1021000004F00F00002100F008F8102101EB14107A
:10211000002100F002F800BFEBE770B505460C4661
:10212000FFF768FC7820FFF73FFCFFF78FFC1CB13E
:102130004020FFF739FC02E00020FFF735FCFFF7F5
:1021400085FC2846FFF730FCFFF780FCFFF76AFCB0
:1021500070BD00002DE9F04105460E461746984631
:1021600039463046FFF7BEFF202D42DB7A2D40DC9A
:10217000B8F1010F03D0B8F1020F38D111E00024FB
:102180000CE0A5F1200101EB41011B4A02EB4101EA
:10219000085D0121FFF7C1FF601CC4B2062CF0DB13
:1021A00026E000240AE0A5F12001144A02EB011107
:1021B000085D0121FFF7B1FF601CC4B2082CF2DBFF
:1021C000711CC8B23946FFF78DFF00240CE0A5F161
:1021D00020010A4A02EB011204F10801505C0121BE
:1021E000FFF79BFF601CC4B2082CF0DB00E000BFCF
:1021F00000BFBDE8F0810000D0430008F2450008B0
:102200002DE9FF5F064691469A46BAF1010F03D0C9
:10221000BAF1020F06D102E04FF0070803E04FF0D9
:10222000090800E000BF00BF37460A2409E00A2081
:1022300097FBF0F087B204EB84004FF6FF7101EAE0
:102240004004002FF3D1642094FBF0F084B24D469B
:1022500019E096FBF4F00A2190FBF1F201FB120069
:1022600000F0FF0B0BF13001C8B253462A4601992A
:10227000FFF770FF0A2094FBF0F084B204B904E089
:1022800005EB0800C5B27F2DE3DB00BFBDE8FF9F73
:102290002DE9F0470446894617469846B8F1010FE4
:1022A00003D0B8F1020F04D101E0072602E00926AD
:1022B00000E000BF00BF3D460BE0207843462A46C1
:1022C0004946FFF747FF641C207800B903E0A819CE
:1022D000C5B27F2DF1DB00BFBDE8F08738B5022025
:1022E00000F0DEFC044600BF20780028FCD002E0AD
:1022F000022001F047FC60784128F9D1022001F06A
:1023000041FC054800783030C0B200900121684699
:1023100001F0ACFA38BD0000BC070020014908708C
:1023200070470000BC070020F8B50026022000F02E
:10233000B7FC0446207800287DD06078EE2803D0D2
:10234000022001F01FFC76E02078205CDE2872D1AC
:10235000A07839490870394800783030C0B2009010
:102360000846007835490978884203D0012168463B
:1023700001F07CFA30480078012802D0022856D1BA
:1023800020E00320009017E09DF80000215CC01EB3
:102390002B4A11549DF80010C9060A0E9DF8001032
:1023A000C91E274B585C01230721FFF7D3FE9DF878
:1023B0000000401CC0B200909DF80000205CDE28A8
:1023C000E2D134E0E078401CC5B21E48007838B94C
:1023D0001D4805701B480078401C1A49087019E018
:1023E000002000900BE018489DF80010405CA842C7
:1023F00000D101269DF80000401CC0B200909DF85D
:102400000000104909788842EDDB1EB90E480D49DD
:10241000097845540123002211462846FFF7F0FEB3
:1024200008480078032801D100F0B8F900BF00BFC8
:10243000022001F0A7FBF8BDBB070020BC0700206D
:10244000BD070020C0070020C10700204FF4A06096
:10245000FFF76EFD48210A2000F090FD00F01CFD02
:10246000FFF70CFCFFF780FAFFF7C8FD02230022FC
:1024700011463DA0FFF70CFF01F044FA01F0E2FA2B
:10248000FFF7C2FCFFF72AFF02230022194639A0FA
:10249000FFF7FEFEFFF784F9FFF754FD394B0122E9
:1024A0001146104601F052F8374B012211461046F2
:1024B00001F04CF8354B01221146104601F046F868
:1024C000334B01221146104601F040F8314B0222F5
:1024D0000121084601F03AF82F4B0222012108465B
:1024E00001F034F82D4B02220121084601F02EF8AC
:1024F000012000F0C1FD2A49B1F1807F00D31DE029
:1025000021F07F40401E4FF0E022506150170F2213
:10251000002807DA13071D0E224B00F00F04241FBA
:102520001D5503E013071C0E1F4B1C5400BF002059
:102530004FF0E02290610720106100BF13E00024FB
:102540000AE01A4810F8340020B1184901EBC40120
:1025500048688047601CC4B2144800EBC40040685F
:102560000028EED100BFEAE753797374656D496EB8
:10257000697400004F70656E4D5620726561647914
:102580000000000049270008A11C0008994200082B
:102590004D430008A142000855430008F9420008D5
:1025A0008097060018ED00E000E400E0141700201A
:1025B00010B50446206818B3206800280FDD4FF4DA
:1025C00080715E48FFF74AF84FF400715B48FFF7EF
:1025D00043F8208881B25A4800F025FF1AE04FF4F2
:1025E00000715648FFF73AF84FF480715348FFF7EF
:1025F00033F82088404281B2514800F014FF09E0CE
:102600004FF440714D48FFF729F84FF6FF714C48E1
:1026100000F009FF241D206818B3206800280FDD92
:102620004FF480614548FFF719F84FF400614348C3
:10263000FFF712F8208881B2414800F0F6FE1AE058
:102640004FF400613D48FFF709F84FF480613B48C3
:10265000FFF702F82088404281B2394800F0E5FED9
:1026600009E04FF440613548FEF7F8FF4FF6FF717F
:10267000334800F0DAFE241D206818B320680028D3
:102680000FDD4FF400512D48FEF7E8FF4FF4805165
:102690002A48FEF7E1FF208881B2294800F0C7FEF2
:1026A0001AE04FF480512548FEF7D8FF4FF400514F
:1026B0002248FEF7D1FF2088404281B2204800F036
:1026C000B6FE09E04FF440511C48FEF7C7FF4FF635
:1026D000FF711B4800F0ABFE241D206818B3206872
:1026E00000280FDD4FF400411448FEF7B7FF4FF408
:1026F00080411248FEF7B0FF208881B2104800F0F8
:1027000098FE1AE04FF480410C48FEF7A7FF4FF403
:1027100000410A48FEF7A0FF2088404281B20848E5
:1027200000F087FE09E04FF440410448FEF796FFB1
:102730004FF6FF71024800F07CFE10BD0010014012
:10274000000800407047000010B500F0E1F81048A4
:10275000007880B100F076F80E480078012803D0A8
:102760000C480078032806D10A490C7804EBD47190
:10277000481000F021F801F079FA00F023FB064838
:1027800000F00CFBFFF7CAF9FFF732F810BD0000AC
:102790009505002094050020341B002000B500F0B2
:1027A0009FF805200249087000200249087000BD0A
:1027B000940500209505002010B50146194B1868B6
:1027C000002800DA4042184B53F82130B3F5A07FBF
:1027D00005DC154B53F8213013F5A07F02DA4FF4D6
:1027E000A07202E0104B53F82120002A00DA524276
:1027F000401C904200DD10460B4B53F82130002B5B
:1028000000DA404239B1074B1860D8604342054CAA
:10281000A360636004E0034B1860D8609860586060
:1028200010BD0000441B00208C05002000B500F006
:1028300057F803480078401C0149087000BD0000AB
:102840009405002000B51C480078052831D2DFE847
:1028500000F0030C151E2700184800680A2190FBA1
:10286000F1F008B9FFF7E2FF23E0154800680A21FC
:1028700090FBF1F008B9FFF7D9FF1AE00F480068A4
:102880000A2190FBF1F008B9FFF7D0FF11E00C48E6
:1028900040680A2190FBF1F008B9FFF7C7FF08E094
:1028A000064800680A2190FBF1F008B9FFF7BEFF67
:1028B00000BF00BF00BD0000940500207C05002083
:1028C0008C05002004490978012904D003490870C7
:1028D0000121014A117070477B0D00207C0D002002
:1028E00000200BE00021074A42F82010064A42F877
:1028F0002010064A42F82010411CC8B20428F1DB1F
:1029000070470000341B0020541B0020441B002093
:1029100010B5FEF765FF1C490968401A1B4908609D
:1029200000F0DCF80446D4E900121144A268114416
:10293000E2688818C11700EB9171154A126802EB22
:10294000A101134A1160D4E90012891AA268891AF8
:10295000E2688818C11700EB91710D4A526802EBCA
:10296000A1010B4A51600B48006811460968401AE2
:10297000094908600748406811464968401A0649F5
:102980004860FEF7C5FB10BD800500207C050020D7
:1029900074050020840500208C05002029B1064A1A
:1029A00052690243044B5A6104E0034A526982436C
:1029B000014B5A61704700000010024029B1064ADD
:1029C000D2690243044BDA6104E0034AD2698243CC
:1029D000014BDA61704700000010024029B1064A3D
:1029E00092690243044B9A6104E0034A926982436C
:1029F000014B9A61704700000010024030B5002181
:102A00000022002400232D4D6D6805F00C0121B13A
:102A1000042905D0082923D105E0294D056022E0CD
:102A2000274D05601FE0254D6D6805F47012234D9C
:102A30006D6805F48034022505EB92421CB9214DE6
:102A4000554305600BE01D4D6D6805F400351DB163
:102A50001C4D5543056002E0194D5543056002E0E9
:102A6000174D056000BF00BF144D6D6805F0F00103
:102A70000909154D6B5C0568DD4045600F4D6D68BB
:102A800005F4E061090A104D6B5C4568DD40856026
:102A90000A4D6D6805F46051C90A0B4D6B5C4568C1
:102AA000DD40C560054D6D6805F44041890B074D5B
:102AB0006B5CC568B5FBF3F5056130BD00100240E5
:102AC00000127A0000093D000000002010000020E4
:102AD0000148007870470000EF0900200048704767
:102AE000C4100020014800787047000070060020E4
:102AF00001480078704700009405002001480078E4
:102B0000704700007B0D002000487047BD07002083
:102B1000FF200549087005480078032801DA0846B7
:102B200070470348FCE70000C4070020C0070020EE
:102B3000C10700202DE9F04100248AE04848808C3C
:102B4000484931F81410471A4FEAE778464830F8F8
:102B500014004649098888420BD0434830F81400D5
:102B600042490988081A4EF660214843C71948EBC4
:102B7000E07844F62061791A78F1000063DA394888
:102B800030F814003A4931F81410451AEE17394854
:102B900030F81400344931F8141088420CD032480F
:102BA00030F81400334931F81410401A4EF6602101
:102BB0004843451946EBE0762A46334644F6206002
:102BC0004FF00001FDF7D0FA05460E462A48005D99
:102BD0002A4931F8141088421ED0294850F82400A0
:102BE000291A66EBE0703C3970F1000014DA2448D1
:102BF00050F824002A1A66EBE0706FF03B034FF0A8
:102C0000FF319A1A814107DA022200232846314611
:102C1000FDF7AAFA05460E46184830F8140018B118
:102C200000226D4262EB06064FF4FA71691A76F1E2
:102C300000000CDA13494812491BB04107DA10486A
:102C400040F8245003E000200D4941F82400601CA6
:102C5000C4B2042CFFF672AF0948BDE8F081000051
:102C6000001000402A0200203A020020200200202A
:102C700022020020320200204202002046020020F0
:102C8000D41000200CFEFFFF0148006870470000D0
:102C90007804002001480068704700007404002098
:102CA0000146481E014A02EB801070477413002051
:102CB000704710B500F002F810BD00000CB5002000
:102CC000019000903348006840F48030314908603A
:102CD00000BF3048006800F4003000900198401CAC
:102CE0000190009818B90198B0F5A06FF1D129486A
:102CF000006800F4003010B10120009001E00020D5
:102D000000900098012843D12348006840F010004B
:102D1000214908600846006820F003000860084662
:102D2000006840F0020008601A484068194948608D
:102D30000846406848600846406840F48060486043
:102D40000846406820F47C1048600846406840F41B
:102D5000E81048600846006840F08070086000BFD6
:102D60000C48006800F000700028F9D0094840685D
:102D700020F00300074948600846406840F0020020
:102D8000486000BF0348406800F00C000828F9D1F3
:102D90000CBD0000001002400020024070B5054646
:102DA000002409E055F82400FDF721FC044901EB5B
:102DB00004110860601CC4B2042CF3DB70BD000079
:102DC000E41A0020002037E01D4A52F820201D4B55
:102DD00053F820301A4411461B4B43F82020002999
:102DE00000DA4942B1F5BE7F0EDD174A52F82020C5
:102DF000002A05DD4FF4BE72134B43F8202003E098
:102E0000124A114B43F82020322913DA91B1104AAB
:102E10001278022A0ED00C4A52F82020002A04DD33
:102E20003222094B43F8202004E06FF03102064BB8
:102E300043F82020421CD0B20428C5DB70470000B4
:102E4000441B0020541B0020341B002084FEFFFF85
:102E50009505002008B501210420FFF7BFFD0121E1
:102E60000820FFF7BBFD18208DF8030003208DF824
:102E70000200C320ADF8000069460548FEF758FB84
:102E80000320ADF8000069460248FEF751FB08BD7B
:102E900000080140000C014010B5FFF7DBFF00F017
:102EA00001F810BD00B587B001210846FFF786FD87
:102EB00001210220FFF782FD0020ADF81600ADF8D9
:102EC000120044F61F60ADF814004720ADF8100062
:102ED00000208DF8180004A94FF0804000F0ACFAF3
:102EE00004A9254800F0A8FA6020ADF800000020F1
:102EF000ADF808000120ADF802000020ADF8060092
:102F000069464FF0804000F033F969464FF0804049
:102F100000F084F96946184800F02AF96946164815
:102F200000F07CF96946144800F0D8F96946124867
:102F300000F02EFA0821C80600F066F90821C8063C
:102F400000F0BEF908210C4800F05EF908210A489B
:102F500000F0B6F90821084800F010FA08210648E8
:102F600000F054FA0121880700F0DBF80121024843
:102F700000F0D7F807B000BD000400407FB504465C
:102F80000D4601212020FFF719FD0020ADF80A00B1
:102F9000ADF80600ADF80450ADF808408DF80C000F
:102FA00001A90D4800F048FA012211460A4800F034
:102FB000D5F837208DF8000001208DF8030000209F
:102FC0008DF801008DF802006846FEF779FF0121B7
:102FD000014800F0A6F87FBD0014004010B50C4871
:102FE0000068401C0A49086000240AE0094810F8FB
:102FF000340020B1074901EBC40148688047601CD8
:10300000C4B2044800EBC40040680028EED110BDF3
:10301000740400201416002010B51348006840F016
:1030200001001149086008464068104908400E49EF
:103030004860084600680E4908400B490860084689
:10304000006820F4802008600846406820F4FE00F4
:1030500048604FF41F008860FFF72BFE4FF00060C0
:103060000449086010BD0000001002400000FFF895
:10307000FFFFF6FE08ED00E00146052901DA0248EF
:1030800001700148007870477C04002008B50121D8
:103090001020FFF7A3FC10208DF8030003208DF80B
:1030A00002004FF47F40ADF8000069460448FEF787
:1030B0003FFA4FF47F410248FEF7CEFA08BD000008
:1030C0000010014010B50121074800F036F8012832
:1030D00008D106480088401C0449088001210248A4
:1030E00000F01CF810BD000000100040200200207D
:1030F00010B50121074800F020F8012808D1064842
:103100000068401C044908600121024800F006F8EC
:1031100010BD00000014004078040020CA43028261
:10312000704721B1028842F00102028004E0028867
:103130004FF6FE731A400280704730B502460020F9
:1031400000230024158A05EA0103958905EA010494
:1031500013B10CB1012000E0002030BD1AB1838909
:103160000B43838102E083898B4383817047000096
:1031700070B5002400220023058C4FF6FE76354002
:103180000584028C8388048B4FF68F752C40B51E06
:103190002C400D882C43751E2A400D892A434D88EA
:1031A0002A43144DA8420BD0134DA84208D0134D0A
:1031B000A84205D0124DA84202D0124DA84213D108
:1031C0004FF6F7752A404D892A434FF6FB752A4082
:1031D0008D882A434FF6FF652B404FF6FF552B4055
:1031E0008D892B43CD892B4383800483CD888586AD
:1031F000028470BD002C01400034014000400140B9
:1032000000440140004801400A460021018B4FF66E
:10321000F7731940114301837047000070B5002413
:1032200000220023058C4FF6EF7635400584028C92
:103230008388048B48F6FF752C404FF6FF452C40E1
:103240000D884FF6FF7606EA05252C434FF6DF750D
:103250002A400D8906EA05152A434D8806EA051518
:103260002A43154DA84202D0144DA8421DD14FF655
:103270007F752A404D894FF6FF7606EA05152A43E9
:103280004FF6BF752A408D8806EA05152A434FF68A
:10329000FF352B404FF2FF752B408D8906EA8505DF
:1032A0002B43CD8906EA85052B4383800483CD8893
:1032B0000587028470BD0000002C014000340140ED
:1032C0000A460021018B4FF2FF7319404FF6FF733E
:1032D00003EA0223194301837047000070B50024FC
:1032E00000220023058C4FF6FF6635400584028CD2
:1032F0008388848B4FF68F752C404FF6FC752C40DD
:103300000D882C434FF6FF552A400D894FF6FF7666
:1033100006EA05252A434D8806EA05252A43154D68
:10332000A84202D0144DA8421DD14FF2FF752A4089
:103330004D894FF6FF7606EA05252A434FF6FF35FD
:103340002A408D8806EA05252A434EF6FF752B4054
:103350004DF6FF752B408D8906EA05152B43CD8967
:1033600006EA05152B4383808483CD8885870284F4
:1033700070BD0000002C0140003401400A460021CD
:10338000818B4FF6F773194011438183704700001A
:1033900070B5002200230024058C4EF6FF763540E0
:1033A0000584038C8488828B48F6FF752A404FF68B
:1033B000FF452A400D884FF6FF7606EA05252A4389
:1033C0004DF6FF752B400D8906EA05352B434D88D8
:1033D00006EA05352B430B4DA84202D00A4DA84200
:1033E00008D14BF6FF752C408D894FF6FF7606EA23
:1033F00085152C4384808283CD88A0F840500384B7
:1034000070BD0000002C0140003401400A4600213C
:10341000818B4FF2FF7319404FF6FF7303EA0223CB
:103420001943818370478186704701877047818780
:103430007047A0F840107047002202881D4B984248
:103440000ED01D4B98420BD0B0F1804F08D01B4BD3
:10345000984205D01A4B984202D01A4B984204D198
:103460004FF68F731A404B881A43174B984207D078
:10347000164B984204D04FF6FF431A40CB881A43AC
:1034800002808B8883850B8803850A4B98420BD07A
:10349000094B984208D00E4B984205D00D4B9842EC
:1034A00002D00D4B984201D10B7A0386012383820F
:1034B00070470000002C014000340140000400402F
:1034C00000080040000C00400010004000140040C4
:1034D00000400140004401400048014010B50C4B41
:1034E0001860596062B11B680A4C24682344084C78
:1034F000236023465B68074C64682344044C636084
:103500000023054C23700123044C237010BD0000E0
:1035100084050020740500209405002095050020F6
:1035200010B50023054C23700123054C2370054B77
:1035300023F81200044B995410BD00006F060020C0
:1035400070060020840600208E0600207CB58DF8D1
:1035500000008DF801108DF80220019381B1114C0B
:1035600024788DF803400F4C25782478641C0D4E88
:1035700034700D4C04EBC504DDE9005660C40FE067
:103580000A4C24788DF80340084C25782478641C74
:10359000064E3470064C04EBC504DDE9005660C4E9
:1035A0007CBD00007D040020141600207E04002055
:1035B0001417002010B540F225510C4800F092F885
:1035C00098B10B4804780078401C094908703F2CDA
:1035D00006D0064800F042F9C1B2054A601C1154F9
:1035E00040F22551014800F059F810BD0038014063
:1035F0007413002010B540F225510E4800F072F807
:10360000B8B10D4890F8404090F84000401C0A497D
:1036100081F840003F2C07D0064800F01FF9C2B2E5
:1036200005484030611C425440F22551014800F0E9
:1036300035F810BD004400407413002010B540F26E
:103640002551144800F04EF810B3134890F880400C
:1036500090F88000401C104981F880000D4800F06F
:10366000FDF8C2B20C488030611C4254803890F89A
:1036700080000B2807D10020074981F8800001F164
:103680008100FEF7C1F840F22551024800F006F82B
:1036900010BD0000004800407413002010B5002247
:1036A000002340F66A14A14200D100BF0A1201248F
:1036B0009440A3B2DC43048010BD21B1828942F45E
:1036C0000052828104E082894DF6FF731A408281A4
:1036D00070471AB1838A0B43838202E0838A8B434B
:1036E0008382704770B50246002400230025002025
:1036F00040F66A16B14200D100BFC1F3421501F095
:103700001F03012606FA03F3012D02D196893340E7
:1037100006E0022D02D1168A334001E0968A33403A
:103720000C12012606FA04F41688344013B10CB1C9
:10373000012000E0002070BDF0B503460024002603
:103740000025002040F66A17B94200D100BF184694
:10375000C1F3421401F01F06012707FA06F5012CF8
:1037600001D10C3004E0022C01D1103000E0143003
:103770001AB107682F43076002E00768AF4307608C
:10378000F0BD00002DE9F04786B005460E46002446
:10379000A24600BFA1460027B08900B100BF2F4656
:1037A0002C8A4CF6FF700440F08804432C82AC89CC
:1037B0004EF6F3100440B0883189084371890843FC
:1037C0000443AC81AC8A4FF6FF400440B089044307
:1037D000AC8201A8FFF712F91F48874202D1DDF839
:1037E00010A001E0DDF80CA0A88900F4004040B171
:1037F0000AEBCA0000EB0A1031684900B0FBF1F88F
:1038000007E00AEBCA0000EB0A1031688900B0FB40
:10381000F1F86420B8FBF0F004012009642101FBF9
:103820001089A88900F4004040B1322000EBC900A3
:10383000B0FBF1F000F00700044308E0322000EB99
:1038400009106421B0FBF1F000F00F0004432C815B
:1038500006B0BDE8F08700000038014001468888C6
:10386000C0F30800704700BFFEE7000070B50546D2
:103870000E460E484078B0B901200C49487000242B
:1038800005E028780A4908556D1C601CC4B2B44292
:10389000F7DB31460748FDF738FC01210548FDF705
:1038A00045FB002070BD0120FCE700006303002001
:1038B000641400208000024070B505460E460E4894
:1038C0008078B0B901200C498870002405E0287880
:1038D0000A4908556D1C601CC4B2B442F7DB31467E
:1038E0000748FDF712FC01210548FDF71FFB0020EA
:1038F00070BD0120FCE70000630300209414002049
:103900001C00024000B587B001210420FFF766F8D3
:1039100001210820FFF762F818208DF80B00032022
:103920008DF80A004FF40170ADF8080002A9404874
:10393000FDF7FEFD4FF48060ADF8080002A93D4898
:10394000FDF7F6FD04208DF80B004FF48160ADF813
:10395000080002A93648FDF7EBFD4FF40060ADF812
:10396000080002A93348FDF7E3FD4FF4E13003906E
:103970000020ADF818000C20ADF816000020ADF8BE
:103980001400ADF81200ADF8100001218803FFF714
:1039900025F801214804FFF711F801218804FFF7F9
:1039A0000DF803A92448FFF7EDFE03A92348FFF70C
:1039B000E9FE03A92248FFF7E5FE01208DF8070084
:1039C00002208DF8050001208DF8060025208DF8D5
:1039D000040001A8FEF774FA26208DF8040001A85F
:1039E000FEF76EFA27208DF8040001A8FEF768FAAA
:1039F000012240F225511048FFF79EFE012240F2BD
:103A000025510E48FFF798FE012240F225510C483F
:103A1000FFF792FE01210848FFF74FFE01210748FA
:103A2000FFF74BFE01210648FFF747FE07B000BD38
:103A300000080140000C01400038014000440040F3
:103A40000048004000B58DB001210846FEF7A6FFF2
:103A5000002005901020049000200C9009908020F8
:103A6000079000200A90089006904FF400500B90A9
:103A700001208DF805008DF806000E208DF8040059
:103A800001208DF8070001A8FEF71AFA11208DF821
:103A9000040001208DF8070001A8FEF711FA0C20A0
:103AA0008DF8040001208DF8070001A8FEF708FA40
:103AB0002D4803902D48029040140B902C48FDF7A0
:103AC00041FA4FF48050FDF723FA012202212848E1
:103AD000FDF7F4FA02A92648FDF7F9FA2548039004
:103AE0002548029040140B9021483C30FDF72AFAFB
:103AF0004FF08070FDF70CFA012202211C483C3087
:103B0000FDF7DCFA02A91A483C30FDF7E0FA1B4841
:103B100003901B48029040140B9015482838FDF77D
:103B200011FA1020FDF7F4F901220221104828387B
:103B3000FDF7C4FA02A90E482838FDF7C8FA012299
:103B400080210A48001FFFF7C4FD012280210A4896
:103B5000001FFFF7BEFD012280210948001FFFF76B
:103B6000B8FD0DB000BD0000341400200438014041
:103B700044000240641400200444004094140020D7
:103B8000044800400022411E024B03EB81110A70E1
:103B900070470000741300200022411E014B5A544C
:103BA000704700006303002070B5FFF76DF805460D
:103BB000FDF71EFEFFF768F8044600BFFFF764F844
:103BC00042F2107121448842F8D33CE0FFF75CF8E0
:103BD00021490968401AB0F5FA7F34D9FFF754F843
:103BE0001D4908601D4800681D490968884203D0C6
:103BF00000201C49088004E01A480088401C19492C
:103C00000880174800681549086014230022052120
:103C10000846FEF7ADF911480068002809DA0F4997
:103C20000988494288B2012300220521FEF7E8FAFB
:103C300007E00A49098888B2012300220521FEF71E
:103C4000DFFAFDF7D5FD07480088C828BED1044833
:103C500000680549086070BD340100203001002073
:103C6000240100202C0100202801002000B5174865
:103C700003681748007801280BD0154800780328FE
:103C800007D013480078062803D01248007802288D
:103C900009D11148036058420F49486008468360C3
:103CA0005842C86011E0094800680A2190FBF1F011
:103CB00048B1094803605842074948600846836094
:103CC0005842C86001E0FEF70BFE00BD7C050020F5
:103CD0009405002095050020541B0020490050EA5F
:103CE000C12018BF04204A0D18BF40F0010040F267
:103CF000FF72B2EB515F08BF40F00200012808BF1D
:103D0000052070472DE9F0414F1E00EBC701044626
:103D1000D1E9000115461E4637F006020DD02A46AD
:103D20003346FCF783FB7F1E04EBC703D3E9002374
:103D3000FCF7D5FA37F00602F1D1022F25D0042F77
:103D400013D0062F18BFBDE8F0812A463346FCF792
:103D50006DFBD4E90A23FCF7C2FA2A463346FCF786
:103D600065FBD4E90823FCF7BAFA2A463346FCF788
:103D70005DFBD4E90623FCF7B2FA2A463346FCF78A
:103D800055FBD4E90423FCF7AAFA2A463346FCF78C
:103D90004DFBD4E90223FCF7A2FA2A463346FCF78E
:103DA00045FBD4E90023BDE8F041FCF798BA0122B5
:103DB000FCF7F4BD0022134610461146FCF7A8BBE1
:103DC000024A00201107FCF7E9BD000001FDFFFFDA
:103DD00002E008C8121F08C1002AFAD170477047D4
:103DE000002001E001C1121F002AFBD17047000032
:103DF0000149086070470000800D00202DE9F04D5A
:103E00000546DFF8388221F000408D4F82B00C4625
:103E1000404520DBA0EB080129430BD089498842AB
:103E200001DC10D17DB102B028462146BDE8F04D3D
:103E3000FFF7BDBF002CC7BF0020014682483946AE
:103E400002B0BDE8F08D0120FFF7D2FF02B0BDE85F
:103E5000F04DFFF7AFBF7D49884244DA7C4981428B
:103E6000A1BF79487B4902B0BDE8F08D2A462346C0
:103E700010461946FCF7DAFA8346024676480E46A3
:103E80000B4606217844FFF73DFF5A463346FCF7C0
:103E9000CDFA074671488A465A463346042178448B
:103EA000FFF730FF5A463346FCF7C0FA002243467C
:103EB000FCF715FA02460B4638465146FCF728FB3C
:103EC0002A462346FCF7B2FA654A664BFCF7ABFA82
:103ED0002A462346FCF7A7FA02B05B4ABDE8F04D3C
:103EE0005C4BFCF7A0BA002C4FF000024BDA4646C0
:103EF000434628462146FCF7F2F94FF0FF32FCF723
:103F00004DFD0446024658480D460B4606217844AE
:103F1000FFF7F8FE22462B46FCF788FA8046534806
:103F20008A4622462B4604217844FFF7EBFE2246C0
:103F30002B46FCF77BFA00223346FCF7D0F9064605
:103F40008B462046294600F01DFA04460D463246AF
:103F50005B4640465146FCF7DBFA22462B46FCF70F
:103F600065FA3F4A3F4BFCF75BFA22462B46FCF7CB
:103F7000B6F90122FCF712FD02B03B46BDE8F04D58
:103F8000314AFCF750BA2D4B28462146FCF74BFA34
:103F90004FF0FF32FCF702FD05460E4600F0F2F945
:103FA00000270C4680463A460B46FCF798F98246B5
:103FB0008B463A46234610461946FCF737FA2A46FE
:103FC0003346FCF730FA52465B46FCF7A1FA8246CC
:103FD00027488B462A46334606217844FFF792FE4F
:103FE0002A463346FCF722FACDE9000121482A4649
:103FF000334604217844FFF785FE2A463346FCF712
:1040000015FA00220D4BFCF76AF902460B46DDE972
:104010000001FCF77DFA42462346FCF707FA5246B8
:104020005B46FCF75CF93A462346FCF758F902B0C8
:104030000122BDE8F04DFCF7B1BC00000000F03FEC
:10404000FB2109400000F07F182D44540000E03FA0
:104050000000603CFB21F93F200D0000360D000000
:10406000075C143326A6913C960C0000AC0C0000B3
:10407000CA0B0000E00B00002DE9F84F04460D4686
:1040800021F0004000917349814211DC724988425D
:1040900001DC06D12CB120462946BDE8F84FFFF7D8
:1040A00086BE6E48002DCCBF6D496E49BDE8F88FC5
:1040B0006D49814211DD6D498142D8BF4FF0FF3615
:1040C0006DDD20462946FFF709FE042808BFFFF7EB
:1040D00077FE20462946BDE8F88F6549654F25F0F3
:1040E0000045814233DD6449814219DD00263246B4
:1040F0004FF0804320462946FCF7F1F880468A4677
:10410000012220462946FCF749FC00223B46FCF7E9
:1041100087F942465346FCF7FBF904460D463EE05C
:1041200001260022BA463B4620462946FCF7D7F82E
:1041300080460F460022534620462946FCF770F978
:1041400042463B46FCF7E4F904460D4627E04B495E
:1041500081421BDDDFF828A10226002253462046BB
:104160002946FCF763F900223B46FCF7B8F8804685
:104170000F460022534620462946FCF751F9424695
:104180003B46FCF7C5F904460D4608E003262246E7
:104190002B4600203B49FCF7BBF904460D4622465E
:1041A0002B4610461946FCF741F98B4682460246DB
:1041B0000B46FCF73BF907460246334888460B4658
:1041C00006217844FFF79EFD52465B46FCF72EF928
:1041D00082462E488B463A46434605217844FFF7EF
:1041E00091FD3A464346FCF721F902460B46002E64
:1041F000504659460CDAFCF772F822462B46FCF77B
:1042000015F901B022462B46BDE8F04FFCF70BB97B
:10421000FCF765F822462B46FCF708F91C4A7A445D
:1042200002EBC603D3E90023FCF7FAF822462B463B
:10423000FCF7F6F8174A7A4402EBC603D3E90023E9
:10424000FCF7F1F8009A002AB8BF81F00041BDE800
:10425000F88F0000000010440000F07F182D445437
:10426000FB21F93FFB21F9BF0000DC3F0000203EAD
:104270000000F33F0000F03F0000E63F00800340F5
:104280000000F83F0000F0BF9A0A0000580A000042
:10429000F6090000BE09000010B5FDF78BFE10BD49
:1042A00010B51048007801281BD1FEF71BFC01282F
:1042B00017D00D480078401C0B4908700B48007857
:1042C00005280DD2DFE800F0030607080900FDF716
:1042D000C7F905E004E003E002E0FCF75DFC00BF85
:1042E00000BF10BDEF090020F6090020F5090020ED
:1042F000FEF7ACF800BFFEE710B51148007850B9E2
:1043000010480078401C0F49087000200E490870C2
:1043100001200B4908700B480078012802D1FDF7F5
:104320001DFA05E007480078022801D1FCF770FC6F
:1043300001230022062103480078FDF761FF10BD2C
:104340005B0C00205D0C00205C0C002010B5FDF71C
:10435000EBFF10BD10B50948007868B10848007837
:10436000012802D0022806D102E0FDF793F802E00E
:10437000FDF76EF800BF00BF10BD00007B0D0020F0
:104380007C0D00202DE9F04106460F46FCF71DFB91
:10439000041E0D4618BF0120284320F00040C0F144
:1043A0007F6000F1E040C00F0ED0301C18BF01202C
:1043B000384320F00040C0F17F6000F1E040C00FC2
:1043C00004BF0120FFF714FD20462946BDE8F08117
:1043D0000000000000000000002F000000000700A7
:1043E000070000147F147F1400242A7F2A12006221
:1043F00064081323003649552250000005030000CD
:1044000000001C224100000041221C000014083E54
:1044100008140008083E0808000000A0600000081A
:10442000080808080000606000000020100804026E
:10443000003E5149453E0000427F4000004261512C
:104440004946002141454B31001814127F100027C6
:1044500045454539003C4A49493000017109050389
:1044600000364949493600064949291E00003636BA
:10447000000000005636000000081422410000141D
:1044800014141414000041221408000201510906FA
:1044900000324959513E007C1211127C007F49497B
:1044A0004936003E41414122007F4141221C007FAC
:1044B00049494941007F09090901003E4149497ABA
:1044C000007F0808087F0000417F41000020404134
:1044D0003F01007F08142241007F40404040007FA0
:1044E000020C027F007F0408107F003E4141413EE4
:1044F000007F09090906003E4151215E007F09192C
:1045000029460046494949310001017F0101003F28
:104510004040403F001F2040201F003F4038403FA8
:10452000006314081463000708700807006151490C
:10453000454300007F41410000552A552A5500009F
:1045400041417F000004020102040040404040401D
:10455000000001020400002054545478007F4844B5
:10456000443800384444442000384444487F0038EC
:104570005454541800087E0901020018A4A4A47C15
:10458000007F080404780000447D400000408084DF
:104590007D00007F102844000000417F4000007C27
:1045A00004180478007C0804047800384444443833
:1045B00000FC242424180018242418FC007C08047F
:1045C000040800485454542000043F444020003C58
:1045D0004040207C001C2040201C003C4030403CDF
:1045E000004428102844001CA0A0A07C004464546F
:1045F0004C4400000000000000000000000000002B
:104600000000000000F8000000000000003330004F
:10461000000000100C06100C060000000000000056
:10462000000040C07840C0784000043F04043F04CC
:104630000400007088FC08300000001820FF211ED4
:104640000000F008F000E018000000211C031E210B
:104650001E0000F00888700000001E212324192786
:10466000211010160E0000000000000000000000E5
:104670000000000000E018040200000000071820FD
:10468000400000020418E00000000040201807006D
:104690000000404080F0804040000202010F010213
:1046A0000200000000F0000000000101011F0101F4
:1046B0000100000000000000000080B07000000059
:1046C00000000000000000000000000101010101E5
:1046D0000101000000000000000000303000000078
:1046E000000000000000806018040060180601004F
:1046F000000000E010080810E000000F102020105B
:104700000F00001010F8000000000020203F2020C3
:10471000000000700808088870000030282422215A
:104720003000003008888848300000182020201110
:104730000E000000C02010F8000000070424243FF1
:10474000240000F80888880808000019212020119A
:104750000E0000E0108888180000000F11202011C2
:104760000E0000380808C83808000000003F0000AC
:1047700000000070880808887000001C2221212297
:104780001C0000E010080810E00000003122221197
:104790000F00000000C0C00000000000003030002A
:1047A00000000000008000000000000080600000A9
:1047B00000000000804020100800000102040810E2
:1047C00020004040404040404000040404040404F1
:1047D000040000081020408000000020100804029F
:1047E0000100007048080808F000000000303601A1
:1047F0000000C030C828E810E00007182724231460
:104800000B000000C038E0000000203C230202271B
:10481000382008F8888888700000203F2020201168
:104820000E00C030080808083800071820202010A3
:10483000080008F808080810E000203F2020201099
:104840000F0008F88888E8081000203F2020232067
:10485000180008F88888E8081000203F20000300AE
:104860000000C03008080838000007182020221E69
:10487000020008F808000008F808203F2101012183
:104880003F20000808F8080800000020203F2020F2
:10489000000000000808F8080800C08080807F0041
:1048A000000008F888C028180800203F200126389A
:1048B000200008F8080000000000203F20202020F1
:1048C000300008F8F800F8F80800203F003F003FEB
:1048D000200008F830C00008F808203F2000071822
:1048E0003F00E01008080810E0000F102020201002
:1048F0000F0008F808080808F000203F2101010116
:104900000000E01008080810E0000F1824243850B8
:104910004F0008F8888888887000203F2000030C2A
:104920003020007088080808380000382021212233
:104930001C00180808F8080818000000203F200094
:10494000000008F808000008F808001F20202020B8
:104950001F000878880000C83808000007380E01DA
:104960000000F80800F80008F800033C0700073CC6
:104970000300081868808068180820302C03032C76
:1049800030200838C800C83808000000203F200048
:10499000000010080808C838080020382621202008
:1049A0001800000000FE020202000000007F4040EC
:1049B0004000000C30C0000000000000000106387C
:1049C000C00000020202FE000000004040407F00E4
:1049D00000000000040202020400000000000000C9
:1049E00000000000000000000000808080808080C7
:1049F00080800002020400000000000000000000AF
:104A00000000000080808080000000192422222203
:104A10003F2008F8008080000000003F1120201196
:104A20000E000000008080800000000E1120202079
:104A30001100000000808088F800000E1120201076
:104A40003F200000808080800000001F2222222260
:104A50001300008080F0888888180020203F2020E4
:104A600000000000808080808000006B949494930C
:104A7000600008F8008080800000203F21000020B6
:104A80003F2000809898000000000020203F202058
:104A90000000000000809898000000C08080807FA7
:104AA000000008F8000080808000203F24022D30A4
:104AB0002000000808F8000000000020203F20200F
:104AC00000008080808080808000203F20003F2088
:104AD000003F8080008080800000203F2100002077
:104AE0003F200000808080800000001F20202020C8
:104AF0001F00808000808000000080FFA120201126
:104B00000E000000008080808000000E112020A098
:104B1000FF80808080008080800020203F21200056
:104B20000100000080808080800000332424242441
:104B30001900008080E0808000000000001F20201D
:104B400000008080000000808000001F20202010D6
:104B50003F20808080000080808000010E300806A9
:104B6000010080800080008080800F300C030C30BA
:104B70000F0000808000808080000020312E0E31E8
:104B80002000808080000080808080818E701806E8
:104B9000010000808080808080000021302C222154
:104BA0003000000000000000555555555555C53FD3
:104BB0007D6FEB0312D6D4BF5544880E55C1C93F53
:104BC0003B8F68B52882A4BF88B20175E0EF493FEA
:104BD00009F7FD0DE13D023F4B2D8A1C273A03C02A
:104BE000C88A599CE52A004059018D1B6C06E6BF16
:104BF00082922EB1C5B8B33F4FBB610567ACDD3FB4
:104C0000182D4454FB21E93F9BF681D20B73EF3FF3
:104C1000182D4454FB21F93FE2652F227F2B7A3C6B
:104C2000075C143326A6813CBDCBF07A8807703C24
:104C3000075C143326A6913CC4EB98999999C9BF97
:104C4000711623FEC671BCBF6D9A74AFF2B0B3BFCC
:104C50009AFDDE522DDEADBF2F6C6A2C44B4A2BF8C
:104C60000D5555555555D53FFF8300922449C23FF8
:104C70006E204CC5CD45B73F513DD0A0660DB13F2C
:104C8000EB0D76244B7BA93F11DA22E33AAD903F3E
:104C9000B04C000800000020840D0000900A0008BD
:104CA000BC4D0008840D00204C150000E03D0008BC
:104CB00012000120050102030404000A310607085E
:104CC00009020406080001100634040040380412EA
:104CD0003C0412400C1334001011048017000069CA
:104CE0005A6400112BA41F1027DC05E803F401E827
:104CF0000320030A220101011150000720900158EE
:104D0000021405781123023001AE0311807F4BA1FC
:104D100087000DC7A555100AA55601FCA55702FE30
:104D2000F40123D505335001380105FF4405FF1C6C
:104D30000587180187F4064F05180589F015A305A6
:104D40002EA20D260C060D8D4403055F4C0EFF01AF
:104D500060040DAB60040D73D8070D2B79044C046F
:104D60008046C01F0902145608C004004E4010C2FD
:104D70005210F14051107D7709D251300E14519CE0
:104D80000481783006400202020304600404040433
:104D90000C011028012E788158C1E052249003158F
:104DA00054C09855007251C0F1940DFA80030EFF63
:0C4DB00001180A0D1C310C0D155A0B00E7
:0400000508000131BD
:00000001FF
