:020000040800F2
:10000000A80A002045010008690D0008210B00081E
:10001000850C0008EB0100082B1D00080000000003
:10002000000000000000000000000000DD120008D9
:10003000630400080000000089110008751500081D
:100040005F0100085F0100085F0100085F01000810
:100050005F0100085F010008650400085F010008F7
:10006000F90400085F0100088D0500085F01000821
:10007000F10100085F010008150200085F01000897
:100080005F0100083D0200085F0100085F010008F1
:100090005F0100085F0100085F01000821060008F9
:1000A0005F0100085F0100085F0100085F010008B0
:1000B0005F0100085F0100085F0100085F010008A0
:1000C0005F0100085F0100085F0100085F01000890
:1000D0005F010008791A0008B91A0008011B00081E
:1000E0005F0100085F0100085F0100085F01000870
:1000F0005F0100085F0100085F0100085F01000860
:100100005F0100085F0100085F0100085F0100084F
:100110005F0100085F010008711600089D160008C5
:100120005F0100085F0100085F0100085F0100082F
:10013000DFF80CD000F018F800480047A3200008B2
:10014000A80A00200648804706480047FEE7FEE769
:10015000FEE7FEE7FEE7FEE7FEE7FEE7FEE7FEE777
:10016000B915000831010008064C074D06E0E068AB
:1001700040F0010394E8070098471034AC42F6D3EE
:10018000FFF7DAFF7C2800089C28000870B58D185E
:1001900010F8014B14F0030201D110F8012B2311C8
:1001A00006D110F8013B03E010F8016B01F8016B78
:1001B000521EF9D1ABB110F8012B04F00C048A1ACD
:1001C0000C2C03D0A2EB84129B1C08E010F8014B0E
:1001D000A2EB0422F8E712F8014B01F8014B5B1E79
:1001E000F9D5A942D4D3002070BD00BFFEE70000BE
:1001F00010B5202000F0F6F848B1202000F032F8C9
:100200000021034800F03CF8032001F0F7FE10BD88
:100210001C00024010B54FF4005000F0E3F850B15C
:100220004FF4005000F01EF80021034800F028F8B9
:10023000012001F0E3FE10BD4400024010B54FF074
:10024000007000F0CFF850B14FF0007000F00AF8E5
:100250000021034800F014F8022001F0CFFE10BD89
:100260008000024000F0805111B10349086001E0B4
:100270000249486070470000040402400000024048
:1002800021B1026842F00102026004E002684FF608
:10029000FE731A400260704701684FF6FE7211400B
:1002A00001600021016041608160C1604B4988426A
:1002B00008D14A490839496841F00F01474A083ACC
:1002C00051608AE045491431884208D143490839D0
:1002D000496841F0F001414A083A51607DE03F49E8
:1002E0002831884208D13D490839496841F4706194
:1002F0003A4A083A516070E038493C31884208D1A6
:1003000036490839496841F47041344A083A516025
:1003100063E032495031884208D130490839496890
:1003200041F470212D4A083A516056E02B4964315E
:10033000884208D129490839496841F47001274A9F
:10034000083A516049E025497831884208D123496B
:100350000839496841F07061204A083A51603CE030
:100360001F49884206D1011F096841F00F01021F91
:10037000116032E01A491431884208D11849091F26
:10038000096841F0F001164A121F116025E0144976
:100390002831884208D11249091F096841F4706167
:1003A0000F4A121F116018E00D493C31884208D1F4
:1003B0000B49091F096841F47041094A121F116075
:1003C0000BE007495031884207D10549091F0968E8
:1003D00041F47021024A121F116070470800024068
:1003E0000804024001460020002201F0805313B1AE
:1003F000054B1A6801E0054B1A6802EA01030BB1CC
:10040000012000E00020704700040240000002408C
:100410001AB103680B43036002E003688B43036077
:10042000704710B50022026847F6F0739A430C6AD1
:100430008B6823430C6923434C6923438C69234312
:10044000CC6923434C6A23438C6A23431A430260DA
:10045000CB6843600B6883604B68C36010BD41602C
:100460007047704710B5012000F030F901282DD1F8
:1004700017488088174988801748808817498880DE
:1004800017480088124988801648808C1249888055
:10049000012000F015F914480079144988700221F0
:1004A000134800F056FA012808D012488068401E10
:1004B0001049886001200C49888007E00D48806859
:1004C000401C0C49886000200749888010BD00004E
:1004D00080010020780100207001002068010020C8
:1004E00066010020001000408C01002088010020DF
:1004F00000100140D404002010B5042000F0E6F8FC
:1005000001282DD11748C0881749C8801748C088CE
:100510001749C880174800881249C8801648808C3F
:100520001249C880042000F0CBF81448807914499F
:10053000C8700821134800F00CFA012808D01248AE
:10054000C068401C1049C86000200C49C88007E002
:100550000D48C068401E0C49C86001200749C8808A
:1005600010BD0000800100207801002070010020F3
:100570006801002066010020001000408C0100206E
:100580008801002000100140D404002010B5102084
:1005900000F09CF801282DD1174840881749488061
:1005A00017484088174948801748008812494880F2
:1005B0001648808C12494880102000F081F81448B9
:1005C0008078144948704021134800F0C2F901288E
:1005D00008D012484068401E1049486001200C496C
:1005E000488007E00D484068401C0C4948600020E6
:1005F0000749488010BD00008001002078010020DC
:1006000070010020680100206601002000100040F9
:100610008C0100208801002000100140D40400203B
:1006200010B5202000F052F801282DD1174800887D
:10063000174908801748008817490880174800881C
:10064000124908801648808C12490880202000F04A
:1006500037F814480078144908708021134800F0D6
:1006600078F9012808D012480068401C1049086039
:1006700000200C49088007E00D480068401E0C4926
:10068000086001200749088010BD0000800100209B
:100690007801002070010020680100206601002020
:1006A000001000408C010020880100200010014053
:1006B000D404002001490860704700001404014080
:1006C0000149086070470000140401400146002001
:1006D0000022074B1B6803EA0102054B14331B6819
:1006E0000B4013B10AB1012000E000207047000068
:1006F00000040140002123498279002A3AD00A46A9
:10070000126803689A430B461A600A1D1268036850
:100710009A430B1D1A60027911440A6803681A4350
:100720000A60184A0832126803689A43154B083366
:100730001A601A1D126803689A43124B0C331A6030
:100740004279102A0ED11A1F126803681A430D4B02
:1007500008331A601A1D126803681A43094B0C33D8
:100760001A600DE00749427911440A6803681A4388
:100770000A6005E0027911440A6803689A430A6036
:10078000704700000004014010B5134800780128AC
:100790000ED001230022114610A000F089FC012395
:1007A0000022194610A000F083FC01200A490870BD
:1007B0000123402200210F48007800F031FC0E4850
:1007C0000068C821B0FBF1F084B201233922194638
:1007D000204600F025FC10BDC1030020537973535F
:1007E000746174653A00000053797354696D653A19
:1007F00000000000C0030020B803002030B5002234
:100800008B071C0F0F2303FA04F20B4B8C1053F8C9
:1008100024309343084C8D1044F8253023468C1027
:1008200053F824308C07240F00FA04F42343024CBD
:100830008D1044F8253030BD080001402DE9F0410D
:10084000024600250026002000230024002791F8FE
:1008500003C00CF00F0591F803C00CF0100CBCF1B4
:10086000000F03D091F802C04CEA050591F800C0D2
:10087000BCF1000F31D0146800202BE04FF0010CC8
:100880000CFA00F3B1F800C00CEA03069E4220D136
:1008900083004FF00F0C0CFA03F7BC4305FA03FC7E
:1008A0004CEA040491F803C0BCF1280F06D14FF0C4
:1008B000010C0CFA00FCC2F814C00AE091F803C065
:1008C000BCF1480F05D14FF0010C0CFA00FCC2F846
:1008D00010C0401C0828D1D31460B1F800C0BCF18E
:1008E000FF0F34DD546800202EE000F1080C4FF0BB
:1008F000010808FA0CF3B1F800C00CEA03069E42A6
:1009000021D183004FF00F0C0CFA03F7BC4305FA1A
:1009100003FC4CEA040491F803C0BCF1280F05D194
:1009200000F1080C08FA0CF8C2F8148091F803C022
:10093000BCF1480F07D100F1080C4FF0010808FA8C
:100940000CF8C2F81080401C0828CED35460BDE8D3
:10095000F0810246002093680B400BB1012000E0BB
:1009600000207047416170470161704710B500BFBA
:1009700004210B4801F0DCF90028F9D100BF042163
:10098000084801F0D5F90028F9D100BF0421064834
:1009900001F0CEF90028F9D101F038FB10BD0000BC
:1009A000B9000020C1000020BD00002010B50421C6
:1009B000014801F0BDF910BDBD0000200246507A8B
:1009C000137A40EA032144F25060814202DDA1F52E
:1009D0007F41FF3905480068091A0A2091FBF0F0B1
:1009E000034B18601846006870470000CC000020D8
:1009F000C80000200EB50121084600F0E7FB3520B5
:100A0000019001208DF80A0000208DF808000820D0
:100A10008DF8090000210220FFF7F0FE02210846B0
:100A2000FFF7ECFE04210220FFF7E8FE052102207B
:100A3000FFF7E4FE01A8FFF75DFE01208DF803003B
:100A40008DF8010003208DF8020006208DF80000CB
:100A5000684600F08BF908208DF80000684600F029
:100A600085F90A208DF80000684600F07FF917200C
:100A70008DF80000684600F079F90120FFF71AFEB2
:100A80000420FFF717FE1020FFF714FE2020FFF7C9
:100A900011FE0EBD08B50121102000F097FB0420C7
:100AA0008DF80300FF20ADF8000069460148FFF70C
:100AB000C5FE08BD001001401FB50121102000F047
:100AC00075FB0020ADF80A00ADF806004EF65F2079
:100AD000ADF8080040F2CF20ADF8040000208DF8FA
:100AE0000C0001A90D4800F075FF012211460B48CA
:100AF00000F00AFE36208DF8000001208DF803007A
:100B000000208DF801008DF80200684600F02EF9F3
:100B10000121024800F0DBFD1FBD00000010004075
:100B200000BFFEE708B50121042000F04FFB1020B4
:100B30008DF803004FF4C050ADF8000003208DF88D
:100B4000020069460648FFF779FE4FF40061044849
:100B5000FFF70AFF4FF480510148FFF705FF08BD7A
:100B60000008014070B5044600251BE004F0800039
:100B700028B14FF480510D48FFF7F6FE04E04FF422
:100B800080510A48FFF7EEFE4FF400610748FFF777
:100B9000EBFE4FF400610548FFF7E4FE6006040E2B
:100BA000681CC5B2082DE1DB70BD000000080140E3
:100BB00010B54FF480510948FFF7D6FE4FF400619D
:100BC0000648FFF7D1FE4FF480510448FFF7CAFEF4
:100BD0004FF400610148FFF7C5FE10BD0008014059
:100BE00010B54FF480510748FFF7BEFE4FF4006187
:100BF0000448FFF7B7FE4FF400610248FFF7B4FE68
:100C000010BD00000008014010B54FF40061044819
:100C1000FFF7AAFE4FF400610148FFF7A3FE10BDE5
:100C200000080140014699B100200EE0114A32F857
:100C30001020114B53F820301A800E4A32F8102041
:100C40000E4B23F81020421CD0B20528EEDB0FE03B
:100C500000200BE007220A4B23F81020054A32F847
:100C60001020064B23F81020421CD0B20528F1DBDF
:100C700070470000EA020020C8020020F4020020B1
:100C8000FE02002000BFFEE708B50121082000F0A9
:100C90009DFA18208DF8030003208DF802004FF410
:100CA0007070ADF8000069460148FFF7C7FD08BD48
:100CB000000C014010B500F0BFFCFFF7E5FF00F0AD
:100CC00007F8FFF7E7FEFFF795FEFFF7F5FE10BD0B
:100CD00000B587B00121042000F068FA0020ADF8CB
:100CE0001600ADF8120041F61F40ADF814000020C8
:100CF000ADF810008DF8180004A91A4800F06AFE3B
:100D00006020ADF800000020ADF808000120ADF82B
:100D100002000020ADF806006946124800F0FEFC13
:100D20006946104800F050FD69460E4800F0ACFDE1
:100D300069460C4800F002FE08210A4800F03AFD1E
:100D40000821084800F092FD0821064800F0ECFD5B
:100D50000821044800F030FE0121024800F0B7FCF1
:100D600007B000BD000800407047000070B50021CA
:100D700000230F22C47804B3154C246804F4E06403
:100D8000C4F5E064210AC1F10403CA40447804FABE
:100D900003F184781440214309010E4C0678A155D3
:100DA000047804F01F050124AC4005786D11AD00F6
:100DB00005F1E025C5F8004109E0047804F01F05BD
:100DC0000124AC40044D0678761145F8264070BDEC
:100DD0000CED00E000E400E080E100E002490143A6
:100DE000024A1160704700000000FA050CED00E0B7
:100DF00070B500240FE00021204600F083F80025A4
:100E000005E00121002000F098F8681CC5B2802D93
:100E1000F7DB601CC4B2082CEDDB70BD10B50021FF
:100E2000AE2000F08AF80021084600F086F8002184
:100E3000102000F082F80021402000F07EF8002110
:100E4000812000F07AF80021CF2000F076F8002110
:100E5000A12000F072F80021C82000F06EF80021F7
:100E6000A62000F06AF80021A82000F066F8002112
:100E70003F2000F062F80021D32000F05EF800214E
:100E8000084600F05AF80021D52000F056F800215D
:100E9000802000F052F80021D92000F04EF8002107
:100EA000F12000F04AF80021DA2000F046F8002195
:100EB000122000F042F80021DB2000F03EF8002173
:100EC000402000F03AF80021202000F036F8002100
:100ED000022000F032F800218D2000F02EF80021D1
:100EE000142000F02AF80021A42000F026F80021A8
:100EF000A62000F022F80021AF2000F01EF8FFF736
:100F000077FF10BD70B505460C46072D01DC7F2C20
:100F100000DD70BD05F1B001C8B2002100F00DF890
:100F200004F00F00002100F008F8102101EB14106C
:100F3000002100F002F800BFEBE770B505460C4653
:100F4000FFF736FE7820FFF70DFEFFF75DFE1CB1C0
:100F50004020FFF707FE02E00020FFF703FEFFF747
:100F600053FE2846FFF7FEFDFFF74EFEFFF738FE63
:100F700070BD00002DE9F04105460E461746984623
:100F800039463046FFF7BEFF202D42DB7A2D40DC8C
:100F9000B8F1010F03D0B8F1020F38D111E00024ED
:100FA0000CE0A5F1200101EB41011B4A02EB4101DC
:100FB000085D0121FFF7C1FF601CC4B2062CF0DB05
:100FC00026E000240AE0A5F12001144A02EB0111F9
:100FD000085D0121FFF7B1FF601CC4B2082CF2DBF1
:100FE000711CC8B23946FFF78DFF00240CE0A5F153
:100FF00020010A4A02EB011204F10801505C0121B0
:10100000FFF79BFF601CC4B2082CF0DB00E000BFC0
:1010100000BFBDE8F0810000AA200008CC22000833
:101020002DE9FF5F064691469A46BAF1010F03D0BB
:10103000BAF1020F06D102E04FF0070803E04FF0CB
:10104000090800E000BF00BF37460A2409E00A2073
:1010500097FBF0F087B204EB84004FF6FF7101EAD2
:101060004004002FF3D1642094FBF0F084B24D468D
:1010700019E096FBF4F00A2190FBF1F201FB12005B
:1010800000F0FF0B0BF13001C8B253462A4601991C
:10109000FFF770FF0A2094FBF0F084B204B904E07B
:1010A00005EB0800C5B27F2DE3DB00BFBDE8FF9F65
:1010B0002DE9F0470446894617469846B8F1010FD6
:1010C00003D0B8F1020F04D101E0072602E009269F
:1010D00000E000BF00BF3D460BE0207843462A46B3
:1010E0004946FFF747FF641C207800B903E0A819C0
:1010F000C5B27F2DF1DB00BFBDE8F0874FF4A060E3
:10110000FFF76CFE48210A2000F004FA00F036FEDA
:1011100000F0D4FE00F088F9FFF7CCFDFFF726FCC5
:10112000FFF700FDFFF77AFE012000F075FA134982
:10113000B1F1807F00D31DE021F07F40401E4FF0D1
:10114000E022506150170F22002807DA13071D0E06
:101150000B4B00F00F04241F1D5503E013071C0E5A
:10116000084B1C5400BF00204FF0E0229061072084
:10117000106100BF01E000F059FAFCE7407E050075
:1011800018ED00E000E400E07047000029B1064AD5
:1011900052690243044B5A6104E0034A5269824394
:1011A000014B5A61704700000010024029B1064A05
:1011B000D2690243044BDA6104E0034AD2698243F4
:1011C000014BDA61704700000010024029B1064A65
:1011D00092690243044B9A6104E0034A9269824394
:1011E000014B9A61704700000010024030B50021A9
:1011F0000022002400232D4D6D6805F00C0121B163
:10120000042905D0082923D105E0294D056022E0F5
:10121000274D05601FE0254D6D6805F47012234DC4
:101220006D6805F48034022505EB92421CB9214D0E
:10123000554305600BE01D4D6D6805F400351DB18B
:101240001C4D5543056002E0194D5543056002E011
:10125000174D056000BF00BF144D6D6805F0F0012B
:101260000909154D6B5C0568DD4045600F4D6D68E3
:1012700005F4E061090A104D6B5C4568DD4085604E
:101280000A4D6D6805F46051C90A0B4D6B5C4568E9
:10129000DD40C560054D6D6805F44041890B074D83
:1012A0006B5CC568B5FBF3F5056130BD001002400D
:1012B00000127A0000093D0000000020100000200C
:1012C0000148006870470000BC0300200146481E2A
:1012D000014A02EB8010704754050020704710B59A
:1012E00000F002F810BD00000CB500200190009045
:1012F0003348006840F480303149086000BF30480E
:10130000006800F4003000900198401C01900098A3
:1013100018B90198B0F5A06FF1D12948006800F420
:10132000003010B10120009001E0002000900098F2
:10133000012843D12348006840F01000214908608B
:101340000846006820F0030008600846006840F086
:10135000020008601A484068194948600846406819
:1013600048600846406840F480604860084640682D
:1013700020F47C1048600846406840F4E81048605B
:101380000846006840F08070086000BF0C480068A4
:1013900000F000700028F9D00948406820F00300F0
:1013A000074948600846406840F00200486000BFB6
:1013B0000348406800F00C000828F9D10CBD00007B
:1013C000001002400020024010B50120FFF77EFF10
:1013D0000446207810B103200149087010BD0000B8
:1013E000C003002008B501210420FFF7EFFE012112
:1013F0000820FFF7EBFE18208DF8030003208DF87E
:101400000200C320ADF8000069460548FFF716FA50
:101410000320ADF8000069460248FFF70FFA08BD47
:1014200000080140000C014010B5FFF7DBFF00F0A1
:1014300005F80120FFF7F6FB10BD000000B587B0EE
:1014400001210846FFF7B2FE01210220FFF7AEFEA0
:101450000020ADF81600ADF8120044F61F60ADF89C
:1014600014004720ADF8100000208DF8180004A9E2
:101470004FF0804000F0AEFA04A9254800F0AAFA27
:101480006020ADF800000020ADF808000120ADF8A4
:1014900002000020ADF8060069464FF0804000F0E1
:1014A0003DF969464FF0804000F08EF969461848D2
:1014B00000F034F96946164800F086F96946144888
:1014C00000F0E2F96946124800F038FA0821C8062F
:1014D00000F070F90821C80600F0C8F908210C488E
:1014E00000F068F908210A4800F0C0F9082108480E
:1014F00000F01AFA0821064800F05EFA0121880778
:1015000000F0E5F80121024800F0E1F807B000BD65
:10151000000400407FB504460D4601212020FFF75E
:1015200045FE0020ADF80A00ADF80600ADF8045005
:10153000ADF808408DF80C0001A90D4800F04AFAFA
:10154000012211460A4800F0DFF837208DF800002C
:1015500001208DF8030000208DF801008DF80200B5
:101560006846FFF703FC0121014800F0B0F87FBD99
:101570000014004000B50D480068401C0B4908608D
:1015800000200B4908600B480078012804D002288D
:1015900003D0032803D101E005E004E003E00120CB
:1015A00000F03AF800BF00BF00BD0000B803002003
:1015B000BC030020C003002010B51348006840F0B1
:1015C00001001149086008464068104908400E496A
:1015D0004860084600680E4908400B490860084604
:1015E000006820F4802008600846406820F4FE006F
:1015F00048604FF41F008860FFF771FE4FF00060F5
:101600000449086010BD0000001002400000FFF80F
:10161000FFFFF6FE08ED00E00146052901DA024869
:101620000170014800787047C003002010B5FFF733
:10163000ABF8FFF7C9FE10BD08B501211020FFF778
:10164000C5FD10208DF8030003208DF802004FF433
:101650007F40ADF8000069460448FFF7EFF84FF40B
:101660007F410248FFF77EF908BD000000100140ED
:1016700010B50121074800F036F8012808D10648C6
:101680000088401C044908800121024800F01CF831
:1016900010BD0000001000406601002010B50121BF
:1016A000074800F020F8012808D106480068401CCF
:1016B000044908600121024800F006F810BD00004E
:1016C00000140040BC030020CA430282704721B1CD
:1016D000028842F00102028004E002884FF6FE73A5
:1016E0001A400280704730B50246002000230024D3
:1016F000158A05EA0103958905EA010413B10CB1C5
:10170000012000E0002030BD1AB183890B438381A2
:1017100002E083898B4383817047000070B5002409
:1017200000220023058C4FF6FE7635400584028C9E
:101730008388048B4FF68F752C40B51E2C400D8886
:101740002C43751E2A400D892A434D882A43144D87
:10175000A8420BD0134DA84208D0134DA84205D083
:10176000124DA84202D0124DA84213D14FF6F77580
:101770002A404D892A434FF6FB752A408D882A431B
:101780004FF6FF652B404FF6FF552B408D892B43BD
:10179000CD892B4383800483CD888586028470BDE8
:1017A000002C014000340140004001400044014051
:1017B000004801400A460021018B4FF6F77319409B
:1017C000114301837047000070B5002400220023FC
:1017D000058C4FF6EF7635400584028C8388048BA8
:1017E00048F6FF752C404FF6FF452C400D884FF60C
:1017F000FF7606EA05252C434FF6DF752A400D8952
:1018000006EA05152A434D8806EA05152A43154DB3
:10181000A84202D0144DA8421DD14FF67F752A4030
:101820004D894FF6FF7606EA05152A434FF6BF7538
:101830002A408D8806EA05152A434FF6FF352B40CE
:101840004FF2FF752B408D8906EA85052B43CD8924
:1018500006EA85052B4383800483CD8805870284AF
:1018600070BD0000002C0140003401400A460021F8
:10187000018B4FF2FF7319404FF6FF7303EA022307
:10188000194301837047000070B500240022002333
:10189000058C4FF6FF6635400584028C8388848B67
:1018A0004FF68F752C404FF6FC752C400D882C435D
:1018B0004FF6FF552A400D894FF6FF7606EA0525BB
:1018C0002A434D8806EA05252A43154DA84202D031
:1018D000144DA8421DD14FF2FF752A404D894FF695
:1018E000FF7606EA05252A434FF6FF352A408D8804
:1018F00006EA05252A434EF6FF752B404DF6FF7587
:101900002B408D8906EA05152B43CD8906EA05157E
:101910002B4383808483CD888587028470BD00003B
:10192000002C0140003401400A460021818B4FF613
:10193000F7731940114381837047000070B500228E
:1019400000230024058C4EF6FF7635400584038C79
:101950008488828B48F6FF752A404FF6FF452A405F
:101960000D884FF6FF7606EA05252A434DF6FF75EA
:101970002B400D8906EA05352B434D8806EA0535CF
:101980002B430B4DA84202D00A4DA84208D14BF67A
:10199000FF752C408D894FF6FF7606EA85152C439E
:1019A00084808283CD88A0F84050038470BD0000FD
:1019B000002C0140003401400A460021818B4FF287
:1019C000FF7319404FF6FF7303EA02231943818323
:1019D00070470000002202881D4B98420ED01D4B1C
:1019E00098420BD0B0F1804F08D01B4B984205D0E5
:1019F0001A4B984202D01A4B984204D14FF68F737B
:101A00001A404B881A43174B984207D0164B9842FE
:101A100004D04FF6FF431A40CB881A4302808B88CC
:101A200083850B8803850A4B98420BD0094B98425B
:101A300008D00E4B984205D00D4B984202D00D4B6A
:101A4000984201D10B7A03860123838270470000FC
:101A5000002C014000340140000400400008004018
:101A6000000C004000100040001400400040014005
:101A7000004401400048014010B540F225510C4897
:101A800000F092F898B10B4804780078401C09499E
:101A900008703F2C06D0064800F042F9C1B2054A52
:101AA000601C115440F22551014800F059F810BD56
:101AB000003801405405002010B540F225510E4871
:101AC00000F072F8B8B10D4890F8404090F840002E
:101AD000401C0A4981F840003F2C07D0064800F01E
:101AE0001FF9C2B205484030611C425440F22551F2
:101AF000014800F035F810BD0044004054050020B6
:101B000010B540F22551144800F04EF810B31348B8
:101B100090F8804090F88000401C104981F88000C7
:101B20000D4800F0FDF8C2B20C488030611C4254F0
:101B3000803890F880000B2807D10020074981F8F1
:101B4000800001F18100FEF739FF40F22551024883
:101B500000F006F810BD00000048004054050020C9
:101B600010B50022002340F66A14A14200D100BF44
:101B70000A1201249440A3B2DC43048010BD21B1B9
:101B8000828942F40052828104E082894DF6FF731B
:101B90001A40828170471AB1838A0B43838202E024
:101BA000838A8B438382704770B5024600240023EA
:101BB0000025002040F66A16B14200D100BFC1F3F3
:101BC000421501F01F03012606FA03F3012D02D18D
:101BD0009689334006E0022D02D1168A334001E097
:101BE000968A33400C12012606FA04F41688344013
:101BF00013B10CB1012000E0002070BDF0B5034628
:101C0000002400260025002040F66A17B94200D1C2
:101C100000BF1846C1F3421401F01F06012707FA5E
:101C200006F5012C01D10C3004E0022C01D110305A
:101C300000E014301AB107682F43076002E007681C
:101C4000AF430760F0BD00002DE9F04786B00546C0
:101C50000E460024A24600BFA1460027B08900B16D
:101C600000BF2F462C8A4CF6FF700440F0880443D6
:101C70002C82AC894EF6F3100440B08831890843B9
:101C8000718908430443AC81AC8A4FF6FF4004409D
:101C9000B0890443AC8201A8FFF7A8FA1F48874225
:101CA00002D1DDF810A001E0DDF80CA0A88900F455
:101CB000004040B10AEBCA0000EB0A10316849004D
:101CC000B0FBF1F807E00AEBCA0000EB0A1031683C
:101CD0008900B0FBF1F86420B8FBF0F004012009A2
:101CE000642101FB1089A88900F4004040B1322032
:101CF00000EBC900B0FBF1F000F00700044308E07E
:101D0000322000EB09106421B0FBF1F000F00F006D
:101D100004432C8106B0BDE8F08700000038014084
:101D200001468888C0F30800704700BFFEE7000046
:101D300070B505460E460E488078B0B901200C49B2
:101D40008870002405E028780A4908556D1C601C3D
:101D5000C4B2B442F7DB31460748FEF780FB0121ED
:101D60000548FEF78DFA002070BD0120FCE7000059
:101D700049020020740600201C00024000B587B014
:101D800001210420FFF722FA01210820FFF71EFAA3
:101D900018208DF80B0003208DF80A004FF4017015
:101DA000ADF8080002A94048FEF748FD4FF48060F6
:101DB000ADF8080002A93D48FEF740FD04208DF86B
:101DC0000B004FF48160ADF8080002A93648FEF719
:101DD00035FD4FF40060ADF8080002A93348FEF766
:101DE0002DFD4FF4E13003900020ADF818000C20D9
:101DF000ADF816000020ADF81400ADF81200ADF8F3
:101E0000100001218803FFF7E1F901214804FFF7E1
:101E1000CDF901218804FFF7C9F903A92448FFF788
:101E200013FF03A92348FFF70FFF03A92248FFF779
:101E30000BFF01208DF8070002208DF8050001201E
:101E40008DF8060025208DF8040001A8FEF78EFF0E
:101E500026208DF8040001A8FEF788FF27208DF8C2
:101E6000040001A8FEF782FF012240F2255110482C
:101E7000FFF7C4FE012240F225510E48FFF7BEFED7
:101E8000012240F225510C48FFF7B8FE0121084815
:101E9000FFF775FE01210748FFF771FE0121064893
:101EA000FFF76DFE07B000BD00080140000C0140C7
:101EB00000380140004400400048004000B58DB0AB
:101EC00001210846FFF762F90020059010200490D8
:101ED00000200C9009908020079000200A90089024
:101EE00006904FF400500B9001208DF805008DF8FE
:101EF00006000E208DF8040001208DF8070001A8CF
:101F0000FEF734FF11208DF8040001208DF8070042
:101F100001A8FEF72BFF0C208DF8040001208DF89E
:101F2000070001A8FEF722FF2D4803902D480290DC
:101F300040140B902C48FEF7AFF94FF48050FEF799
:101F400091F9012202212848FEF762FA02A92648E7
:101F5000FEF767FA254803902548029040140B903D
:101F600021483C30FEF798F94FF08070FEF77AF97F
:101F7000012202211C483C30FEF74AFA02A91A4805
:101F80003C30FEF74EFA1B4803901B480290401469
:101F90000B9015482838FEF77FF91020FEF762F9FC
:101FA0000122022110482838FEF732FA02A90E4811
:101FB0002838FEF736FA012280210A48001FFFF771
:101FC000EAFD012280210A48001FFFF7E4FD0122FB
:101FD00080210948001FFFF7DEFD0DB000BD0000A5
:101FE000140600200438014044000240440600204A
:101FF0000444004074060020044800400022411EB2
:10200000014B5A54704700004902002010B5FFF7F9
:1020100057F90446FEF7CAFC20E0FFF751F91449CE
:102020000968401AB0F5FA7F18D9FFF749F9104945
:1020300008601048006810490968884203D00020F1
:102040000E49087004E00D480078401C0B490870E8
:102050000948006807490860FEF7A8FC07480078AF
:102060006428DAD1044800680549086010BD000002
:10207000D8000020D4000020C8000020D00000209C
:10208000CC00002002E008C8121F08C1002AFAD1C3
:1020900070477047002001E001C1121F002AFBD1E8
:1020A0007047FFF72BF800BFFEE7000000000000BC
:1020B0000000002F000000000700070000147F143C
:1020C0007F1400242A7F2A1200626408132300363A
:1020D0004955225000000503000000001C22410069
:1020E000000041221C000014083E08140008083EAD
:1020F0000808000000A060000008080808080000A8
:1021000060600000002010080402003E5149453E76
:102110000000427F40000042615149460021414594
:102120004B31001814127F10002745454539003CFB
:102130004A494930000171090503003649494936C9
:1021400000064949291E00003636000000005636B8
:10215000000000081422410000141414141400009C
:102160004122140800020151090600324959513E2A
:10217000007C1211127C007F49494936003E4141E2
:102180004122007F4141221C007F49494941007F93
:1021900009090901003E4149497A007F0808087F82
:1021A0000000417F4100002040413F01007F0814B2
:1021B0002241007F40404040007F020C027F007FB0
:1021C0000408107F003E4141413E007F0909090695
:1021D000003E4151215E007F0919294600464949C8
:1021E00049310001017F0101003F4040403F001F95
:1021F0002040201F003F4038403F00631408146314
:1022000000070870080700615149454300007F41FD
:10221000410000552A552A55000041417F00000425
:10222000020102040040404040400000010204005E
:10223000002054545478007F4844443800384444C3
:10224000442000384444487F00385454541800084F
:102250007E0901020018A4A4A47C007F080404786D
:102260000000447D4000004080847D00007F1028F5
:1022700044000000417F4000007C04180478007C8A
:102280000804047800384444443800FC242424180A
:102290000018242418FC007C080404080048545446
:1022A000542000043F444020003C4040207C001C5F
:1022B0002040201C003C4030403C00442810284472
:1022C000001CA0A0A07C004464544C44000000000A
:1022D000000000000000000000000000000000F806
:1022E00000000000000000333000000000100C0669
:1022F000100C0600000000000000000040C0784004
:10230000C0784000043F04043F040400007088FCCF
:1023100008300000001820FF211E0000F008F00027
:10232000E018000000211C031E211E0000F0088898
:10233000700000001E2123241927211010160E0002
:10234000000000000000000000000000000000E0AD
:1023500018040200000000071820400000020418C2
:10236000E00000000040201807000000404080F01E
:10237000804040000202010F01020200000000F054
:10238000000000000101011F010101000000000028
:102390000000000080B0700000000000000000009D
:1023A0000000000000010101010101010000000026
:1023B00000000000003030000000000000000000BD
:1023C00080601804006018060100000000E010089A
:1023D0000810E000000F102020100F00001010F86F
:1023E000000000000020203F2020000000700808AE
:1023F000088870000030282422213000003008882E
:10240000884830000018202020110E000000C02055
:1024100010F8000000070424243F240000F8088876
:10242000880808000019212020110E0000E0108803
:1024300088180000000F112020110E000038080835
:10244000C83808000000003F000000000070880845
:1024500008887000001C222121221C0000E01008C6
:102460000810E0000000312222110F00000000C01F
:10247000C0000000000000303000000000000080BC
:1024800000000000000080600000000000008040AC
:1024900020100800000102040810200040404040C5
:1024A0004040400004040404040404000008102018
:1024B000408000000020100804020100007048085D
:1024C0000808F0000000003036010000C030C828C5
:1024D000E810E0000718272423140B000000C03880
:1024E000E0000000203C23020227382008F88888FA
:1024F00088700000203F202020110E00C030080806
:1025000008083800071820202010080008F80808DC
:102510000810E000203F202020100F0008F88888D5
:10252000E8081000203F20202320180008F88888A1
:10253000E8081000203F200003000000C030080819
:102540000838000007182020221E020008F80800A2
:102550000008F808203F210101213F20000808F869
:10256000080800000020203F20200000000008088C
:10257000F8080800C08080807F00000008F888C04C
:1025800028180800203F20012638200008F80800FD
:1025900000000000203F20202020300008F8F80034
:1025A000F8F80800203F003F003F200008F830C046
:1025B0000008F808203F200007183F00E010080836
:1025C0000810E0000F10202020100F0008F8080865
:1025D0000808F000203F210101010000E010080878
:1025E0000810E0000F18242438504F0008F888889D
:1025F00088887000203F2000030C3020007088087D
:10260000080838000038202121221C00180808F88A
:10261000080818000000203F2000000008F808000B
:102620000008F808001F202020201F0008788800DC
:1026300000C83808000007380E010000F80800F84C
:102640000008F800033C0700073C030008186880F6
:102650008068180820302C03032C30200838C8006C
:10266000C83808000000203F2000000010080808BB
:10267000C83808002038262120201800000000FE5D
:10268000020202000000007F40404000000C30C009
:1026900000000000000000010638C0000002020235
:1026A000FE000000004040407F00000000000402E7
:1026B0000202040000000000000000000000000012
:1026C0000000000080808080808080800002020402
:1026D00000000000000000000000000000008080FA
:1026E000808000000019242222223F2008F8008068
:1026F00080000000003F112020110E00000000802B
:1027000080800000000E11202020110000000080B9
:102710008088F800000E112020103F2000008080EB
:1027200080800000001F222222221300008080F0FF
:10273000888888180020203F20200000000080802A
:1027400080808000006B94949493600008F800806F
:1027500080800000203F210000203F2000809898CA
:10276000000000000020203F20200000000000802A
:102770009898000000C08080807F000008F800006A
:1027800080808000203F24022D302000000808F8BF
:10279000000000000020203F20200000808080807A
:1027A00080808000203F20003F20003F808000800C
:1027B00080800000203F210000203F20000080801A
:1027C00080800000001F202020201F0080800080CB
:1027D0008000000080FFA12020110E00000000807A
:1027E00080808000000E112020A0FF80808080006B
:1027F0008080800020203F21200001000000808098
:10280000808080000033242424241900008080E08C
:10281000808000000000001F202000008080000059
:1028200000808000001F202020103F20808080003A
:102830000080808000010E3008060100808000804A
:10284000008080800F300C030C300F00008080006F
:10285000808080000020312E0E312000808080009A
:102860000080808080818E7018060100008080804A
:10287000808080000021302C222130009C2800081C
:1028800000000020C40300008C0100080C2900088F
:10289000C4030020E4060000942000081200012078
:1028A000050102030404000A3106070809020406B0
:1028B0000800011006340400403804123C041240A1
:1028C0000C1334001011048015965A5A00E457A4D2
:1028D0001FA41FE7099D039001BA092C010A4303B5
:1028E000000202300671000D81A555100AA556019F
:1028F000FCA55702FE9801258F01530101E2E40572
:0C2900001EEF096F8005897800000000C0
:0400000508000131BD
:00000001FF
