:020000040800F2
:10000000681E002045010008ED1800087115000861
:1000100009180008CD0A00082B2C00080000000079
:10002000000000000000000000000000DD200008CB
:10003000FB0E000800000000211C0008112400082D
:100040005F0100085F0100085F0100085F01000810
:100050005F0100085F010008190F00085F01000838
:10006000AD0F00085F010008411000085F010008A3
:10007000890C00085F010008AD0C00085F01000852
:100080005F010008D50C00085F0100085F0100084F
:100090005F0100085F0100085F010008D51000083B
:1000A0005F0100085F0100085F0100085F010008B0
:1000B0005F0100085F0100085F0100085F010008A0
:1000C0005F0100085F0100085F0100085F01000890
:1000D0005F01000879290008B9290008012A0008F1
:1000E0005F0100085F0100085F0100085F01000870
:1000F0005F0100085F0100085F0100085F01000860
:100100005F0100085F0100085F0100085F0100084F
:100110005F0100085F010008F92400082525000898
:100120005F0100085F0100085F0100085F0100082F
:10013000DFF80CD000F06AFC00480047CD3500081D
:10014000681E00200648804706480047FEE7FEE795
:10015000FEE7FEE7FEE7FEE7FEE7FEE7FEE7FEE777
:100160004D240008310100082DE9F0410024061B50
:10017000254671F1000605DA01240027D0EB0700BF
:1001800067EB0101161E73F1000605DA0027D2EBBA
:100190000702012567EB030300F0DAFA86460E46F4
:1001A00017469C46AC4204D00025D0EB050E65EB0B
:1001B000010624B10020D2EB000760EB030C70466F
:1001C00031463A466346BDE8F081F0B480EA010268
:1001D000D40F4200B2EB410F02D20246084611464C
:1001E0004A0042D0C30DDDB2C1F3C752AD1A202D73
:1001F00035DAC1F3160141F4000204B15242C5F1EF
:10020000200602FA06F12A411044B3EBD05F23D056
:10021000C4B1012DA0EBC35009DCF0BC4FF000428B
:1002200002EAC352DBB200F5000000F0FCBA400065
:1002300000F1807000EBC350A0F1807040EAD170F3
:10024000490009E0490841EAC071A0EBC35000F53C
:100250000000400800EBC350F0BC00F0DBBA614284
:10026000012202EB4101001BF6E7F0BC704781F070
:100270000041AAE780F00040A7E780EA010210B53C
:1002800002F00043400022D04A001FD0010E01EBD3
:100290001261C0F35600C2F3560240F4000042F46B
:1002A0000002A0FB022000047F39140400D0401C8F
:1002B00050EA124001D44000491EC2B20C0604EBC1
:1002C000D010401C4008802A02D003E0002010BD5E
:1002D00020F00100002900DA0020184310BD2DE9AC
:1002E000FE4F804681EA0300C00F0C46009021F0CB
:1002F000004123F00045B8EB0200A94105D2404679
:10030000214690461C460B46024623F0004010430F
:1003100047D0270DC7F30A00C3F30A510290401AD1
:10032000019040286BDAC3F3130040F4801B00985F
:10033000924620B10023D2EB030A63EB0B0B01982A
:100340005946C0F14002504600F033FA06460D46C9
:1003500050465946019A00F04BFA10EB08006141F3
:10036000002487EA115284EAE7731A4340D0009AC6
:1003700062B3019A012A4FEA075215DC001B61EBB8
:1003800002014FF0004202EA0752CDE90042001C90
:1003900041F5801132462B4600F082FA03B0BDE8E9
:1003A000F08F40462146F9E7001B61EB0201001C7B
:1003B00041F5801300185B412018A2F5001747EBA8
:1003C000030140EAD570B6196D4111E06D084FEA9E
:1003D000360645EAC0754FEA0752001B61EB020181
:1003E000001C41F5801149084FEA300000195141C5
:1003F00032462B4603B0BDE8F04F00F042BA0098F9
:10040000012240000023D0EB020263EBE07300986E
:1004100021464FEAE074B8EB000061EB0401E9E724
:1004200083F000435BE781F0004158E72DE9FE4F80
:1004300081EA030404F0004421F0004100944FF0ED
:10044000000B23F0004350EA01045ED052EA03049B
:100450005BD0C3F30A54C1F30A552C44A4F2F3341D
:100460000194A0FB0254C1F3130141F48011C3F3C2
:10047000130343F4801301FB024400FB034E840A80
:10048000970A44EA815447EA8357A4FB0768029518
:100490008D0A05FB07854FEA932C04FB0C542705B6
:1004A000029D4FEA065847EA1637B5EB08056EEB92
:1004B000070C870E920E47EA811742EA8312A7FBC8
:1004C0000201B6EB0B0164EB00042B0D43EA0C3385
:1004D0005E1844EB1C50DA465146E7FB0201C5F3B7
:1004E00013044FEA0B3343EA14534FEA0432019CDE
:1004F00043EA0603A4F10C040294009CCDE900B485
:1005000000F0CEF903B0BDE8F08F00200146F9E716
:100510002DE9F04D81EA030404F0004B21F0004581
:1005200014464FF0000A23F0004150EA050220D0A3
:1005300054EA01021DD0C5F30A570246C5F313035E
:10054000C1F31300C1F30A5640F4801543F480133D
:10055000A7EB0608101BD64608F2FD3873EB050022
:1005600002D308F1010801E092185B41B8F1000FD5
:1005700003DA00200146BDE8F08D00204FF4801121
:10058000064684460EE0171B73EB050705D3121BC6
:1005900063EB050306434CEA010C49084FEA3000BF
:1005A00092185B4150EA0107EDD152EA030012D0E4
:1005B00082EA040083EA0501084305D0101BAB4121
:1005C00006D20122002306E000224FF0004302E0A1
:1005D0006FF0010253101AEB06004CEB085110EBC0
:1005E0000A0041EB0B01BDE8F04D00F04AB9C10F24
:1005F00080EAE0700844CA079623002100F013B98E
:100600000EB5C10F80EAE0700844CA07002140F22D
:1006100033438DE80E000A460B4600F041F903B063
:1006200000BD0EB540F2334102910021CDE9001129
:100630000A460B4600F034F903B000BD00F000425A
:1006400020F00040C10DC0F3160040F400007F29E7
:1006500001DA00207047962903DCC1F19601C840F9
:1006600001E096398840002AF4D04042704770B5C6
:10067000C1F30A5201F000450024C1F3130140F216
:10068000FF3341F480119A4201DA002070BD40F23C
:1006900033439A42A2F2334203DC524200F098F80C
:1006A00000E090402C43F1D0404270BDC1F30A52AB
:1006B00010B5C1F3130140F2FF3341F480119A42A7
:1006C00001DA002010BD40F233439A42A2F23342D5
:1006D00003DC524200F07CF810BD904010BD00F0E9
:1006E000004230F000400AD0C10D01F56071C0F346
:1006F000160042EA0151C20840071143704700202A
:100700000146704701F0004330B421F0004150EA47
:10071000010206D00A0DA2F56072C1F31301002A8E
:1007200002DC30BC00207047440F44EAC104C10021
:10073000E01830BC00EBC25000F06CB8002801DBC0
:10074000C0F10040002901DBC1F100418142704746
:100750002DE9F05F0546002092469B4688460646F6
:10076000814640241BE0284641464746224600F089
:100770002FF853465A46C01A914110D311461846D5
:10078000224600F016F82D1A67EB01084F46224664
:100790000120002100F00DF817EB00094E41201E4A
:1007A000A4F10104DFDC484631462A464346BDE851
:1007B000F09F202A04DB203A00FA02F10020704763
:1007C0009140C2F1200320FA03F31943904070478F
:1007D000202A04DB203A21FA02F00021704721FA96
:1007E00002F3D040C2F120029140084319467047FD
:1007F000202A06DBCB17203A41FA02F043EAE073E5
:1008000006E041FA02F3D040C2F1200291400843D1
:10081000194670470029A8BF7047401C490008BF0F
:1008200020F00100704710B4B0FA80FC00FA0CF020
:1008300050EA010404BF10BC704749B1CCF1200458
:1008400021FA04F411FA0CF118BF012121430843E5
:10085000A3EB0C01CB1D4FEA00614FEA102042BF11
:10086000002010BC704700EBC35010440029A4BF07
:1008700010BC7047401C490008BF20F0010010BCAC
:10088000704710B5141E73F1000408DA401C41F1E2
:10089000000192185B411A4301D120F0010010BD04
:1008A0002DE9F04D92469B4611B1B1FA81F202E07A
:1008B000B0FA80F220329046FFF77BFF04460F46E5
:1008C00040EA0A0041EA0B0153465A46084313D056
:1008D000114653EA010019D0C8F140025046FFF713
:1008E00077FF05460E46504659464246FFF761FFE0
:1008F000084305D0012004E020463946BDE8F08DCC
:100900000020054346EAE0762C4337430A98630506
:10091000E40AA0EB08000022FD0A44EA47540A302A
:1009200002D500200146E9E7010510196941DDE91A
:10093000084500196941BDE8F04DA2E770B521F006
:10094000004303430CD0C1F30A550024D5EB040542
:1009500064EB0403D617AD1AB34102DB0020014655
:1009600070BD201841EB025170BD2DE9F04D002300
:100970001A461B1A8A4103DB00200146BDE8F08DB0
:10098000C1F30A52C1F3130141F480154FF0000B7B
:10099000D10702D100186D41521E0027044640F2D3
:1009A000FF11384601EB620A3E46804602460020AF
:1009B0004FF48011FFF70CFFC2197141BB1846EBD1
:1009C0000100B4EB030C75EB000C04D3E41A65EBE7
:1009D000000517460E46241908F101006D418046B6
:1009E0003428E3DDF91946EB0600091BA84103D2C0
:1009F0004FF0FF32134601E0002213461BEB0700C5
:100A000046EB0A51BDE8F04DFFF73BBF064C074DE2
:100A100006E0E06840F0010394E8070098471034CE
:100A2000AC42F6D3FFF788FB1037000830370008D8
:100A300070B58D1810F8014B14F0030201D110F8B5
:100A4000012B231106D110F8013B03E010F8016BD4
:100A500001F8016B521EF9D1ABB110F8012B04F073
:100A60000C048A1A0C2C03D0A2EB84129B1C08E005
:100A700010F8014BA2EB0422F8E712F8014B01F841
:100A8000014B5B1EF9D5A942D4D3002070BD0000F4
:100A90002DE9F04704460D46094A0A4B20462946EF
:100AA000FFF7C4FC8046894642464B460020064973
:100AB000FFF715FC0646FFF7F9FD80B2BDE8F087A9
:100AC0002FDD2406815527400070974000BFFEE7C8
:100AD0002DE9F04F87B004468A4664488078241A8E
:100AE00014B32046FFF78CFDCDE904015046FFF713
:100AF00087FD00225E4BCDE90001FFF797FCCDE9B1
:100B00000201DDE90423FFF703FD05460E462846F2
:100B1000314602F047FC4FF06632564BCDE90401F6
:100B2000FFF784FC05460E460AFB0AF004FB0409A5
:100B30004846FFF776FDCDE9020102F04CFDCDE914
:100B40000401FFF794FD8346484909784900474A64
:100B5000527801FB02F0FFF753FDCDE9040146494D
:100B60000A8849881144A1EB0900FFF75AFD0022C9
:100B70003F4BCDE90001FFF759FCCDE90201DDE96A
:100B80000423FFF7C5FC3D4AC2E902011046D0E943
:100B90000221104602F0C8FA4FF06632354BCDE91B
:100BA0000401FFF743FC354AC2E902011046C1685F
:100BB000806802460B46CDE9040100203049FFF76A
:100BC0002FFC2E4AC2E9020128490978490001FB9D
:100BD0000BF0FFF726FDCDE9040127490988264AD5
:100BE0005288891A01EB0900FFF71BFD0022204BF8
:100BF000CDE90001FFF71AFCCDE90201DDE904238C
:100C0000FFF786FC074688463846414602F08CFAD4
:100C10004FF06632174BCDE90401FFF707FC07469A
:100C200088462A46334600201649FFF7F9FB3A4624
:100C30004346CDE90401FFF7F3FB104A03C20F4816
:100C4000C0E904560146D1E9020181F00041083AA9
:100C5000C2E902011146D1E9040181F00041C2E973
:100C60000401104607B0BDE8F08F000055060020D3
:100C70000000F03F66A64C4058060020501A0020A5
:100C8000008066400080564010B5202000F0F6F845
:100C900048B1202000F032F80021034800F03CF871
:100CA000032002F035F910BD1C00024010B54FF4CE
:100CB000005000F0E3F850B14FF4005000F01EF87F
:100CC0000021034800F028F8012002F021F910BDAE
:100CD0004400024010B54FF0007000F0CFF850B162
:100CE0004FF0007000F00AF80021034800F014F8FB
:100CF000022002F00DF910BD8000024000F080518A
:100D000011B10349086001E00249486070470000E2
:100D1000040402400000024021B1026842F00102D6
:100D2000026004E002684FF6FE731A4002607047EA
:100D300001684FF6FE7211400160002101604160C0
:100D40008160C1604B49884208D14A4908394968E5
:100D500041F00F01474A083A51608AE04549143191
:100D6000884208D143490839496841F0F001414AB5
:100D7000083A51607DE03F492831884208D13D4919
:100D80000839496841F470613A4A083A516070E0A4
:100D900038493C31884208D136490839496841F41C
:100DA0007041344A083A516063E032495031884218
:100DB00008D130490839496841F470212D4A083A70
:100DC000516056E02B496431884208D129490839DD
:100DD000496841F47001274A083A516049E02549C1
:100DE0007831884208D123490839496841F0706157
:100DF000204A083A51603CE01F49884206D1011F51
:100E0000096841F00F01021F116032E01A491431E4
:100E1000884208D11849091F096841F0F001164AB3
:100E2000121F116025E014492831884208D1124967
:100E3000091F096841F470610F4A121F116018E020
:100E40000D493C31884208D10B49091F096841F41A
:100E50007041094A121F11600BE007495031884266
:100E600007D10549091F096841F47021024A121F80
:100E7000116070470800024008040240014600204B
:100E8000002201F0805313B1054B1A6801E0054BB5
:100E90001A6802EA01030BB1012000E0002070474C
:100EA00000040240000002401AB103680B430360D3
:100EB00002E003688B430360704710B500220268AC
:100EC00047F6F0739A430C6A8B6823430C692343FB
:100ED0004C6923438C692343CC6923434C6A2343E5
:100EE0008C6A23431A430260CB6843600B688360BB
:100EF0004B68C36010BD416070477047002005E03B
:100F00000021044A42F82010411C88B20428F7DB73
:100F1000704700005C0A002010B5012000F030F995
:100F200001282DD117488088174988801748808864
:100F30001749888017480088124988801648808C95
:100F400012498880012000F015F9144800791449ED
:100F500088700221134800F01CFA012808D01248BA
:100F60008068401E1049886001200C49888007E095
:100F70000D488068401C0C49886000200749888023
:100F800010BD0000320200202A02002022020020B0
:100F90001A02002018020020001000403E0200202B
:100FA0003A020020001001405C0A002010B5042025
:100FB00000F0E6F801282DD11748C0881749C880ED
:100FC0001748C0881749C880174800881249C88048
:100FD0001648808C1249C880042000F0CBF81448D1
:100FE00080791449C8700821134800F0D2F901280B
:100FF00008D01248C068401C1049C86000200C4945
:10100000C88007E00D48C068401E0C49C860012038
:101010000749C88010BD0000320200202A020020CB
:10102000220200201A0200201802002000100040B6
:101030003E0200203A020020001001405C0A00201D
:1010400010B5102000F09CF801282DD117484088D9
:101050001749488017484088174948801748008832
:10106000124948801648808C12494880102000F0B0
:1010700081F814488078144948704021134800F0E2
:1010800088F9012808D012484068401E104948607D
:1010900001200C49488007E00D484068401C0C497D
:1010A000486000200749488010BD0000320200203F
:1010B0002A020020220200201A020020180200202A
:1010C000001000403E0200203A02002000100140C3
:1010D0005C0A002010B5202000F052F801282DD124
:1010E0001748008817490880174800881749088062
:1010F00017480088124908801648808C12490880D9
:10110000202000F037F81448007814490870802136
:10111000134800F03EF9012808D012480068401C2E
:101120001049086000200C49088007E00D4800685D
:10113000401E0C49086001200749088010BD0000CE
:10114000320200202A020020220200201A0200207F
:1011500018020020001000403E0200203A02002049
:10116000001001405C0A002001490860704700003F
:101170001404014001490860704700001404014054
:10118000014600200022074B1B6803EA0102054BC1
:1011900014331B680B4013B10AB1012000E000209A
:1011A0007047000000040140002123498279002A91
:1011B0003AD00A46126803689A430B461A600A1D21
:1011C000126803689A430B1D1A60027911440A6879
:1011D00003681A430A60184A0832126803689A437F
:1011E000154B08331A601A1D126803689A43124B94
:1011F0000C331A604279102A0ED11A1F1268036844
:101200001A430D4B08331A601A1D126803681A43FB
:10121000094B0C331A600DE00749427911440A6802
:1012200003681A430A6005E0027911440A680368FA
:101230009A430A60704700000004014030B5002264
:101240008B071C0F0F2303FA04F20B4B8C1053F87F
:1012500024309343084C8D1044F8253023468C10DD
:1012600053F824308C07240F00FA04F42343024C73
:101270008D1044F8253030BD080001402DE9F041C3
:10128000024600250026002000230024002791F8B4
:1012900003C00CF00F0591F803C00CF0100CBCF16A
:1012A000000F03D091F802C04CEA050591F800C088
:1012B000BCF1000F31D0146800202BE04FF0010C7E
:1012C0000CFA00F3B1F800C00CEA03069E4220D1EC
:1012D00083004FF00F0C0CFA03F7BC4305FA03FC34
:1012E0004CEA040491F803C0BCF1280F06D14FF07A
:1012F000010C0CFA00FCC2F814C00AE091F803C01B
:10130000BCF1480F05D14FF0010C0CFA00FCC2F8FB
:1013100010C0401C0828D1D31460B1F800C0BCF143
:10132000FF0F34DD546800202EE000F1080C4FF070
:10133000010808FA0CF3B1F800C00CEA03069E425B
:1013400021D183004FF00F0C0CFA03F7BC4305FAD0
:1013500003FC4CEA040491F803C0BCF1280F05D14A
:1013600000F1080C08FA0CF8C2F8148091F803C0D8
:10137000BCF1480F07D100F1080C4FF0010808FA42
:101380000CF8C2F81080401C0828CED35460BDE889
:10139000F0810246002093680B400BB1012000E071
:1013A00000207047416170470161704710B500BF70
:1013B00004210B4801F03CFC0028F9D100BF0421B6
:1013C000084801F035FC0028F9D100BF0421064887
:1013D00001F02EFC0028F9D101F0A2FD10BD0000A3
:1013E000130100201B0100201701002002480068A3
:1013F0000A2190FBF1F070472001002010B5032076
:1014000001F07CFD0421024801F012FC10BD000037
:10141000170100200246507A137A40EA032144F271
:101420005060814202DDA1F57F41FF390348006829
:10143000091A034801600068704700002401002079
:10144000200100200EB50121084600F019FD3520CD
:10145000019001208DF80A0000208DF80800082076
:101460008DF8090000210220FFF7E8FE022108465E
:10147000FFF7E4FE04210220FFF7E0FE0521022031
:10148000FFF7DCFE01A8FFF78FFE01208DF80300B7
:101490008DF8010003208DF8020006208DF8000071
:1014A000684600F025FA08208DF80000684600F034
:1014B0001FFA0A208DF80000684600F019FA17207C
:1014C0008DF80000684600F013FA0120FFF74CFE8B
:1014D0000420FFF749FE1020FFF746FE2020FFF70B
:1014E00043FE0EBD08B50121102000F0C9FC042008
:1014F0008DF80300FF20ADF8000069460148FFF7B2
:10150000BDFE08BD001001401FB50121102000F0F4
:10151000A7FC0020ADF80A00ADF806004EF65F20EB
:10152000ADF8080040F2CF20ADF8040000208DF89F
:101530000C0001A90D4801F099F9012211460B4850
:1015400001F026F836208DF8000001208DF8030008
:1015500000208DF801008DF80200684600F0C8F9FF
:101560000121024800F0F7FF1FBD000000100040FD
:1015700000BFFEE72DE9F04F89B083460C46A06816
:10158000E0606068A06058462168FEF773FE606006
:101590004FF08040A168FEF770FE81466168FEF75B
:1015A00069FE8046E168FEF710FE0546FFF797F8F2
:1015B0000646184A184BFEF739FFCDE9040160686A
:1015C000FFF78DF80746154A154BFEF72FFF054626
:1015D0000E46D4E90101FEF74AFE0190FFF77FF8BD
:1015E00007464FF066320F4BFEF720FF81462A4632
:1015F0003346FEF774FECDE90201DDE90423FEF770
:101600006EFECDE90601FFF77DF80890089809B055
:10161000BDE8F08FB81E85EB51B88E3F3D0AD7A3C9
:10162000703DEA3F6666F23F2DE9F04100F0A6FC0E
:101630000546002438E0204901EB04110868002128
:10164000FFF77CF82AD055F82400FEF7D0FF0746B4
:10165000194800EB04113846FFF78CFF0646FEF7E9
:10166000EDFF164951F824100844144941F82400AC
:10167000084650F8240041F65831884203DD0846F8
:101680000E4941F824000D4850F824000C498842C6
:1016900008DA0846094941F8240003E00020074918
:1016A00041F82400601CC4B2042CC4DB034800F0E1
:1016B000EDF9BDE8F0810000FC1500203C1600208B
:1016C000A8E4FFFF704700002DE9F04106460F46F1
:1016D000154600201049087001201049087039464D
:1016E0003046FFF7F5F98046002410E008EBC4000F
:1016F000D0E900211046FFF7CBF9094A611C22F816
:10170000110028194178074A601C1154C4B2032CF7
:10171000ECDBBDE8F08100005306002054060020F9
:10172000680600207C06002010B504461CB1044861
:1017300000F05AF802E0024800F056F810BD000030
:101740005E06002000B50448007808B100F008F8F3
:10175000024800F049F800BD54060020720600203F
:10176000002038E01D4931F810101D4A32F81020D1
:10177000914217DA194931F810101A4A125C1144D3
:10178000164A22F81010114631F81010144A32F897
:10179000102091421DDD124931F810100F4A22F835
:1017A000101016E00D4931F810100E4A125C891A1B
:1017B0000A4A22F81010114631F81010084A32F87F
:1017C0001020914205DA064931F81010034A22F838
:1017D0001010411CC8B20528C4DB704772060020F7
:1017E000680600207C0600200146002007E031F852
:1017F0001020044B53F820301A80421CD0B2052828
:10180000F5DB7047B805002000BFFEE708B50121F1
:10181000082000F035FB18208DF8030003208DF818
:1018200002004FF47070ADF8000069460148FFF700
:1018300025FD08BD000C014010B500F041FEFFF78A
:10184000E5FF00F007F8FFF74DFEFFF7FBFDFFF7A0
:101850005BFE10BD00B587B00121042000F000FB45
:101860000020ADF81600ADF8120041F61F40ADF8AB
:1018700014000020ADF810008DF8180004A91A48D3
:1018800000F0F4FF6020ADF800000020ADF8080083
:101890000120ADF802000020ADF8060069461248AC
:1018A00000F080FE6946104800F0D2FE69460E48FE
:1018B00000F02EFF69460C4800F084FF08210A481A
:1018C00000F0BCFE0821084800F014FF082106487B
:1018D00000F06EFF0821044800F0B2FF0121024829
:1018E00000F039FE07B000BD00080040704700005E
:1018F00070B5002100230F22C47804B3154C24686E
:1019000004F4E064C4F5E064210AC1F10403CA40B0
:10191000447804FA03F184781440214309010E4C01
:101920000678A155047804F01F050124AC40057821
:101930006D11AD0005F1E025C5F8004109E004781E
:1019400004F01F050124AC40044D0678761145F8DB
:10195000264070BD0CED00E000E400E080E100E016
:1019600002490143024A1160704700000000FA0575
:101970000CED00E01CB54FF4A060FFF7F1FF48212B
:101980000A2000F015FD01F079F901F017FA00F0D6
:1019900099FCFFF751FFFFF709FD314B02220121AE
:1019A000084600F0B5FF2F4B02220121084600F047
:1019B000AFFF2D4B02220121084600F0A9FF2B4B5F
:1019C00001221146104600F0A3FF294B01221146C7
:1019D000104600F09DFF27A103C9CDE900016A462A
:1019E00064210846FFF770FE012000F05FFD2349E7
:1019F000B1F1807F00D31DE021F07F40401E4FF009
:101A0000E022506150170F22002807DA13071D0E3D
:101A10001B4B00F00F04241F1D5503E013071C0E81
:101A2000184B1C5400BF00204FF0E02290610720AB
:101A3000106100BF13E000240AE0134810F83400DE
:101A400020B1114901EBC40148688047601CC4B251
:101A50000D4800EBC40040680028EED100BFEAE763
:101A6000C535000823360008D5350008251C0008B8
:101A7000451700080101010101000000C04B0300EF
:101A800018ED00E000E400E0AC11002010B50446C1
:101A9000206818B3206800280FDD4FF480715E487D
:101AA000FFF782FC4FF400715B48FFF77BFC208856
:101AB00081B25A4800F0D1FE1AE04FF40071564846
:101AC000FFF772FC4FF480715348FFF76BFC2088DE
:101AD000404281B2514800F0C0FE09E04FF440712D
:101AE0004D48FFF761FC4FF6FF714C4800F0B5FE22
:101AF000241D206818B3206800280FDD4FF4806192
:101B00004548FFF751FC4FF400614348FFF74AFC9A
:101B1000208881B2414800F0A2FE1AE04FF4006133
:101B20003D48FFF741FC4FF480613B48FFF73AFC2A
:101B30002088404281B2394800F091FE09E04FF41C
:101B400040613548FFF730FC4FF6FF71334800F035
:101B500086FE241D206818B3206800280FDD4FF48E
:101B600000512D48FFF720FC4FF480512A48FFF721
:101B700019FC208881B2294800F073FE1AE04FF466
:101B800080512548FFF710FC4FF400512248FFF721
:101B900009FC2088404281B2204800F062FE09E042
:101BA0004FF440511C48FFF7FFFB4FF6FF711B48F5
:101BB00000F057FE241D206818B3206800280FDDB0
:101BC0004FF400411448FFF7EFFB4FF480411248F7
:101BD000FFF7E8FB208881B2104800F044FE1AE0CD
:101BE0004FF480410C48FFF7DFFB4FF400410A48F7
:101BF000FFF7D8FB2088404281B2084800F033FE4E
:101C000009E04FF440410448FFF7CEFB4FF6FF7167
:101C1000024800F028FE10BD0010014000080040FE
:101C20007047000010B500F0C5F81048007880B18A
:101C300000F068F80E480078012803D00C480078BE
:101C4000032806D10A490C7804EBD471481000F03F
:101C500013F801F0A1F900F0CBFA064800F0B4FA4D
:101C6000FFF7E2FCFFF7CAFB10BD00008105002072
:101C7000800500204C16002010B50146194B18684D
:101C8000002800DA4042184B53F82130B3F5A07F0A
:101C900005DC154B53F8213013F5A07F02DA4FF421
:101CA000A07202E0104B53F82120002A00DA5242C1
:101CB000401C904200DD10460B4B53F82130002BA6
:101CC00000DA404239B1074B1860D8604342054CF6
:101CD000A360636004E0034B1860D86098605860AC
:101CE00010BD00005C1600207805002000B500F053
:101CF00049F803480078401C0149087000BD000005
:101D00008005002000B51C480078052831D2DFE8A6
:101D100000F0030C151E2700184800680A2190FBEC
:101D2000F1F008B9FFF7E2FF23E0154800680A2147
:101D300090FBF1F008B9FFF7D9FF1AE00F480068EF
:101D40000A2190FBF1F008B9FFF7D0FF11E00C4831
:101D500040680A2190FBF1F008B9FFF7C7FF08E0DF
:101D6000064800680A2190FBF1F008B9FFF7BEFFB2
:101D700000BF00BF00BD00008005002068050020F6
:101D80007805002000200BE00021074A42F82010CF
:101D9000064A42F82010064A42F82010411CC8B2F8
:101DA0000428F1DB704700004C1600206C16002060
:101DB0005C16002010B5FFF719FB1C490968401A92
:101DC0001B49086000F0D6F80446D4E9001211441B
:101DD000A2681144E2688818C11700EB9171154A96
:101DE000126802EBA101134A1160D4E90012891AAA
:101DF000A268891AE2688818C11700EB91710D4A30
:101E0000526802EBA1010B4A51600B480068114671
:101E10000968401A0949086007484068114649683E
:101E2000401A06494860FFF769F810BD6C050020AC
:101E3000680500206005002070050020780500205E
:101E400029B1064A52690243044B5A6104E0034A2D
:101E500052698243014B5A617047000000100240F2
:101E600029B1064AD2690243044BDA6104E0034A0D
:101E7000D2698243014BDA617047000000100240D2
:101E800029B1064A92690243044B9A6104E0034A6D
:101E900092698243014B9A61704700000010024032
:101EA00030B500210022002400232D4D6D6805F07F
:101EB0000C0121B1042905D0082923D105E0294DC1
:101EC000056022E0274D05601FE0254D6D6805F493
:101ED0007012234D6D6805F48034022505EB9242A3
:101EE0001CB9214D554305600BE01D4D6D6805F48F
:101EF00000351DB11C4D5543056002E0194D554399
:101F0000056002E0174D056000BF00BF144D6D680D
:101F100005F0F0010909154D6B5C0568DD40456071
:101F20000F4D6D6805F4E061090A104D6B5C456862
:101F3000DD4085600A4D6D6805F46051C90A0B4D9E
:101F40006B5C4568DD40C560054D6D6805F440413A
:101F5000890B074D6B5CC568B5FBF3F5056130BDBA
:101F60000010024000127A0000093D00000000202D
:101F700010000020004870475C0A00202DE9F04165
:101F800000248AE04848808C484931F81410471AE8
:101F90004FEAE778464830F81400464909888842F5
:101FA0000BD0434830F8140042490988081A4EF60D
:101FB00060214843C71948EBE07844F62061791A5C
:101FC00078F1000063DA394830F814003A4931F802
:101FD0001410451AEE17394830F81400344931F816
:101FE000141088420CD0324830F81400334931F8CC
:101FF0001410401A4EF660214843451946EBE0762E
:102000002A46334644F620604FF00001FEF7ACF854
:1020100005460E462A48005D2A4931F814108842C8
:102020001ED0294850F82400291A66EBE0703C398C
:1020300070F1000014DA244850F824002A1A66EBE4
:10204000E0706FF03B034FF0FF319A1A814107DADD
:102050000222002328463146FEF786F805460E4642
:10206000184830F8140018B100226D4262EB0606E1
:102070004FF4FA71691A76F100000CDA134948122C
:10208000491BB04107DA104840F8245003E0002013
:102090000D4941F82400601CC4B2042CFFF672AF55
:1020A0000948BDE8F0810000001000402202002035
:1020B00032020020180200201A0200202A0200200A
:1020C0003A0200203E0200206C0A00200CFEFFFFB6
:1020D000014800687047000068040020704710B590
:1020E00000F002F810BD00000CB500200190009037
:1020F0003348006840F480303149086000BF304800
:10210000006800F4003000900198401C0190009895
:1021100018B90198B0F5A06FF1D12948006800F412
:10212000003010B10120009001E0002000900098E4
:10213000012843D12348006840F01000214908607D
:102140000846006820F0030008600846006840F078
:10215000020008601A48406819494860084640680B
:1021600048600846406840F480604860084640681F
:1021700020F47C1048600846406840F4E81048604D
:102180000846006840F08070086000BF0C48006896
:1021900000F000700028F9D00948406820F00300E2
:1021A000074948600846406840F00200486000BFA8
:1021B0000348406800F00C000828F9D10CBD00006D
:1021C000001002400020024070B50546002409E0DE
:1021D00055F82400FEF70BFA044901EB04110860DE
:1021E000601CC4B2042CF3DB70BD0000FC150020A1
:1021F000002037E01D4A52F820201D4B53F82030B4
:102200001A4411461B4B43F82020002900DA4942AA
:10221000B1F5BE7F0EDD174A52F82020002A05DDF9
:102220004FF4BE72134B43F8202003E0124A114BC7
:1022300043F82020322913DA91B1104A1278022A89
:102240000ED00C4A52F82020002A04DD3222094B1D
:1022500043F8202004E06FF03102064B43F82020C1
:10226000421CD0B20428C5DB704700005C16002079
:102270006C1600204C16002084FEFFFF8105002014
:1022800008B501210420FFF7FBFD01210820FFF71D
:10229000F7FD18208DF8030003208DF80200C320FD
:1022A000ADF8000069460548FEF7E8FF0320ADF8E9
:1022B000000069460248FEF7E1FF08BD0008014042
:1022C000000C014010B5FFF7DBFF00F005F801201E
:1022D000FFF72AFA10BD000000B587B001210846BB
:1022E000FFF7BEFD01210220FFF7BAFD0020ADF887
:1022F0001600ADF8120044F61F60ADF81400472038
:10230000ADF8100000208DF8180004A94FF08040AF
:1023100000F0ACFA04A9254800F0A8FA6020ADF856
:1023200000000020ADF808000120ADF802000020F8
:10233000ADF8060069464FF0804000F033F9694679
:102340004FF0804000F084F96946184800F02AF9FF
:102350006946164800F07CF96946144800F0D8F93F
:102360006946124800F02EFA0821C80600F066F906
:102370000821C80600F0BEF908210C4800F05EF9FB
:1023800008210A4800F0B6F90821084800F010FAC0
:102390000821064800F054FA0121880700F0DBF814
:1023A0000121024800F0D7F807B000BD000400404A
:1023B0007FB504460D4601212020FFF751FD002086
:1023C000ADF80A00ADF80600ADF80450ADF80840CD
:1023D0008DF80C0001A90D4800F048FA01221146C1
:1023E0000A4800F0D5F837208DF8000001208DF85C
:1023F000030000208DF801008DF802006846FFF709
:1024000077FA0121014800F0A6F87FBD00140040D2
:1024100010B50C480068401C0A49086000240AE016
:10242000094810F8340020B1074901EBC40148689D
:102430008047601CC4B2044800EBC4004068002818
:10244000EED110BD64040020AC10002010B513487C
:10245000006840F0010011490860084640681049D2
:1024600008400E494860084600680E4908400B497C
:1024700008600846006820F480200860084640682C
:1024800020F4FE0048604FF41F008860FFF727FE2D
:102490004FF000600449086010BD000000100240C9
:1024A0000000FFF8FFFFF6FE08ED00E001460529F9
:1024B00001DA024801700148007870476C0400207E
:1024C00008B501211020FFF7DBFC10208DF8030078
:1024D00003208DF802004FF47F40ADF800006946FC
:1024E0000448FEF7CBFE4FF47F410248FEF75AFF47
:1024F00008BD00000010014010B50121074800F0A0
:1025000036F8012808D106480088401C0449088094
:102510000121024800F01CF810BD0000001000402E
:102520001802002010B50121074800F020F801280A
:1025300008D106480068401C04490860012102488F
:1025400000F006F810BD00000014004068040020F0
:10255000CA430282704721B1028842F00102028020
:1025600004E002884FF6FE731A400280704730B5CF
:102570000246002000230024158A05EA01039589FC
:1025800005EA010413B10CB1012000E0002030BDC8
:102590001AB183890B43838102E083898B43838152
:1025A0007047000070B5002400220023058C4FF610
:1025B000FE7635400584028C8388048B4FF68F7538
:1025C0002C40B51E2C400D882C43751E2A400D89C9
:1025D0002A434D882A43144DA8420BD0134DA842DC
:1025E00008D0134DA84205D0124DA84202D0124D7A
:1025F000A84213D14FF6F7752A404D892A434FF66A
:10260000FB752A408D882A434FF6FF652B404FF615
:10261000FF552B408D892B43CD892B438380048329
:10262000CD888586028470BD002C014000340140B5
:102630000040014000440140004801400A4600219A
:10264000018B4FF6F7731940114301837047000067
:1026500070B5002400220023058C4FF6EF7635403C
:102660000584028C8388048B48F6FF752C404FF656
:10267000FF452C400D884FF6FF7606EA05252C43D2
:102680004FF6DF752A400D8906EA05152A434D8865
:1026900006EA05152A43154DA84202D0144DA8425A
:1026A0001DD14FF67F752A404D894FF6FF7606EA19
:1026B00005152A434FF6BF752A408D8806EA051591
:1026C0002A434FF6FF352B404FF2FF752B408D8983
:1026D00006EA85052B43CD8906EA85052B438380D1
:1026E0000483CD880587028470BD0000002C014062
:1026F000003401400A460021018B4FF2FF7319405C
:102700004FF6FF7303EA0223194301837047000069
:1027100070B5002400220023058C4FF6FF6635407B
:102720000584028C8388848B4FF68F752C404FF67E
:10273000FC752C400D882C434FF6FF552A400D891F
:102740004FF6FF7606EA05252A434D8806EA052559
:102750002A43154DA84202D0144DA8421DD14FF274
:10276000FF752A404D894FF6FF7606EA05252A4374
:102770004FF6FF352A408D8806EA05252A434EF696
:10278000FF752B404DF6FF752B408D8906EA051528
:102790002B43CD8906EA05152B4383808483CD889E
:1027A0008587028470BD0000002C01400034014088
:1027B0000A460021818B4FF6F7731940114381833C
:1027C0007047000070B5002200230024058C4EF6EF
:1027D000FF7635400584038C8488828B48F6FF752C
:1027E0002A404FF6FF452A400D884FF6FF7606EA4D
:1027F00005252A434DF6FF752B400D8906EA053560
:102800002B434D8806EA05352B430B4DA84202D0D9
:102810000A4DA84208D14BF6FF752C408D894FF622
:10282000FF7606EA85152C4384808283CD88A0F844
:102830004050038470BD0000002C01400034014072
:102840000A460021818B4FF2FF7319404FF6FF7348
:1028500003EA022319438183704781867047018709
:10286000704781877047A0F84010704700220288A7
:102870001D4B98420ED01D4B98420BD0B0F1804FAB
:1028800008D01B4B984205D01A4B984202D01A4BE5
:10289000984204D14FF68F731A404B881A43174B56
:1028A000984207D0164B984204D04FF6FF431A4087
:1028B000CB881A4302808B8883850B8803850A4B5B
:1028C00098420BD0094B984208D00E4B984205D045
:1028D0000D4B984202D00D4B984201D10B7A0386E2
:1028E0000123838270470000002C01400034014026
:1028F0000004004000080040000C004000100040B0
:1029000000140040004001400044014000480140E4
:102910007CB58DF800008DF801108DF80220019330
:1029200081B1114C24788DF803400F4C2578247820
:10293000641C0D4E34700D4C04EBC504DDE90056EB
:1029400060C40FE00A4C24788DF80340084C2578C9
:102950002478641C064E3470064C04EBC504DDE993
:10296000005660C47CBD00006D040020AC10002047
:102970006E040020AC11002010B540F225510C4827
:1029800000F092F898B10B4804780078401C09498F
:1029900008703F2C06D0064800F042F9C1B2054A43
:1029A000601C115440F22551014800F059F810BD47
:1029B000003801408C0D002010B540F225510E4822
:1029C00000F072F8B8B10D4890F8404090F840001F
:1029D000401C0A4981F840003F2C07D0064800F00F
:1029E0001FF9C2B205484030611C425440F22551E3
:1029F000014800F035F810BD004400408C0D002067
:102A000010B540F22551144800F04EF810B31348A9
:102A100090F8804090F88000401C104981F88000B8
:102A20000D4800F0FDF8C2B20C488030611C4254E1
:102A3000803890F880000B2807D10020074981F8E2
:102A4000800001F18100FEF7E5FC40F225510248CB
:102A500000F006F810BD0000004800408C0D00207A
:102A600010B50022002340F66A14A14200D100BF35
:102A70000A1201249440A3B2DC43048010BD21B1AA
:102A8000828942F40052828104E082894DF6FF730C
:102A90001A40828170471AB1838A0B43838202E015
:102AA000838A8B438382704770B5024600240023DB
:102AB0000025002040F66A16B14200D100BFC1F3E4
:102AC000421501F01F03012606FA03F3012D02D17E
:102AD0009689334006E0022D02D1168A334001E088
:102AE000968A33400C12012606FA04F41688344004
:102AF00013B10CB1012000E0002070BDF0B5034619
:102B0000002400260025002040F66A17B94200D1B3
:102B100000BF1846C1F3421401F01F06012707FA4F
:102B200006F5012C01D10C3004E0022C01D110304B
:102B300000E014301AB107682F43076002E007680D
:102B4000AF430760F0BD00002DE9F04786B00546B1
:102B50000E460024A24600BFA1460027B08900B15E
:102B600000BF2F462C8A4CF6FF700440F0880443C7
:102B70002C82AC894EF6F3100440B08831890843AA
:102B8000718908430443AC81AC8A4FF6FF4004408E
:102B9000B0890443AC8201A8FFF782F91F4887423D
:102BA00002D1DDF810A001E0DDF80CA0A88900F446
:102BB000004040B10AEBCA0000EB0A10316849003E
:102BC000B0FBF1F807E00AEBCA0000EB0A1031682D
:102BD0008900B0FBF1F86420B8FBF0F00401200993
:102BE000642101FB1089A88900F4004040B1322023
:102BF00000EBC900B0FBF1F000F00700044308E06F
:102C0000322000EB09106421B0FBF1F000F00F005E
:102C100004432C8106B0BDE8F08700000038014075
:102C200001468888C0F30800704700BFFEE7000037
:102C300070B505460E460E488078B0B901200C49A3
:102C40008870002405E028780A4908556D1C601C2E
:102C5000C4B2B442F7DB31460748FEF74CF9012114
:102C60000548FEF759F8002070BD0120FCE7000080
:102C700057030020AC0E00201C00024000B587B0B6
:102C800001210420FFF7FCF801210820FFF7F8F8E4
:102C900018208DF80B0003208DF80A004FF4017006
:102CA000ADF8080002A94048FEF7E8FA4FF480604A
:102CB000ADF8080002A93D48FEF7E0FA04208DF8BF
:102CC0000B004FF48160ADF8080002A93648FEF70A
:102CD000D5FA4FF40060ADF8080002A93348FEF7BA
:102CE000CDFA4FF4E13003900020ADF818000C202D
:102CF000ADF816000020ADF81400ADF81200ADF8E4
:102D0000100001218803FFF7BBF801214804FFF7F9
:102D1000A7F801218804FFF7A3F803A92448FFF7C7
:102D200013FF03A92348FFF70FFF03A92248FFF76A
:102D30000BFF01208DF8070002208DF8050001200F
:102D40008DF8060025208DF8040001A8FEF7D0FDBF
:102D500026208DF8040001A8FEF7CAFD27208DF873
:102D6000040001A8FEF7C4FD012240F225511048DD
:102D7000FFF7C4FE012240F225510E48FFF7BEFEC8
:102D8000012240F225510C48FFF7B8FE0121084806
:102D9000FFF775FE01210748FFF771FE0121064884
:102DA000FFF76DFE07B000BD00080140000C0140B8
:102DB00000380140004400400048004000B58DB09C
:102DC00001210846FFF73CF80020059010200490F0
:102DD00000200C9009908020079000200A90089015
:102DE00006904FF400500B9001208DF805008DF8EF
:102DF00006000E208DF8040001208DF8070001A8C0
:102E0000FEF776FD11208DF8040001208DF80700F3
:102E100001A8FEF76DFD0C208DF8040001208DF84F
:102E2000070001A8FEF764FD2D4803902D4802908D
:102E300040140B902C48FDF77BFF4FF48050FDF7BA
:102E40005DFF012202212848FEF72EF802A926483C
:102E5000FEF733F8254803902548029040140B9064
:102E600021483C30FDF764FF4FF08070FDF746FFCE
:102E7000012202211C483C30FEF716F802A91A482C
:102E80003C30FEF71AF81B4803901B480290401490
:102E90000B9015482838FDF74BFF1020FDF72EFF4B
:102EA0000122022110482838FDF7FEFF02A90E4832
:102EB0002838FEF702F8012280210A48001FFFF798
:102EC000EAFD012280210A48001FFFF7E4FD0122EC
:102ED00080210948001FFFF7DEFD0DB000BD000096
:102EE0004C0E002004380140440002407C0E0020BB
:102EF00004440040AC0E0020044800400022411E63
:102F0000024B03EB81110A70704700008C0D00200A
:102F10000022411E014B5A54704700005703002005
:102F200010B5FFF7D5F80446FEF768FA20E0FFF782
:102F3000CFF814490968401AB0F5FA7F18D9FFF79D
:102F4000C7F81049086010480068104909688842AD
:102F500003D000200E49087004E00D480078401CA2
:102F60000B4908700948006807490860FEF746FAEF
:102F700007480078FA28DAD1044800680549086053
:102F800010BD0000300100202C0100202001002095
:102F9000280100202401002000B5174803681748C5
:102FA000007801280BD015480078032807D0134873
:102FB0000078062803D012480078022809D1114869
:102FC000036058420F494860084683605842C86011
:102FD00011E0094800680A2190FBF1F048B1094866
:102FE0000360584207494860084683605842C860F9
:102FF00001E0FEF7C7FE00BD680500208005002047
:10300000810500206C160020490050EAC12018BF3D
:1030100004204A0D18BF40F0010040F2FF72B2EBED
:10302000515F08BF40F00200012808BF052070472B
:103030002DE9F0414F1E00EBC7010446D1E9000124
:1030400015461E4637F006020DD02A463346FDF7D8
:10305000EDF97F1E04EBC703D3E90023FDF73FF929
:1030600037F00602F1D1022F25D0042F13D0062FFE
:1030700018BFBDE8F0812A463346FDF7D7F9D4E9F9
:103080000A23FDF72CF92A463346FDF7CFF9D4E998
:103090000823FDF724F92A463346FDF7C7F9D4E99A
:1030A0000623FDF71CF92A463346FDF7BFF9D4E99C
:1030B0000423FDF714F92A463346FDF7B7F9D4E99E
:1030C0000223FDF70CF92A463346FDF7AFF9D4E9A0
:1030D0000023BDE8F041FDF702B90122FDF72EBC47
:1030E0000022134610461146FDF712BA024A00208C
:1030F0001107FDF723BC000001FDFFFF02E008C837
:10310000121F08C1002AFAD170477047002001E061
:1031100001C1121F002AFBD170470000014908605D
:1031200070470000980600202DE9F04D0546DFF8B5
:10313000388221F000408D4F82B00C46404520DBA4
:10314000A0EB080129430BD08949884201DC10D14A
:103150007DB102B028462146BDE8F04DFFF7BDBF66
:10316000002CC7BF002001468248394602B0BDE8A6
:10317000F08D0120FFF7D2FF02B0BDE8F04DFFF760
:10318000AFBF7D49884244DA7C498142A1BF79487A
:103190007B4902B0BDE8F08D2A4623461046194609
:1031A000FDF744F98346024676480E460B46062153
:1031B0007844FFF73DFF5A463346FDF737F9074697
:1031C00071488A465A46334604217844FFF730FF57
:1031D0005A463346FDF72AF900224346FDF77FF8A9
:1031E00002460B4638465146FDF792F92A462346D9
:1031F000FDF71CF9654A664BFDF715F92A4623468B
:10320000FDF711F902B05B4ABDE8F04D5C4BFDF7EC
:103210000AB9002C4FF000024BDA464643462846D6
:103220002146FDF75CF84FF0FF32FDF787FB0446BF
:10323000024658480D460B4606217844FFF7F8FE33
:1032400022462B46FDF7F2F8804653488A4622462E
:103250002B4604217844FFF7EBFE22462B46FDF770
:10326000E5F800223346FDF73AF806468B4620463D
:10327000294600F0B0F904460D4632465B4640460A
:103280005146FDF745F922462B46FDF7CFF83F4A58
:103290003F4BFDF7C5F822462B46FDF720F80122EB
:1032A000FDF74CFB02B03B46BDE8F04D314AFDF75F
:1032B000BAB82D4B28462146FDF7B5F84FF0FF323E
:1032C000FDF73CFB05460E4600F085F900270C464D
:1032D00080463A460B46FDF702F882468B463A4650
:1032E000234610461946FDF7A1F82A463346FDF756
:1032F0009AF852465B46FDF70BF9824627488B4603
:103300002A46334606217844FFF792FE2A46334682
:10331000FDF78CF8CDE9000121482A463346042107
:103320007844FFF785FE2A463346FDF77FF80022F2
:103330000D4BFCF7D4FF02460B46DDE90001FDF71B
:10334000E7F842462346FDF771F852465B46FCF724
:10335000C6FF3A462346FCF7C2FF02B00122BDE891
:10336000F04DFDF7EBBA00000000F03FFB210940F3
:103370000000F07F182D44540000E03F0000603C46
:10338000FB21F93F740400008A040000075C143339
:1033900026A6913CEA030000000400001E03000082
:1033A000340300002DE9F84F04460D4621F000409B
:1033B00000917349814211DC7249884201DC06D1D7
:1033C0002CB120462946BDE8F84FFFF786BE6E486F
:1033D000002DCCBF6D496E49BDE8F88F6D49814223
:1033E00011DD6D498142D8BF4FF0FF366DDD2046BB
:1033F0002946FFF709FE042808BFFFF777FE20469D
:103400002946BDE8F88F6549654F25F000458142A2
:1034100033DD6449814219DD002632464FF0804396
:1034200020462946FCF75BFF80468A46012220465B
:103430002946FDF783FA00223B46FCF7F1FF42469E
:103440005346FDF765F804460D463EE0012600228E
:10345000BA463B4620462946FCF741FF80460F46C8
:103460000022534620462946FCF7DAFF42463B46F7
:10347000FDF74EF804460D4627E04B4981421BDD1F
:10348000DFF828A102260022534620462946FCF7F1
:10349000CDFF00223B46FCF722FF80460F4600226C
:1034A000534620462946FCF7BBFF42463B46FDF704
:1034B0002FF804460D4608E0032622462B4600203E
:1034C0003B49FDF725F804460D4622462B4610469B
:1034D0001946FCF7ABFF8B46824602460B46FCF7CB
:1034E000A5FF07460246334888460B460621784426
:1034F000FFF79EFD52465B46FCF798FF82462E483A
:103500008B463A46434605217844FFF791FD3A46FB
:103510004346FCF78BFF02460B46002E50465946A9
:103520000CDAFCF7DCFE22462B46FCF77FFF01B0ED
:1035300022462B46BDE8F04FFCF775BFFCF7CFFEE7
:1035400022462B46FCF772FF1C4A7A4402EBC60364
:10355000D3E90023FCF764FF22462B46FCF760FF0B
:10356000174A7A4402EBC603D3E90023FCF75BFF5A
:10357000009A002AB8BF81F00041BDE8F88F000032
:10358000000010440000F07F182D4454FB21F93F47
:10359000FB21F9BF0000DC3F0000203E0000F33FAC
:1035A0000000F03F0000E63F008003400000F83FCD
:1035B0000000F0BFEE010000AC0100004A01000075
:1035C0001201000000B5FEF77DF800BDFEF7D2F94C
:1035D00000BFFEE770472DE9F04106460F46FDF7B4
:1035E000C4F9041E0D4618BF0120284320F00040F6
:1035F000C0F17F6000F1E040C00F0ED0301C18BF5A
:103600000120384320F00040C0F17F6000F1E0402D
:10361000C00F04BF0120FFF781FD20462946BDE809
:10362000F081704700000000555555555555C53F70
:103630007D6FEB0312D6D4BF5544880E55C1C93FE8
:103640003B8F68B52882A4BF88B20175E0EF493F7F
:1036500009F7FD0DE13D023F4B2D8A1C273A03C0BF
:10366000C88A599CE52A004059018D1B6C06E6BFAB
:1036700082922EB1C5B8B33F4FBB610567ACDD3F49
:10368000182D4454FB21E93F9BF681D20B73EF3F89
:10369000182D4454FB21F93FE2652F227F2B7A3C01
:1036A000075C143326A6813CBDCBF07A8807703CBA
:1036B000075C143326A6913CC4EB98999999C9BF2D
:1036C000711623FEC671BCBF6D9A74AFF2B0B3BF62
:1036D0009AFDDE522DDEADBF2F6C6A2C44B4A2BF22
:1036E0000D5555555555D53FFF8300922449C23F8E
:1036F0006E204CC5CD45B73F513DD0A0660DB13FC2
:10370000EB0D76244B7BA93F11DA22E33AAD903FD3
:1037100030370008000000209C060000300A000836
:10372000C83700089C060020CC1700000C310008A8
:1037300012000120050102030404000A31060708F3
:10374000090204060800011006340400403804127F
:103750003C0412400C133400101104001712000036
:10376000695A6400112BA41F1027F609E907C2014A
:10377000E90720030A2201017150210A0007209065
:10378000015802E2047C022F05AEA3807F40C201F3
:103790001D000DC7A555100AA55601FCA55702FE30
:1037A000F0011ED5036C01000105FF4005FF18055F
:1037B000A414015EF0064F05140581E41DF3050510
:0837C00030960510980000008E
:0400000508000131BD
:00000001FF
