:020000040800F2
:10000000380B0020450100081D0C0008D50A000827
:10001000390B000817020008A318000800000000B0
:100020000000000000000000000000006D0E00084D
:100030008F04000800000000290D0008FD100008D2
:100040005F0100085F0100085F0100085F01000810
:100050005F0100085F010008910400085F010008CB
:10006000250500085F010008B90500085F010008C8
:100070001D0200085F010008410200085F0100083E
:100080005F010008690200085F0100085F010008C5
:100090005F0100085F0100085F0100084D060008CD
:1000A0005F0100085F0100085F0100085F010008B0
:1000B0005F0100085F0100085F0100085F010008A0
:1000C0005F0100085F0100085F0100085F01000890
:1000D0005F010008D1150008111600085916000824
:1000E0005F0100085F0100085F0100085F01000870
:1000F0005F0100085F0100085F0100085F01000860
:100100005F0100085F0100085F0100085F0100084F
:100110005F0100085F010008C9110008F51100081F
:100120005F0100085F0100085F0100085F0100082F
:10013000DFF80CD000F02EF800480047B11D000891
:10014000380B00200648804706480047FEE7FEE7D8
:10015000FEE7FEE7FEE7FEE7FEE7FEE7FEE7FEE777
:10016000311100083101000830B50B46014600206E
:100170002022012409E021FA02F59D4205D303FA69
:1001800002F5491B04FA02F52844151EA2F10102EA
:10019000F1DC30BD064C074D06E0E06840F001039D
:1001A00094E8070098471034AC42F6D3FFF7C4FF39
:1001B000B81D0008D81D000870B58D1810F8014B47
:1001C00014F0030201D110F8012B231106D110F80D
:1001D000013B03E010F8016B01F8016B521EF9D1ED
:1001E000ABB110F8012B04F00C048A1A0C2C03D0CC
:1001F000A2EB84129B1C08E010F8014BA2EB042236
:10020000F8E712F8014B01F8014B5B1EF9D5A94242
:10021000D4D3002070BD00BFFEE7000010B5202041
:1002200000F0F6F848B1202000F032F80021034831
:1002300000F03CF8032001F09DFC10BD1C000240C2
:1002400010B54FF4005000F0E3F850B14FF40050F7
:1002500000F01EF80021034800F028F8012001F00A
:1002600089FC10BD4400024010B54FF0007000F052
:10027000CFF850B14FF0007000F00AF800210348A9
:1002800000F014F8022001F075FC10BD800002405F
:1002900000F0805111B10349086001E00249486053
:1002A00070470000040402400000024021B10268CF
:1002B00042F00102026004E002684FF6FE731A4049
:1002C0000260704701684FF6FE7211400160002124
:1002D000016041608160C1604B49884208D14A4950
:1002E0000839496841F00F01474A083A51608AE0ED
:1002F00045491431884208D143490839496841F0D9
:10030000F001414A083A51607DE03F492831884276
:1003100008D13D490839496841F470613A4A083AC0
:10032000516070E038493C31884208D1364908397B
:10033000496841F47041344A083A516063E03249F7
:100340005031884208D130490839496841F4702158
:100350002D4A083A516056E02B496431884208D151
:1003600029490839496841F47001274A083A51601F
:1003700049E025497831884208D12349083949683C
:1003800041F07061204A083A51603CE01F498842C0
:1003900006D1011F096841F00F01021F116032E010
:1003A0001A491431884208D11849091F096841F0D7
:1003B000F001164A121F116025E0144928318842C5
:1003C00008D11249091F096841F470610F4A121FD0
:1003D000116018E00D493C31884208D10B49091FD2
:1003E000096841F47041094A121F11600BE0074986
:1003F0005031884207D10549091F096841F470212D
:10040000024A121F116070470800024008040240AF
:1004100001460020002201F0805313B1054B1A68F9
:1004200001E0054B1A6802EA01030BB1012000E06C
:100430000020704700040240000002401AB1036827
:100440000B43036002E003688B430360704710B501
:100450000022026847F6F0739A430C6A8B682343C4
:100460000C6923434C6923438C692343CC692343A0
:100470004C6A23438C6A23431A430260CB6843606F
:100480000B6883604B68C36010BD41607047704764
:1004900010B5012000F030F901282DD117488088CF
:1004A000174988801748808817498880174800882E
:1004B000124988801648808C12498880012000F0FB
:1004C00015F914480079144988700221134800F086
:1004D0001CFA012808D012488068401E1049886024
:1004E00001200C49888007E00D488068401C0C49B9
:1004F000886000200749888010BD0000B8010020F6
:10050000B0010020A8010020A00100209E010020D1
:1005100000100040C4010020C00100200010014074
:100520006405002010B5042000F0E6F801282DD164
:100530001748C0881749C8801748C0881749C8801D
:10054000174800881249C8801648808C1249C88014
:10055000042000F0CBF8144880791449C8700821B1
:10056000134800F0D2F9012808D01248C068401C96
:100570001049C86000200C49C88007E00D48C068D9
:10058000401E0C49C86001200749C88010BD00000A
:10059000B8010020B0010020A8010020A001002027
:1005A0009E01002000100040C4010020C001002076
:1005B000001001406405002010B5102000F09CF8E8
:1005C00001282DD11748408817494880174840888E
:1005D0001749488017480088124948801648808C7F
:1005E00012494880102000F081F81448807814499E
:1005F00048704021134800F088F9012808D01248BB
:100600004068401E1049486001200C49488007E0BE
:100610000D484068401C0C4948600020074948804C
:1006200010BD0000B8010020B0010020A80100208A
:10063000A00100209E01002000100040C401002005
:10064000C0010020001001406405002010B52020EA
:1006500000F052F801282DD117480088174908806A
:1006600017480088174908801748008812490880F1
:100670001648808C12490880202000F037F8144872
:100680000078144908708021134800F03EF90128D1
:1006900008D012480068401C1049086000200C492E
:1006A000088007E00D480068401E0C4908600120E2
:1006B0000749088010BD0000B8010020B0010020EB
:1006C000A8010020A00100209E0100200010004091
:1006D000C4010020C001002000100140640500207A
:1006E0000149086070470000140401400149086096
:1006F0007047000014040140014600200022074B0F
:100700001B6803EA0102054B14331B680B4013B14D
:100710000AB1012000E00020704700000004014001
:10072000002123498279002A3AD00A4612680368D8
:100730009A430B461A600A1D126803689A430B1D00
:100740001A60027911440A6803681A430A60184A59
:100750000832126803689A43154B08331A601A1D51
:10076000126803689A43124B0C331A604279102ABC
:100770000ED11A1F126803681A430D4B08331A6012
:100780001A1D126803681A43094B0C331A600DE0F6
:100790000749427911440A6803681A430A6005E070
:1007A000027911440A6803689A430A60704700009E
:1007B0000004014030B500228B071C0F0F2303FA01
:1007C00004F20B4B8C1053F824309343084C8D10DB
:1007D00044F8253023468C1053F824308C07240F1E
:1007E00000FA04F42343024C8D1044F8253030BD48
:1007F000080001402DE9F0410246002500260020B6
:1008000000230024002791F803C00CF00F0591F895
:1008100003C00CF0100CBCF1000F03D091F802C023
:100820004CEA050591F800C0BCF1000F31D0146806
:1008300000202BE04FF0010C0CFA00F3B1F800C0DF
:100840000CEA03069E4220D183004FF00F0C0CFAF5
:1008500003F7BC4305FA03FC4CEA040491F803C017
:10086000BCF1280F06D14FF0010C0CFA00FCC2F8C5
:1008700014C00AE091F803C0BCF1480F05D14FF055
:10088000010C0CFA00FCC2F810C0401C0828D1D39F
:100890001460B1F800C0BCF1FF0F34DD54680020D3
:1008A0002EE000F1080C4FF0010808FA0CF3B1F843
:1008B00000C00CEA03069E4221D183004FF00F0CCA
:1008C0000CFA03F7BC4305FA03FC4CEA040491F864
:1008D00003C0BCF1280F05D100F1080C08FA0CF890
:1008E000C2F8148091F803C0BCF1480F07D100F1A1
:1008F000080C4FF0010808FA0CF8C2F81080401CF0
:100900000828CED35460BDE8F081024600209368E9
:100910000B400BB1012000E000207047416170479F
:1009200010B500BF04210B4800F0BEFF0028F9D12C
:1009300000BF0421084800F0B7FF0028F9D100BF2C
:100940000421064800F0B0FF0028F9D101F01AF99F
:1009500010BD0000D5000020DD000020D9000020DF
:1009600010B50421014800F09FFF10BDD900002000
:100970000246507A137A40EA032144F250608142E1
:1009800002DDA1F57F41FF3905480068091A0A20F8
:1009900091FBF0F0034B18601846006870470000A8
:1009A000E8000020E40000200EB50121084600F018
:1009B000DDF93520019001208DF80A0000208DF826
:1009C000080008208DF8090000210220FFF7F2FE40
:1009D00002210846FFF7EEFE04210220FFF7EAFE9F
:1009E00005210220FFF7E6FE01A8FFF799FE01208E
:1009F0008DF803008DF8010003208DF80200062019
:100A00008DF80000684600F00BF908208DF8000012
:100A1000684600F005F90A208DF80000684600F0ED
:100A2000FFF817208DF80000684600F0F9F8012063
:100A3000FFF756FE0420FFF753FE1020FFF750FE8D
:100A40002020FFF74DFE0EBD08B50121102000F05B
:100A50008DF904208DF80300FF20ADF800006946F1
:100A60000148FFF7C7FE08BD001001401FB5012176
:100A7000102000F06BF90020ADF80A00ADF8060078
:100A80004EF65F20ADF8080040F2CF20ADF804002C
:100A900000208DF80C0001A90D4800F047FD01224F
:100AA00011460B4800F0DCFB36208DF800000120D9
:100AB0008DF8030000208DF801008DF802006846D3
:100AC00000F0AEF80121024800F0ADFB1FBD0000B0
:100AD0000010004000BFFEE7014699B100200EE083
:100AE000114A32F81020114B53F820301A800E4A68
:100AF00032F810200E4B23F81020421CD0B20528EB
:100B0000EEDB0FE000200BE007220A4B23F8102059
:100B1000054A32F81020064B23F81020421CD0B2B0
:100B20000528F1DB704700005A030020380300203D
:100B3000640300206E03002000BFFEE708B501211A
:100B4000082000F013F918208DF8030003208DF819
:100B500002004FF47070ADF8000069460148FFF7DD
:100B600049FE08BD000C014010B500F011FBFFF775
:100B7000E5FF00F007F8FFF767FFFFF715FFFFF746
:100B800075FF10BD00B587B00121042000F0DEF82C
:100B90000020ADF81600ADF8120041F61F40ADF888
:100BA00014000020ADF810008DF8180004A91A48B0
:100BB00000F0BCFC6020ADF800000020ADF808009B
:100BC0000120ADF802000020ADF806006946124889
:100BD00000F050FB6946104800F0A2FB69460E4841
:100BE00000F0FEFB69460C4800F054FC08210A485E
:100BF00000F08CFB0821084800F0E4FB08210648BF
:100C000000F03EFC0821044800F082FC012102486B
:100C100000F009FB07B000BD00080040704700006D
:100C200070B5002100230F22C47804B3154C24684A
:100C300004F4E064C4F5E064210AC1F10403CA408D
:100C4000447804FA03F184781440214309010E4CDE
:100C50000678A155047804F01F050124AC400578FE
:100C60006D11AD0005F1E025C5F8004109E00478FB
:100C700004F01F050124AC40044D0678761145F8B8
:100C8000264070BD0CED00E000E400E080E100E0F3
:100C900002490143024A1160704700000000FA0552
:100CA0000CED00E070B54FF4A060FFF7F1FF4821B4
:100CB000322000F0F3F900F01DFE00F0BBFE00F062
:100CC0006DF9FFF751FFFFF72BFE02201249087064
:100CD0001249B1F1807F00D31DE021F07F40401E1A
:100CE0004FF0E022506150170F22002807DA130757
:100CF0001D0E0B4B00F00F04241F1D5503E01307BE
:100D00001C0E084B1C5400BF00204FF0E0229061E5
:100D10000720106100BF70BD4C040020407E05001C
:100D200018ED00E000E400E07047000029B1064A39
:100D300052690243044B5A6104E0034A52698243F8
:100D4000014B5A61704700000010024029B1064A69
:100D5000D2690243044BDA6104E0034AD269824358
:100D6000014BDA61704700000010024029B1064AC9
:100D700092690243044B9A6104E0034A92698243F8
:100D8000014B9A61704700000010024030B500210D
:100D90000022002400232D4D6D6805F00C0121B1C7
:100DA000042905D0082923D105E0294D056022E05A
:100DB000274D05601FE0254D6D6805F47012234D29
:100DC0006D6805F48034022505EB92421CB9214D73
:100DD000554305600BE01D4D6D6805F400351DB1F0
:100DE0001C4D5543056002E0194D5543056002E076
:100DF000174D056000BF00BF144D6D6805F0F00190
:100E00000909154D6B5C0568DD4045600F4D6D6847
:100E100005F4E061090A104D6B5C4568DD408560B2
:100E20000A4D6D6805F46051C90A0B4D6B5C45684D
:100E3000DD40C560054D6D6805F44041890B074DE7
:100E40006B5CC568B5FBF3F5056130BD0010024071
:100E500000127A0000093D00000000201000002070
:100E6000014800687047000048040020704710B532
:100E700000F002F810BD00000CB5002001900090B9
:100E80003348006840F480303149086000BF304882
:100E9000006800F4003000900198401C0190009818
:100EA00018B90198B0F5A06FF1D12948006800F495
:100EB000003010B10120009001E000200090009867
:100EC000012843D12348006840F010002149086000
:100ED0000846006820F0030008600846006840F0FB
:100EE000020008601A48406819494860084640688E
:100EF00048600846406840F48060486008464068A2
:100F000020F47C1048600846406840F4E8104860CF
:100F10000846006840F08070086000BF0C48006818
:100F200000F000700028F9D00948406820F0030064
:100F3000074948600846406840F00200486000BF2A
:100F40000348406800F00C000828F9D10CBD0000EF
:100F5000001002400020024008B501210420FFF7E4
:100F600005FF01210820FFF701FF18208DF803007D
:100F700003208DF80200C320ADF800006946054843
:100F8000FFF738FC0320ADF8000069460248FFF780
:100F900031FC08BD00080140000C014010B5FFF70E
:100FA000DBFF00F00FF80120FFF796FDFFF758FF79
:100FB0000446214601A000F01FFE10BD25643A2022
:100FC000720A000000B587B001210846FFF7BEFE97
:100FD00001210220FFF7BAFE0020ADF81600ADF89F
:100FE000120044F61F60ADF814004720ADF8100061
:100FF00000208DF8180004A94FF0804000F096FA08
:1010000004A9254800F092FA6020ADF80000002005
:10101000ADF808000120ADF802000020ADF8060090
:1010200069464FF0804000F025F969464FF0804056
:1010300000F076F96946184800F01CF96946164830
:1010400000F06EF96946144800F0CAF96946124882
:1010500000F020FA0821C80600F058F90821C80657
:1010600000F0B0F908210C4800F050F908210A48B6
:1010700000F0A8F90821084800F002FA0821064803
:1010800000F046FA0121880700F0CDF8012102485E
:1010900000F0C9F807B000BD000400407FB5044669
:1010A0000D4601212020FFF751FE0020ADF80A0077
:1010B000ADF80600ADF80450ADF808408DF80C000E
:1010C00001A90D4800F032FA012211460A4800F049
:1010D000C7F837208DF8000001208DF803000020AC
:1010E0008DF801008DF802006846FFF799FD012197
:1010F000014800F098F87FBD001400400A480068DD
:10110000401C094908600948007830B1012805D021
:10111000022804D0032804D102E003E002E001E049
:1011200000E000BF00BF7047440400204C040020D2
:1011300010B51348006840F00100114908600846E6
:101140004068104908400E494860084600680E494A
:1011500008400B4908600846006820F480200860B9
:101160000846406820F4FE0048604FF41F00886085
:10117000FFF77DFE4FF000600449086010BD0000DD
:10118000001002400000FFF8FFFFF6FE08ED00E04F
:1011900008B501211020FFF7E9FD10208DF80300AC
:1011A00003208DF802004FF47F40ADF8000069463F
:1011B0000448FFF71FFB4FF47F410248FFF7AEFBE7
:1011C00008BD00000010014010B50121074800F0E3
:1011D00036F8012808D106480088401C04490880D8
:1011E0000121024800F01CF810BD00000010004072
:1011F0009E01002010B50121074800F020F80128C9
:1012000008D106480068401C0449086001210248D2
:1012100000F006F810BD0000001400404804002053
:10122000CA430282704721B1028842F00102028063
:1012300004E002884FF6FE731A400280704730B512
:101240000246002000230024158A05EA010395893F
:1012500005EA010413B10CB1012000E0002030BD0B
:101260001AB183890B43838102E083898B43838195
:101270007047000070B5002400220023058C4FF653
:10128000FE7635400584028C8388048B4FF68F757B
:101290002C40B51E2C400D882C43751E2A400D890C
:1012A0002A434D882A43144DA8420BD0134DA8421F
:1012B00008D0134DA84205D0124DA84202D0124DBD
:1012C000A84213D14FF6F7752A404D892A434FF6AD
:1012D000FB752A408D882A434FF6FF652B404FF659
:1012E000FF552B408D892B43CD892B43838004836D
:1012F000CD888586028470BD002C014000340140F9
:101300000040014000440140004801400A460021DD
:10131000018B4FF6F77319401143018370470000AA
:1013200070B5002400220023058C4FF6EF7635407F
:101330000584028C8388048B48F6FF752C404FF699
:10134000FF452C400D884FF6FF7606EA05252C4315
:101350004FF6DF752A400D8906EA05152A434D88A8
:1013600006EA05152A43154DA84202D0144DA8429D
:101370001DD14FF67F752A404D894FF6FF7606EA5C
:1013800005152A434FF6BF752A408D8806EA0515D4
:101390002A434FF6FF352B404FF2FF752B408D89C6
:1013A00006EA85052B43CD8906EA85052B43838014
:1013B0000483CD880587028470BD0000002C0140A5
:1013C000003401400A460021018B4FF2FF7319409F
:1013D0004FF6FF7303EA02231943018370470000AD
:1013E00070B5002400220023058C4FF6FF663540BF
:1013F0000584028C8388848B4FF68F752C404FF6C2
:10140000FC752C400D882C434FF6FF552A400D8962
:101410004FF6FF7606EA05252A434D8806EA05259C
:101420002A43154DA84202D0144DA8421DD14FF2B7
:10143000FF752A404D894FF6FF7606EA05252A43B7
:101440004FF6FF352A408D8806EA05252A434EF6D9
:10145000FF752B404DF6FF752B408D8906EA05156B
:101460002B43CD8906EA05152B4383808483CD88E1
:101470008587028470BD0000002C014000340140CB
:101480000A460021818B4FF6F7731940114381837F
:101490007047000070B5002200230024058C4EF632
:1014A000FF7635400584038C8488828B48F6FF756F
:1014B0002A404FF6FF452A400D884FF6FF7606EA90
:1014C00005252A434DF6FF752B400D8906EA0535A3
:1014D0002B434D8806EA05352B430B4DA84202D01D
:1014E0000A4DA84208D14BF6FF752C408D894FF666
:1014F000FF7606EA85152C4384808283CD88A0F888
:101500004050038470BD0000002C014000340140B5
:101510000A460021818B4FF2FF7319404FF6FF738B
:1015200003EA0223194381837047000000220288E6
:101530001D4B98420ED01D4B98420BD0B0F1804FFE
:1015400008D01B4B984205D01A4B984202D01A4B38
:10155000984204D14FF68F731A404B881A43174BA9
:10156000984207D0164B984204D04FF6FF431A40DA
:10157000CB881A4302808B8883850B8803850A4BAE
:1015800098420BD0094B984208D00E4B984205D098
:101590000D4B984202D00D4B984201D10B7A038635
:1015A0000123838270470000002C01400034014079
:1015B0000004004000080040000C00400010004003
:1015C0000014004000400140004401400048014038
:1015D00010B540F225510C4800F09FF898B10B4827
:1015E00004780078401C094908703F2C06D0064852
:1015F00000F04EF9C1B2054A601C115440F2255169
:10160000014800F059F810BD00380140E405002001
:1016100010B540F225510E4800F07FF8B8B10D48E2
:1016200090F8404090F84000401C0A4981F8400082
:101630003F2C07D0064800F02BF9C2B205484030D5
:10164000611C425440F22551014800F035F810BDAC
:1016500000440040E405002010B540F22551144834
:1016600000F05BF810B3134890F8804090F88000C9
:10167000401C104981F880000D4800F009F9C2B201
:101680000C488030611C4254803890F880000B2850
:1016900007D10020074981F8800001F18100FFF7A0
:1016A00067F940F22551024800F006F810BD00002D
:1016B00000480040E405002010B50022002340F659
:1016C0006A14A14200D100BF0A1201249440A3B2BF
:1016D000DC43048010BD21B1828942F40052828132
:1016E00004E082894DF6FF731A40828170471AB177
:1016F000838A0B43838202E0838A8B438382704711
:1017000002460020B1F5007F00D100BF13880B40D6
:101710000BB1012000E00020704770B502460024A4
:1017200000230025002040F66A16B14200D100BF18
:10173000C1F3421501F01F03012606FA03F3012D40
:1017400002D19689334006E0022D02D1168A334039
:1017500001E0968A33400C12012606FA04F416883A
:10176000344013B10CB1012000E0002070BDF0B591
:101770000346002400260025002040F66A17B942DF
:1017800000D100BF1846C1F3421401F01F06012723
:1017900007FA06F5012C01D10C3004E0022C01D12E
:1017A000103000E014301AB107682F43076002E0E0
:1017B0000768AF430760F0BD2DE9F04786B00546E6
:1017C0000E460024A24600BFA1460027B08900B102
:1017D00000BF2F462C8A4CF6FF700440F08804436B
:1017E0002C82AC894EF6F3100440B088318908434E
:1017F000718908430443AC81AC8A4FF6FF40044032
:10180000B0890443AC8201A8FFF7C0FA1F488742A1
:1018100002D1DDF810A001E0DDF80CA0A88900F4E9
:10182000004040B10AEBCA0000EB0A1031684900E1
:10183000B0FBF1F807E00AEBCA0000EB0A103168D0
:101840008900B0FBF1F86420B8FBF0F00401200936
:10185000642101FB1089A88900F4004040B13220C6
:1018600000EBC900B0FBF1F000F00700044308E012
:10187000322000EB09106421B0FBF1F000F00F0002
:1018800004432C8106B0BDE8F08700000038014019
:1018900001468888C0F308007047C1F308028280BF
:1018A000704700BFFEE7000070B505460E460E48C3
:1018B0008078B0B901200C498870002405E02878B0
:1018C0000A4908556D1C601CC4B2B442F7DB3146AE
:1018D0000748FEF7DAFD01210548FEF7E7FC002086
:1018E00070BD0120FCE700009D02002004070020DD
:1018F0001C00024000B587B001210420FFF736FA32
:1019000001210820FFF732FA18208DF80B00032080
:101910008DF80A004FF40170ADF8080002A94048A4
:10192000FEF768FF4FF48060ADF8080002A93D485B
:10193000FEF760FF04208DF80B004FF48160ADF8D6
:10194000080002A93648FEF755FF4FF40060ADF8D5
:10195000080002A93348FEF74DFF4FF4E130039031
:101960000020ADF818000C20ADF816000020ADF8EE
:101970001400ADF81200ADF8100001218803FFF744
:10198000F5F901214804FFF7E1F901218804FFF787
:10199000DDF903A92448FFF70FFF03A92348FFF748
:1019A0000BFF03A92248FFF707FF01208DF807006E
:1019B00002208DF8050001208DF8060025208DF805
:1019C000040001A8FFF72CF926208DF8040001A8D7
:1019D000FFF726F927208DF8040001A8FFF720F96A
:1019E000012240F225511048FFF7C1FE012240F2CA
:1019F00025510E48FFF7BBFE012240F225510C484D
:101A0000FFF7B5FE01210848FFF765FE01210748F1
:101A1000FFF761FE01210648FFF75DFE07B000BD3C
:101A200000080140000C0140003801400044004023
:101A30000048004000B58DB001210846FFF776F957
:101A4000002005901020049000200C900990802028
:101A5000079000200A90089006904FF400500B90D9
:101A600001208DF805008DF806000E208DF8040089
:101A700001208DF8070001A8FFF7D2F811208DF89A
:101A8000040001208DF8070001A8FFF7C9F80C2019
:101A90008DF8040001208DF8070001A8FFF7C0F8B9
:101AA0002D4803902D48029040140B902C48FEF7CF
:101AB00009FC4FF48050FEF7EBFB0122022128487D
:101AC000FEF7BCFC02A92648FEF7C1FC254803909E
:101AD0002548029040140B9021483C30FEF7F2FB61
:101AE0004FF08070FEF7D4FB012202211C483C30ED
:101AF000FEF7A4FC02A91A483C30FEF7A8FC1B48DC
:101B000003901B48029040140B9015482838FEF7AC
:101B1000D9FB1020FEF7BCFB012202211048283817
:101B2000FEF78CFC02A90E482838FEF790FC012233
:101B300080210A48001FFFF7DAFD012280210A48B0
:101B4000001FFFF7D4FD012280210948001FFFF785
:101B5000CEFD0DB000BD0000A406002004380140F9
:101B600044000240D4060020044400400407002042
:101B7000044800400022411E014B5A5470470000A7
:101B80009D02002010B5FFF76BF90446FEF7E8FE52
:101B90001FE0FFF765F913490968401A642818D94E
:101BA000FFF75EF90F4908600F4800680F490968A0
:101BB000884203D000200E49087004E00C480078E9
:101BC000401C0B4908700948006807490860FEF787
:101BD000C7FE074800786428DBD10448006805493F
:101BE000086010BDF4000020F0000020E400002098
:101BF000EC000020E80000200FB4054B10B503A94D
:101C0000044A029800F018F810BC5DF814FB0000BC
:101C10008D1D00085004002002E008C8121F08C1F2
:101C2000002AFAD170477047002001E001C1121F5D
:101C3000002AFBD1704700002DE9FF4F89B09B4679
:101C40000446002506E025280BD05A460B999047FC
:101C5000641C6D1C20780028F5D10DB02846BDE825
:101C6000F08F0027B8460122474900E0074314F8E7
:101C7000013F203B02FA03F00842F7D120782E28DA
:101C800019D114F8010F47F004072A280ED06FF07D
:101C90002F022078A0F1300109290CD808EB880127
:101CA00002EB410100EB0108641CF2E70A98641C96
:101CB00050F8048B0A9020780028CED0642808D0F1
:101CC000692806D075281ED05A460B9990476D1C7E
:101CD00058E00A994FF00A0901C90A91002802DA6E
:101CE00040422D2102E0390504D52B218DF820102A
:101CF000012103E0F90704D02021F7E78A4608AE66
:101D00000DE00021FAE70A994FF00A0901C90A918A
:101D1000F7E74946FEF728FA303106F8011D00289A
:101D2000F7D1ADEB060000F12009780701D44FF0A0
:101D30000108C84502DDA8EB090000E0002080464C
:101D4000002706E008A85A46C05D0B9990476D1C15
:101D50007F1C5745F6DB04E030205A460B9990472C
:101D60006D1CB8F10001A8F10108F5DC05E016F8DA
:101D7000010B5A460B9990476D1CB9F10001A9F16E
:101D80000109F4DC641C65E70928010070B504460C
:101D90000D46A1B20548FFF780FD00BF8021034832
:101DA000FFF7AEFC0028F9D0204670BD0038014096
:101DB000FEF778FF00BFFEE7D81D000800000020F6
:101DC00054040000B8010008681E000854040020F4
:101DD000E4060000281C000812000120050102038F
:101DE0000404000A3106070809020406080001106D
:101DF00006340400403804123C0412400C13340032
:101E00001011048015965A5A00E457A41FA41FE726
:101E1000099D039001BA092C010A4303000202271D
:101E20000668701DAE00104081CFA1C8A6A83FD3A0
:101E300000D580D9F1DA12DB4020028D14A4A6AFC0
:101E400025000D81A555100AA55601FCA55702FED7
:101E5000B401128F0123C8015D0105FE00053A9807
:081E600005663C05B2B000006C
:0400000508000131BD
:00000001FF
