:020000040800F2
:10000000A0050020010100088506000883050008FE
:1000100081060008E9010008DB0C00080000000070
:10002000000000000000000000000000450800087B
:1000300067040008000000000D07000831090008EF
:100040001B0100081B0100081B0100081B01000820
:100050001B0100081B0100081B0100081B01000810
:100060001B0100081B0100081B0100081B01000800
:100070001B0100081B010008ED0100081B0100081E
:100080001B0100081D0200081B0100081B010008DD
:100090001B0100081B0100081B0100081B010008D0
:1000A0001B0100081B0100081B0100081B010008C0
:1000B0001B0100081B0100081B0100081B010008B0
:1000C0001B0100081B0100081B0100081B010008A0
:1000D0001B0100085D0A0008A10A00081B010008B6
:1000E0001B0100081B0100081B010008DFF80CD0F1
:1000F00000F02EF800480047A1100008A0050020DD
:100100000648804706480047FEE7FEE7FEE7FEE7B1
:10011000FEE7FEE7FEE7FEE7FEE7FEE7B5090008BB
:10012000ED00000830B50B460146002020220124D6
:1001300009E021FA02F59D4205D303FA02F5491BB5
:1001400004FA02F52844151EA2F10102F1DC30BDCB
:10015000064C074D06E0E06840F0010394E8070014
:1001600098471034AC42F6D3FFF7C4FFA81000083C
:10017000C810000870B54FF4A06000F0BDFA00F0A0
:10018000D5FD00F0F5FD00F041FE00F0FDF900F0B6
:100190005DFA1249B1F1807F00D31DE021F07F406C
:1001A000401E4FF0E022506150170F22002807DA5E
:1001B00013071D0E0A4B00F00F04241F1D5503E00A
:1001C00013071C0E074B1C5400BF00204FF0E02209
:1001D00090610720106100BF70BD000080320200F6
:1001E00018ED00E000E400E000BFFEE710B54FF4BA
:1001F000005000F0F9F801280AD10021054800F06C
:1002000041F84FF4005000F02FF800200249087028
:1002100010BD0000440002406800002010B54FF0FF
:10022000007000F0E1F801280AD10021054800F033
:1002300029F84FF0007000F017F8002002494870CC
:1002400010BD0000800002406800002000F08051D6
:1002500011B10349086001E002494860704700009D
:10026000040402400000024000F0805111B1034933
:10027000086001E002494860704700000404024041
:100280000000024021B1026842F00102026004E075
:1002900002684FF6FE731A400260704701684FF61D
:1002A000FE72114001600021016041608160C16007
:1002B0004B49884208D14A490839496841F00F0141
:1002C000474A083A51608AE045491431884208D1CA
:1002D00043490839496841F0F001414A083A516000
:1002E0007DE03F492831884208D13D4908394968B5
:1002F00041F470613A4A083A516070E038493C3143
:10030000884208D136490839496841F47041344A75
:10031000083A516063E032495031884208D130498F
:100320000839496841F470212D4A083A516056E075
:100330002B496431884208D129490839496841F478
:100340007001274A083A516049E0254978318842CE
:1003500008D123490839496841F07061204A083AB8
:1003600051603CE01F49884206D1011F096841F0F5
:100370000F01021F116032E01A491431884208D17E
:100380001849091F096841F0F001164A121F11604F
:1003900025E014492831884208D11249091F09680B
:1003A00041F470610F4A121F116018E00D493C3191
:1003B000884208D10B49091F096841F47041094A74
:1003C000121F11600BE007495031884207D10549DF
:1003D000091F096841F47021024A121F1160704719
:1003E000080002400804024001460020002201F0FB
:1003F000805313B1054B1A6801E0054B1A6802EAF5
:1004000001030BB1012000E000207047000402400E
:10041000000002401AB103680B43036002E0036866
:100420008B430360704710B50022026847F6F073F3
:100430009A430C6A8B6823430C6923434C6923431A
:100440008C692343CC6923434C6A23438C6A23433E
:100450001A430260CB6843600B6883604B68C360DB
:1004600010BD4160704770472DE9F04102460025FC
:100470000026002000230024002791F803C00CF080
:100480000F0591F803C00CF0100CBCF1000F03D065
:1004900091F802C04CEA050591F800C0BCF1000FCC
:1004A00031D0146800202BE04FF0010C0CFA00F35F
:1004B000B1F800C00CEA03069E4220D183004FF041
:1004C0000F0C0CFA03F7BC4305FA03FC4CEA0404D6
:1004D00091F803C0BCF1280F06D14FF0010C0CFAC3
:1004E00000FCC2F814C00AE091F803C0BCF1480F48
:1004F00005D14FF0010C0CFA00FCC2F810C0401CF2
:100500000828D1D31460B1F800C0BCF1FF0F34DD6E
:10051000546800202EE000F1080C4FF0010808FAA2
:100520000CF3B1F800C00CEA03069E4221D183000F
:100530004FF00F0C0CFA03F7BC4305FA03FC4CEA2E
:10054000040491F803C0BCF1280F05D100F1080C98
:1005500008FA0CF8C2F8148091F803C0BCF1480FF7
:1005600007D100F1080C4FF0010808FA0CF8C2F8A6
:100570001080401C0828CED35460BDE8F081016192
:10058000704700BFFEE7000008B50121042000F01D
:10059000DFF80121082000F0DBF848208DF8030087
:1005A0008020ADF8000069460548FFF75DFF40F682
:1005B0000340ADF8000069460248FFF755FF08BD4B
:1005C00000080140000C0140002111E00A4850F8E9
:1005D00021000088094A32F81120104018B101208A
:1005E000074A505402E00020054A5054481CC1B24A
:1005F0000529EBDB0248704714000020280000208A
:100600003200002010B5FFF7DFFF04460521204629
:1006100000F066FB012003490860034800680349B5
:10062000086010BD9C000020900000209400002075
:1006300020B14FF40051044A116103E04FF400511E
:10064000014A5161704700000010014008B50121C6
:10065000102000F07DF810208DF803004002ADF866
:10066000000003208DF8020069460448FFF7FCFEF5
:100670004FF400510148FFF782FF08BD0010014010
:1006800000BFFEE77047000070B5002100230F2275
:10069000C47804B3154C246804F4E064C4F5E06441
:1006A000210AC1F10403CA40447804FA03F18478B2
:1006B0001440214309010E4C0678A155047804F03A
:1006C0001F050124AC4005786D11AD0005F1E02552
:1006D000C5F8004109E0047804F01F050124AC408E
:1006E000044D0678761145F8264070BD0CED00E00B
:1006F00000E400E080E100E002490143024A1160A9
:10070000704700000000FA050CED00E070470000A3
:1007100029B1064A52690243044B5A6104E0034A74
:1007200052698243014B5A61704700000010024039
:1007300029B1064AD2690243044BDA6104E0034A54
:10074000D2698243014BDA61704700000010024019
:1007500029B1064A92690243044B9A6104E0034AB4
:1007600092698243014B9A61704700000010024079
:1007700030B500210022002400232D4D6D6805F0C6
:100780000C0121B1042905D0082923D105E0294D08
:10079000056022E0274D05601FE0254D6D6805F4DA
:1007A0007012234D6D6805F48034022505EB9242EA
:1007B0001CB9214D554305600BE01D4D6D6805F4D6
:1007C00000351DB11C4D5543056002E0194D5543E0
:1007D000056002E0174D056000BF00BF144D6D6855
:1007E00005F0F0010909154D6B5C0568DD404560B9
:1007F0000F4D6D6805F4E061090A104D6B5C4568AA
:10080000DD4085600A4D6D6805F46051C90A0B4DE5
:100810006B5C4568DD40C560054D6D6805F4404181
:10082000890B074D6B5CC568B5FBF3F5056130BD01
:100830000010024000127A0000093D00A5000020CF
:10084000B5000020704710B500F002F810BD0000A0
:100850000CB50020019000903348006840F48030CF
:100860003149086000BF3048006800F40030009053
:100870000198401C0190009818B90198B0F5A06F3C
:10088000F1D12948006800F4003010B10120009037
:1008900001E0002000900098012843D1234800681F
:1008A00040F01000214908600846006820F003006D
:1008B00008600846006840F0020008601A48406876
:1008C000194948600846406848600846406840F456
:1008D000806048600846406820F47C104860084604
:1008E000406840F4E81048600846006840F08070B6
:1008F000086000BF0C48006800F000700028F9D0C4
:100900000948406820F003000749486008464068ED
:1009100040F00200486000BF0348406800F00C004F
:100920000828F9D10CBD0000001002400020024050
:100930001CB519480068401C174908600846006843
:100940006421B0FBF1F201FB120060B9FFF73CFE3D
:1009500004462079E178CDE90010A3786278217807
:100960000EA000F0C1FA0C480068B0F1807F04D3FB
:1009700000200F49086008490860074800680C49D2
:100980000968401A642802D900F044F802E0002007
:10099000FFF74EFE1CBD00009000002025642025BE
:1009A000642025642025642025640D0A00000000D1
:1009B0009400002010B51348006840F00100114970
:1009C000086008464068104908400E4948600846DB
:1009D00000680E4908400B4908600846006820F48A
:1009E000802008600846406820F4FE0048604FF40C
:1009F0001F008860FFF727FF4FF000600449086080
:100A000010BD0000001002400000FFF8FFFFF6FEDE
:100A100008ED00E010B50F480078012809D00E4815
:100A20000068C82805D901200A4908700020FFF78E
:100A3000FFFD09480068401C074908600846006837
:100A4000FA2806D900200860024908700120FFF743
:100A5000EFFD10BDA4000020A000002010B540F262
:100A600025510D4800F075F8A0B10C480078401CE5
:100A70000A490870084600783F2806DA064800F060
:100A800023F906490978054A505440F22551024895
:100A900000F02EF810BD00000038014020010020B9
:100AA00010B540F22551104800F053F8D8B10F4866
:100AB00090F84000401C0D4981F84000084690F82D
:100AC00040003F2808DA084800F0FEF8C1B20748A5
:100AD00090F8402040308154FFF794FD40F22551BA
:100AE000014800F005F810BD00440040200100203E
:100AF00010B50022002340F66A14A14200D100BFC5
:100B00000A1201249440A3B2DC43048010BD21B139
:100B1000828942F40052828104E082894DF6FF739B
:100B20001A40828170471AB1838A0B43838202E0A4
:100B3000838A8B438382704702460020B1F5007F91
:100B400000D100BF13880B400BB1012000E0002052
:100B5000704770B50246002400230025002040F6AF
:100B60006A16B14200D100BFC1F3421501F01F0364
:100B7000012606FA03F3012D02D19689334006E0DF
:100B8000022D02D1168A334001E0968A33400C12BE
:100B9000012606FA04F41688344013B10CB1012082
:100BA00000E0002070BDF0B50346002400260025BB
:100BB000002040F66A17B94200D100BF1846C1F3C1
:100BC000421401F01F06012707FA06F5012C01D196
:100BD0000C3004E0022C01D1103000E014301AB1C6
:100BE00007682F43076002E00768AF430760F0BD66
:100BF0002DE9F04786B005460E460024A24600BF08
:100C0000A1460027B08900B100BF2F462C8A4CF6C0
:100C1000FF700440F08804432C82AC894EF6F31038
:100C20000440B08831890843718908430443AC818A
:100C3000AC8A4FF6FF400440B0890443AC8201A85F
:100C4000FFF796FD1F48874202D1DDF810A001E0B2
:100C5000DDF80CA0A88900F4004040B10AEBCA00FE
:100C600000EB0A1031684900B0FBF1F807E00AEB2D
:100C7000CA0000EB0A1031688900B0FBF1F864206B
:100C8000B8FBF0F004012009642101FB1089A88958
:100C900000F4004040B1322000EBC900B0FBF1F09D
:100CA00000F00700044308E0322000EB0910642143
:100CB000B0FBF1F000F00F0004432C8106B0BDE85A
:100CC000F08700000038014001468888C0F3080022
:100CD0007047C1F308028280704700BFFEE7000042
:100CE00070B505460E460E484078012815D0002400
:100CF00004E0285D0B490855601CC4B2B442F8DB1F
:100D000031460948FFF7ADFB01210748FFF7BAFA62
:100D1000012003494870002070BD0120FCE700005D
:100D200068000020F00000208000024008B501218A
:100D30000420FFF70DFD18208DF803004FF401701B
:100D4000ADF8000003208DF8020069460748FFF760
:100D50008BFB4FF48160ADF8000004208DF8030098
:100D600069460248FFF780FB08BD0000000801400B
:100D700000B585B001218803FFF7EAFC0121480492
:100D8000FFF7D6FC4FF4E13001900020ADF81000E1
:100D9000ADF80C00ADF80A00ADF808000C20ADF875
:100DA0000E0001A91748FFF723FF01A91648FFF716
:100DB0001FFF01208DF803008DF801008DF802005F
:100DC00025208DF800006846FFF75EFC26208DF890
:100DD00000006846FFF758FC012240F225510948FF
:100DE000FFF7E1FE012240F225510748FFF7DBFE45
:100DF00001210448FFF78BFE01210348FFF787FE1E
:100E000005B000BD003801400044004000B58DB081
:100E100001210846FFF77CFC00200590102004907B
:100E200000200C9009908020079000200A900890E4
:100E300006904FF400500B902648029026480390ED
:100E40002648FFF72BFA4FF48050FFF7FFF90122F5
:100E500002212248FFF7DEFA02A92048FFF7E3FA51
:100E60001F4802901F4803901C483C30FFF716FAB9
:100E70004FF08070FFF7EAF90122022117483C3059
:100E8000FFF7C8FA02A915483C30FFF7CCFA012059
:100E90008DF8070000208DF805008DF806000E2063
:100EA0008DF8040001A8FFF7EFFB11208DF8040076
:100EB00001A8FFF7E9FB012280210648001FFFF788
:100EC00032FE012280210648001FFFF72CFE0DB0E4
:100ED00000BD000004380140C00000204400024072
:100EE00004440040F00000200FB4054B10B503A9E6
:100EF000044A029800F018F810BC5DF814FB0000DA
:100F00007D100008BC00002002E008C8121F08C1C4
:100F1000002AFAD170477047002001E001C1121F7A
:100F2000002AFBD1704700002DE9FF4F89B09B4696
:100F30000446002506E025280BD05A460B99904719
:100F4000641C6D1C20780028F5D10DB02846BDE842
:100F5000F08F0027B8460122474900E0074314F804
:100F6000013F203B02FA03F00842F7D120782E28F7
:100F700019D114F8010F47F004072A280ED06FF09A
:100F80002F022078A0F1300109290CD808EB880144
:100F900002EB410100EB0108641CF2E70A98641CB3
:100FA00050F8048B0A9020780028CED0642808D00E
:100FB000692806D075281ED05A460B9990476D1C9B
:100FC00058E00A994FF00A0901C90A91002802DA8B
:100FD00040422D2102E0390504D52B218DF8201047
:100FE000012103E0F90704D02021F7E78A4608AE83
:100FF0000DE00021FAE70A994FF00A0901C90A91A8
:10100000F7E74946FFF78EF8303106F8011D002852
:10101000F7D1ADEB060000F12009780701D44FF0BD
:101020000108C84502DDA8EB090000E00020804669
:10103000002706E008A85A46C05D0B9990476D1C32
:101040007F1C5745F6DB04E030205A460B99904749
:101050006D1CB8F10001A8F10108F5DC05E016F8F7
:10106000010B5A460B9990476D1CB9F10001A9F18B
:101070000109F4DC641C65E70928010070B5044629
:101080000D46A1B20548FFF724FE00BF80210348AA
:10109000FFF752FD0028F9D0204670BD003801400E
:1010A000FFF768F800BFFEE7C81000080000002046
:1010B000C0000000080F000888110008C0000020D0
:1010C000E0040000180F000800000000000000000D
:1010D000000000000000000000000000080C0140BB
:1010E000080C0140080C0140080C014008080140B0
:1010F0000008000402000100800000000000000061
:10110000080C0140080C0140080C0140080C01408B
:1011100008080140000800040200010080000000EF
:1011200000000000000000000000000000000000BF
:101130000000000000000000080C0140080C014005
:10114000080C0140080C0140080801400008000498
:10115000020001008000000000000000000000000C
:10116000000000000000000000000000000000007F
:101170000001020304010203040607080902040631
:0811800008000000000000005F
:04000005080000ED02
:00000001FF
