:020000040800F2
:10000000E00D002001010008150400082D03000880
:100010001104000849010008470B00080000000017
:10002000000000000000000000000000B107000810
:100030000D02000800000000990600089D08000855
:100040001B0100081B0100081B0100081B01000820
:100050001B0100081B0100081B0100081B01000810
:100060001B0100081B0100081B0100081B01000800
:100070001B0100081B0100084D0100081B010008BE
:100080001B0100087D0100081B0100081B0100087E
:100090001B0100081B0100081B0100081B010008D0
:1000A0001B0100081B0100081B0100081B010008C0
:1000B0001B0100081B0100081B0100081B010008B0
:1000C0001B0100081B0100081B0100081B010008A0
:1000D0001B01000801090008450900081B01000870
:1000E0001B0100081B0100081B010008DFF80CD0F1
:1000F00000F018F800480047070C0008E00D002049
:100100000648804706480047FEE7FEE7FEE7FEE7B1
:10011000FEE7FEE7FEE7FEE7FEE7FEE7A1080008D0
:10012000ED000008064C074D06E0E06840F00103D2
:1001300094E8070098471034AC42F6D3FFF7DAFF93
:10014000100C0008300C000800BFFEE710B54FF49B
:10015000005000F045F801280AD10021054800F0C0
:1001600033F84FF4005000F021F8002002490870E5
:1001700010BD0000440002401800002010B54FF0F0
:10018000007000F02DF801280AD10021054800F088
:100190001BF84FF0007000F009F800200249487089
:1001A00010BD0000800002401800002000F08051C7
:1001B00011B10349086001E002494860704700003E
:1001C000040402400000024021B1026842F0010232
:1001D000026004E002684FF6FE731A400260704746
:1001E00001460020002201F0805313B1054B1A682C
:1001F00001E0054B1A6802EA01030BB1012000E09F
:1002000000207047000402400000024070472DE9C2
:10021000F04102460025002600200023002400278C
:1002200091F803C00CF00F0591F803C00CF0100C0E
:10023000BCF1000F03D091F802C04CEA050591F81B
:1002400000C0BCF1000F31D0146800202BE04FF04B
:10025000010C0CFA00F3B1F800C00CEA03069E4250
:1002600020D183004FF00F0C0CFA03F7BC4305FAC2
:1002700003FC4CEA040491F803C0BCF1280F06D13A
:100280004FF0010C0CFA00FCC2F814C00AE091F81F
:1002900003C0BCF1480F05D14FF0010C0CFA00FC73
:1002A000C2F810C0401C0828D1D31460B1F800C0B7
:1002B000BCF1FF0F34DD546800202EE000F1080C83
:1002C0004FF0010808FA0CF3B1F800C00CEA03067D
:1002D0009E4221D183004FF00F0C0CFA03F7BC4370
:1002E00005FA03FC4CEA040491F803C0BCF1280FA2
:1002F00005D100F1080C08FA0CF8C2F8148091F846
:1003000003C0BCF1480F07D100F1080C4FF0010801
:1003100008FA0CF8C2F81080401C0828CED35460AC
:10032000BDE8F081416170470161704700BFFEE7A1
:1003300008B50121042000F0C1F910208DF8030058
:10034000A020ADF8000003208DF8020069460648A1
:10035000FFF75DFF20210448FFF7E6FF80210248F8
:10036000FFF7E2FF08BD00000008014070B5044639
:10037000002517E004F0800020B180210B48FFF732
:10038000D3FF03E080210948FFF7CCFF2021074875
:10039000FFF7CAFF20210548FFF7C4FF6006040EDF
:1003A000681CC5B2082DE5DB70BD000000080140E7
:1003B00010B580210748FFF7B7FF20210548FFF758
:1003C000B3FF80210348FFF7ADFF20210148FFF76D
:1003D000A9FF10BD0008014010B580210548FFF7B6
:1003E000A3FF20210348FFF79DFF20210148FFF7CD
:1003F0009BFF10BD0008014010B520210348FFF706
:1004000093FF20210148FFF78DFF10BD0008014038
:1004100000BFFEE77047000070B5002100230F22E7
:10042000C47804B3154C246804F4E064C4F5E064B3
:10043000210AC1F10403CA40447804FA03F1847824
:100440001440214309010E4C0678A155047804F0AC
:100450001F050124AC4005786D11AD0005F1E025C4
:10046000C5F8004109E0047804F01F050124AC4000
:10047000044D0678761145F8264070BD0CED00E07D
:1004800000E400E080E100E002490143024A11601B
:10049000704700000000FA050CED00E070B5002484
:1004A0000CE0002506E00020074901EBC5010855D6
:1004B000681CC5B2802DF6DB601CC4B2082CF0DBD2
:1004C00000F078F870BD0000FC00002010B500219D
:1004D000AE2000F08FF80021084600F08BF80021D4
:1004E000102000F087F80021402000F083F8002160
:1004F000812000F07FF80021CF2000F07BF8002160
:10050000A12000F077F80021C82000F073F8002146
:10051000A62000F06FF80021A82000F06BF8002161
:100520003F2000F067F80021D32000F063F800219D
:10053000084600F05FF80021D52000F05BF80021AC
:10054000802000F057F80021D92000F053F8002156
:10055000F12000F04FF80021DA2000F04BF80021E4
:10056000122000F047F80021DB2000F043F80021C2
:10057000402000F03FF80021202000F03BF800214F
:10058000022000F037F800218D2000F033F8002120
:10059000142000F02FF80021A42000F02BF80021F7
:1005A000A62000F027F80021AF2000F023F8FFF785
:1005B00075FF10BD70B5002419E004F1B001C8B298
:1005C000002100F017F80021084600F013F8002180
:1005D000102000F00FF8002505E00121002000F0B8
:1005E00009F8681CC5B2802DF7DB601CC4B2082C6A
:1005F000E3DB70BD70B505460C46FFF7D9FE7820E9
:10060000FFF7B4FEFFF7F8FE1CB14020FFF7AEFE87
:1006100002E00020FFF7AAFEFFF7EEFE2846FFF7F4
:10062000A5FEFFF7E9FEFFF7D7FE70BD70B54FF4EA
:10063000A060FFF729FF00F089FAFFF779FEFFF7C6
:1006400045FF1249B1F1807F00D31DE021F07F40CA
:10065000401E4FF0E022506150170F22002807DAA9
:1006600013071D0E0A4B00F00F04241F1D5503E055
:1006700013071C0E074B1C5400BF00204FF0E02254
:1006800090610720106100BF70BD0000407E050032
:1006900018ED00E000E400E07047000029B1064AD0
:1006A000D2690243044BDA6104E0034AD26982430F
:1006B000014BDA61704700000010024029B1064A80
:1006C00092690243044B9A6104E0034A92698243AF
:1006D000014B9A61704700000010024030B50021C4
:1006E0000022002400232D4D6D6805F00C0121B17E
:1006F000042905D0082923D105E0294D056022E011
:10070000274D05601FE0254D6D6805F47012234DDF
:100710006D6805F48034022505EB92421CB9214D29
:10072000554305600BE01D4D6D6805F400351DB1A6
:100730001C4D5543056002E0194D5543056002E02C
:10074000174D056000BF00BF144D6D6805F0F00146
:100750000909154D6B5C0568DD4045600F4D6D68FE
:1007600005F4E061090A104D6B5C4568DD40856069
:100770000A4D6D6805F46051C90A0B4D6B5C456804
:10078000DD40C560054D6D6805F44041890B074D9E
:100790006B5CC568B5FBF3F5056130BD0010024028
:1007A00000127A0000093D00000000201000002027
:1007B000704710B500F002F810BD00000CB5002025
:1007C000019000903348006840F48030314908605F
:1007D00000BF3048006800F4003000900198401CD1
:1007E0000190009818B90198B0F5A06FF1D129488F
:1007F000006800F4003010B10120009001E00020FA
:1008000000900098012843D12348006840F0100070
:10081000214908600846006820F003000860084687
:10082000006840F0020008601A48406819494860B2
:100830000846406848600846406840F48060486068
:100840000846406820F47C1048600846406840F440
:10085000E81048600846006840F08070086000BFFB
:100860000C48006800F000700028F9D00948406882
:1008700020F00300074948600846406840F0020045
:10088000486000BF0348406800F00C000828F9D118
:100890000CBD000000100240002002407047000024
:1008A00010B51348006840F001001149086008467F
:1008B0004068104908400E494860084600680E49E3
:1008C00008400B4908600846006820F48020086052
:1008D0000846406820F4FE0048604FF41F0088601E
:1008E000FFF767FF4FF000600449086010BD00008B
:1008F000001002400000FFF8FFFFF6FE08ED00E0E8
:1009000010B540F225510D4800F05DF8A0B10C483B
:100910000078401C0A490870084600783F2806DA2B
:10092000064800F00BF906490978054A505440F290
:100930002551024800F02CF810BD0000003801409D
:100940005C09002010B540F225510F4800F03BF83B
:10095000C8B10E4890F84000401C0C4981F8400096
:10096000084690F840003F2808DA074800F0E6F80B
:10097000C1B2064890F840204030815440F22551E1
:10098000014800F005F810BD004400405C0900205B
:1009900010B50022002340F66A14A14200D100BF26
:1009A0000A1201249440A3B2DC43048010BD21B19B
:1009B000828942F40052828104E082894DF6FF73FD
:1009C0001A408281704770B502460024002300253A
:1009D000002040F66A16B14200D100BFC1F34215B3
:1009E00001F01F03012606FA03F3012D02D19689B7
:1009F000334006E0022D02D1168A334001E0968A88
:100A000033400C12012606FA04F41688344013B160
:100A10000CB1012000E0002070BDF0B503460024B9
:100A200000260025002040F66A17B94200D100BF19
:100A30001846C1F3421401F01F06012707FA06F514
:100A4000012C01D10C3004E0022C01D1103000E067
:100A500014301AB107682F43076002E00768AF43FC
:100A60000760F0BD2DE9F04786B005460E4600242C
:100A7000A24600BFA1460027B08900B100BF2F46A3
:100A80002C8A4CF6FF700440F08804432C82AC8919
:100A90004EF6F3100440B088318908437189084349
:100AA0000443AC81AC8A4FF6FF400440B089044354
:100AB000AC8201A8FFF712FE1F48874202D1DDF881
:100AC00010A001E0DDF80CA0A88900F4004040B1BE
:100AD0000AEBCA0000EB0A1031684900B0FBF1F8DC
:100AE00007E00AEBCA0000EB0A1031688900B0FB8E
:100AF000F1F86420B8FBF0F004012009642101FB47
:100B00001089A88900F4004040B1322000EBC900F0
:100B1000B0FBF1F000F00700044308E0322000EBE6
:100B200009106421B0FBF1F000F00F0004432C81A8
:100B300006B0BDE8F0870000003801400146888813
:100B4000C0F30800704700BFFEE7000000B585B0A5
:100B500001218803FFF7B2FD01214804FFF79EFD44
:100B60004FF4E13001900020ADF81000ADF80C001A
:100B7000ADF80A00ADF808000C20ADF80E0001A990
:100B80001748FFF76FFF01A91648FFF76BFF012019
:100B90008DF803008DF801008DF8020025208DF8F6
:100BA00000006846FFF738FC26208DF800006846F4
:100BB000FFF732FC012240F225510948FFF72DFFD3
:100BC000012240F225510748FFF727FF0121044881
:100BD000FFF7EDFE01210348FFF7E9FE05B000BD78
:100BE000003801400044004002E008C8121F08C15C
:100BF000002AFAD170477047002001E001C1121F9E
:100C0000002AFBD17047FFF711FD00BFFEE700008F
:100C1000300C0008000000201C000000E80B000859
:100C20004C0C00081C000020C40D0000F80B00084C
:100C30000000000001020304010203040607080982
:0C0C400002040608000000000000000094
:04000005080000ED02
:00000001FF
