:020000040800F2
:100000000805002001010008150400082D03000860
:100010001104000849010008F70B00080000000067
:10002000000000000000000000000000550800086B
:100030000D020008000000003D070008410900080B
:100040001B0100081B0100081B0100081B01000820
:100050001B0100081B0100081B0100081B01000810
:100060001B0100081B0100081B0100081B01000800
:100070001B0100081B0100084D0100081B010008BE
:100080001B0100087D0100081B0100081B0100087E
:100090001B0100081B0100081B0100081B010008D0
:1000A0001B0100081B0100081B0100081B010008C0
:1000B0001B0100081B0100081B0100081B010008B0
:1000C0001B0100081B0100081B0100081B010008A0
:1000D0001B010008B1090008F50900081B01000810
:1000E0001B0100081B0100081B010008DFF80CD0F1
:1000F00000F018F800480047B70C00080805002079
:100100000648804706480047FEE7FEE7FEE7FEE7B1
:10011000FEE7FEE7FEE7FEE7FEE7FEE7510900081F
:10012000ED000008064C074D06E0E06840F00103D2
:1001300094E8070098471034AC42F6D3FFF7DAFF93
:1001400090140008B014000800BFFEE710B54FF48B
:10015000005000F045F801280AD10021054800F0C0
:1001600033F84FF4005000F021F8002002490870E5
:1001700010BD0000440002402000002010B54FF0E8
:10018000007000F02DF801280AD10021054800F088
:100190001BF84FF0007000F009F800200249487089
:1001A00010BD0000800002402000002000F08051BF
:1001B00011B10349086001E002494860704700003E
:1001C000040402400000024021B1026842F0010232
:1001D000026004E002684FF6FE731A400260704746
:1001E00001460020002201F0805313B1054B1A682C
:1001F00001E0054B1A6802EA01030BB1012000E09F
:1002000000207047000402400000024070472DE9C2
:10021000F04102460025002600200023002400278C
:1002200091F803C00CF00F0591F803C00CF0100C0E
:10023000BCF1000F03D091F802C04CEA050591F81B
:1002400000C0BCF1000F31D0146800202BE04FF04B
:10025000010C0CFA00F3B1F800C00CEA03069E4250
:1002600020D183004FF00F0C0CFA03F7BC4305FAC2
:1002700003FC4CEA040491F803C0BCF1280F06D13A
:100280004FF0010C0CFA00FCC2F814C00AE091F81F
:1002900003C0BCF1480F05D14FF0010C0CFA00FC73
:1002A000C2F810C0401C0828D1D31460B1F800C0B7
:1002B000BCF1FF0F34DD546800202EE000F1080C83
:1002C0004FF0010808FA0CF3B1F800C00CEA03067D
:1002D0009E4221D183004FF00F0C0CFA03F7BC4370
:1002E00005FA03FC4CEA040491F803C0BCF1280FA2
:1002F00005D100F1080C08FA0CF8C2F8148091F846
:1003000003C0BCF1480F07D100F1080C4FF0010801
:1003100008FA0CF8C2F81080401C0828CED35460AC
:10032000BDE8F081416170470161704700BFFEE7A1
:1003300008B50121042000F013FA10208DF8030005
:10034000A020ADF8000003208DF8020069460648A1
:10035000FFF75DFF20210448FFF7E6FF80210248F8
:10036000FFF7E2FF08BD00000008014070B5044639
:10037000002517E004F0800020B180210B48FFF732
:10038000D3FF03E080210948FFF7CCFF2021074875
:10039000FFF7CAFF20210548FFF7C4FF6006040EDF
:1003A000681CC5B2082DE5DB70BD000000080140E7
:1003B00010B580210748FFF7B7FF20210548FFF758
:1003C000B3FF80210348FFF7ADFF20210148FFF76D
:1003D000A9FF10BD0008014010B580210548FFF7B6
:1003E000A3FF20210348FFF79DFF20210148FFF7CD
:1003F0009BFF10BD0008014010B520210348FFF706
:1004000093FF20210148FFF78DFF10BD0008014038
:1004100000BFFEE77047000070B5002100230F22E7
:10042000C47804B3154C246804F4E064C4F5E064B3
:10043000210AC1F10403CA40447804FA03F1847824
:100440001440214309010E4C0678A155047804F0AC
:100450001F050124AC4005786D11AD0005F1E025C4
:10046000C5F8004109E0047804F01F050124AC4000
:10047000044D0678761145F8264070BD0CED00E07D
:1004800000E400E080E100E002490143024A11601B
:10049000704700000000FA050CED00E070B5002484
:1004A0000FE00021204600F083F8002505E001213F
:1004B000002000F098F8681CC5B2802DF7DB601CA6
:1004C000C4B2082CEDDB70BD10B50021AE2000F0E9
:1004D0008AF80021084600F086F80021102000F07C
:1004E00082F80021402000F07EF80021812000F0F9
:1004F0007AF80021CF2000F076F80021A12000F04A
:1005000072F80021C82000F06EF80021A62000F04B
:100510006AF80021A82000F066F800213F2000F0D2
:1005200062F80021D32000F05EF80021084600F0B8
:100530005AF80021D52000F056F80021802000F064
:1005400052F80021D92000F04EF80021F12000F0EF
:100550004AF80021DA2000F046F80021122000F0CD
:1005600042F80021DB2000F03EF80021402000F09E
:100570003AF80021202000F036F80021022000F097
:1005800032F800218D2000F02EF80021142000F018
:100590002AF80021A42000F026F80021A62000F06F
:1005A00022F80021AF2000F01EF8FFF777FF10BD02
:1005B00070B505460C46072D01DC7F2C00DD70BDB3
:1005C00005F1B001C8B2002100F00DF804F00F00F1
:1005D000002100F008F8102101EB1410002100F0B8
:1005E00002F800BFEBE770B505460C46FFF7E0FEEA
:1005F0007820FFF7BBFEFFF7FFFE1CB14020FFF79E
:10060000B5FE02E00020FFF7B1FEFFF7F5FE284639
:10061000FFF7ACFEFFF7F0FEFFF7DEFE70BD000057
:100620002DE9F04105460E461746984639463046B4
:10063000FFF7BEFFB8F1010F03D0B8F1020F38D1B8
:1006400011E000240CE0A5F1200101EB41011B4A5F
:1006500002EB4101085D0121FFF7C5FF601CC4B238
:10066000062CF0DB26E000240AE0A5F12001144A64
:1006700002EB0111085D0121FFF7B5FF601CC4B258
:10068000082CF2DB711CC8B23946FFF791FF002439
:100690000CE0A5F120010A4A02EB011204F1080165
:1006A000505C0121FFF79FFF601CC4B2082CF0DBF7
:1006B00000E000BF00BFBDE8F0810000BE0C0008F4
:1006C000E00E000870B54FF4A060FFF7DDFE00F00B
:1006D00095FAFFF72DFEFFF7F7FE022300221146E1
:1006E0004620FFF79DFF1249B1F1807F00D31DE046
:1006F00021F07F40401E4FF0E022506150170F2242
:10070000002807DA13071D0E0A4B00F00F04241F00
:100710001D5503E013071C0E074B1C5400BF00209F
:100720004FF0E02290610720106100BF70BD000013
:10073000407E050018ED00E000E400E07047000096
:1007400029B1064AD2690243044BDA6104E0034A44
:10075000D2698243014BDA61704700000010024009
:1007600029B1064A92690243044B9A6104E0034AA4
:1007700092698243014B9A61704700000010024069
:1007800030B500210022002400232D4D6D6805F0B6
:100790000C0121B1042905D0082923D105E0294DF8
:1007A000056022E0274D05601FE0254D6D6805F4CA
:1007B0007012234D6D6805F48034022505EB9242DA
:1007C0001CB9214D554305600BE01D4D6D6805F4C6
:1007D00000351DB11C4D5543056002E0194D5543D0
:1007E000056002E0174D056000BF00BF144D6D6845
:1007F00005F0F0010909154D6B5C0568DD404560A9
:100800000F4D6D6805F4E061090A104D6B5C456899
:10081000DD4085600A4D6D6805F46051C90A0B4DD5
:100820006B5C4568DD40C560054D6D6805F4404171
:10083000890B074D6B5CC568B5FBF3F5056130BDF1
:100840000010024000127A0000093D000000002064
:1008500010000020704710B500F002F810BD000035
:100860000CB50020019000903348006840F48030BF
:100870003149086000BF3048006800F40030009043
:100880000198401C0190009818B90198B0F5A06F2C
:10089000F1D12948006800F4003010B10120009027
:1008A00001E0002000900098012843D1234800680F
:1008B00040F01000214908600846006820F003005D
:1008C00008600846006840F0020008601A48406866
:1008D000194948600846406848600846406840F446
:1008E000806048600846406820F47C1048600846F4
:1008F000406840F4E81048600846006840F08070A6
:10090000086000BF0C48006800F000700028F9D0B3
:100910000948406820F003000749486008464068DD
:1009200040F00200486000BF0348406800F00C003F
:100930000828F9D10CBD0000001002400020024040
:1009400002480068401C01490860704718000020F8
:1009500010B51348006840F00100114908600846CE
:100960004068104908400E494860084600680E4932
:1009700008400B4908600846006820F480200860A1
:100980000846406820F4FE0048604FF41F0088606D
:10099000FFF761FF4FF000600449086010BD0000E0
:1009A000001002400000FFF8FFFFF6FE08ED00E037
:1009B00010B540F225510D4800F05DF8A0B10C488B
:1009C0000078401C0A490870084600783F2806DA7B
:1009D000064800F00BF906490978054A505440F2E0
:1009E0002551024800F02CF810BD000000380140ED
:1009F0008400002010B540F225510F4800F03BF86C
:100A0000C8B10E4890F84000401C0C4981F84000E5
:100A1000084690F840003F2808DA074800F0E6F85A
:100A2000C1B2064890F840204030815440F2255130
:100A3000014800F005F810BD00440040840000208B
:100A400010B50022002340F66A14A14200D100BF75
:100A50000A1201249440A3B2DC43048010BD21B1EA
:100A6000828942F40052828104E082894DF6FF734C
:100A70001A408281704770B5024600240023002589
:100A8000002040F66A16B14200D100BFC1F3421502
:100A900001F01F03012606FA03F3012D02D1968906
:100AA000334006E0022D02D1168A334001E0968AD7
:100AB00033400C12012606FA04F41688344013B1B0
:100AC0000CB1012000E0002070BDF0B50346002409
:100AD00000260025002040F66A17B94200D100BF69
:100AE0001846C1F3421401F01F06012707FA06F564
:100AF000012C01D10C3004E0022C01D1103000E0B7
:100B000014301AB107682F43076002E00768AF434B
:100B10000760F0BD2DE9F04786B005460E4600247B
:100B2000A24600BFA1460027B08900B100BF2F46F2
:100B30002C8A4CF6FF700440F08804432C82AC8968
:100B40004EF6F3100440B088318908437189084398
:100B50000443AC81AC8A4FF6FF400440B0890443A3
:100B6000AC8201A8FFF70CFE1F48874202D1DDF8D6
:100B700010A001E0DDF80CA0A88900F4004040B10D
:100B80000AEBCA0000EB0A1031684900B0FBF1F82B
:100B900007E00AEBCA0000EB0A1031688900B0FBDD
:100BA000F1F86420B8FBF0F004012009642101FB96
:100BB0001089A88900F4004040B1322000EBC90040
:100BC000B0FBF1F000F00700044308E0322000EB36
:100BD00009106421B0FBF1F000F00F0004432C81F8
:100BE00006B0BDE8F0870000003801400146888863
:100BF000C0F30800704700BFFEE7000000B585B0F5
:100C000001218803FFF7ACFD01214804FFF798FD9F
:100C10004FF4E13001900020ADF81000ADF80C0069
:100C2000ADF80A00ADF808000C20ADF80E0001A9DF
:100C30001748FFF76FFF01A91648FFF76BFF012068
:100C40008DF803008DF801008DF8020025208DF845
:100C500000006846FFF7E0FB26208DF8000068469C
:100C6000FFF7DAFB012240F225510948FFF72DFF7B
:100C7000012240F225510748FFF727FF01210448D0
:100C8000FFF7EDFE01210348FFF7E9FE05B000BDC7
:100C9000003801400044004002E008C8121F08C1AB
:100CA000002AFAD170477047002001E001C1121FED
:100CB000002AFBD17047FFF705FD00BFFEE70000EB
:100CC000000000000000002F0000000007000700E7
:100CD00000147F147F1400242A7F2A120062640803
:100CE0001323003649552250000005030000000080
:100CF0001C224100000041221C000014083E081480
:100D00000008083E0808000000A06000000808086D
:100D10000808000060600000002010080402003E87
:100D20005149453E0000427F400000426151494622
:100D3000002141454B31001814127F100027454512
:100D40004539003C4A494930000171090503003624
:100D50004949493600064949291E00003636000037
:100D6000000056360000000814224100001414143C
:100D70001414000041221408000201510906003237
:100D80004959513E007C1211127C007F4949493675
:100D9000003E41414122007F4141221C007F4949E0
:100DA0004941007F09090901003E4149497A007F14
:100DB0000808087F0000417F4100002040413F01BA
:100DC000007F08142241007F40404040007F020C19
:100DD000027F007F0408107F003E4141413E007FBA
:100DE00009090906003E4151215E007F0919294683
:100DF0000046494949310001017F0101003F40405F
:100E0000403F001F2040201F003F4038403F00630C
:100E1000140814630007087008070061514945432E
:100E200000007F41410000552A552A5500004141EC
:100E30007F000004020102040040404040400000E6
:100E400001020400002054545478007F4844443880
:100E500000384444442000384444487F0038545407
:100E6000541800087E0901020018A4A4A47C007F85
:100E7000080404780000447D4000004080847D0028
:100E8000007F102844000000417F4000007C0418CF
:100E90000478007C0804047800384444443800FC9A
:100EA000242424180018242418FC007C08040408B6
:100EB00000485454542000043F444020003C40402B
:100EC000207C001C2040201C003C4030403C004462
:100ED00028102844001CA0A0A07C004464544C446A
:100EE0000000000000000000000000000000000002
:100EF000000000F800000000000000333000000097
:100F000000100C06100C060000000000000000009D
:100F100040C07840C0784000043F04043F0404000F
:100F2000007088FC08300000001820FF211E00001F
:100F3000F008F000E018000000211C031E211E0034
:100F400000F00888700000001E21232419272110BA
:100F500010160E000000000000000000000000005D
:100F6000000000E018040200000000071820400004
:100F700000020418E00000000040201807000000F4
:100F8000404080F0804040000202010F0102020058
:100F9000000000F0000000000101011F010101003C
:100FA000000000000000000080B0700000000000A1
:100FB000000000000000000000010101010101012A
:100FC00000000000000000000030300000000000C1
:100FD0000000000080601804006018060100000096
:100FE00000E010080810E000000F102020100F0093
:100FF000001010F8000000000020203F202000001A
:101000000070080808887000003028242221300071
:1010100000300888884830000018202020110E0079
:101020000000C02010F8000000070424243F240022
:1010300000F80888880808000019212020110E00F7
:1010400000E0108888180000000F112020110E0009
:1010500000380808C83808000000003F0000000001
:101060000070880808887000001C222121221C00C2
:1010700000E010080810E0000000312222110F00EB
:10108000000000C0C0000000000000303000000080
:1010900000000080000000000000806000000000F0
:1010A0000000804020100800000102040810200009
:1010B0004040404040404000040404040404040054
:1010C00000081020408000000020100804020100E9
:1010D000007048080808F0000000003036010000E9
:1010E000C030C828E810E0000718272423140B009C
:1010F0000000C038E0000000203C23020227382016
:1011000008F8888888700000203F202020110E00F9
:10111000C0300808080838000718202020100800F0
:1011200008F808080810E000203F202020100F00D9
:1011300008F88888E8081000203F202023201800A5
:1011400008F88888E8081000203F2000030000000D
:10115000C03008080838000007182020221E0200AE
:1011600008F808000008F808203F210101213F206D
:10117000000808F8080800000020203F2020000098
:1011800000000808F8080800C08080807F00000088
:1011900008F888C028180800203F200126382000C1
:1011A00008F8080000000000203F20202020300028
:1011B00008F8F800F8F80800203F003F003F200042
:1011C00008F830C00008F808203F200007183F004A
:1011D000E01008080810E0000F10202020100F0079
:1011E00008F808080808F000203F2101010100006C
:1011F000E01008080810E0000F18242438504F00B1
:1012000008F8888888887000203F2000030C302070
:1012100000708808080838000038202121221C00AE
:10122000180808F8080818000000203F20000000F7
:1012300008F808000008F808001F202020201F00E0
:101240000878880000C83808000007380E01000040
:10125000F80800F80008F800033C0700073C03000A
:10126000081868808068180820302C03032C302070
:101270000838C800C83808000000203F20000000DF
:1012800010080808C8380800203826212020180037
:10129000000000FE020202000000007F404040000B
:1012A000000C30C000000000000000010638C00043
:1012B00000020202FE000000004040407F000000EB
:1012C0000000040202020400000000000000000010
:1012D000000000000000000080808080808080800E
:1012E00000020204000000000000000000000000F6
:1012F00000008080808000000019242222223F20EC
:1013000008F8008080000000003F112020110E002E
:101310000000008080800000000E112020201100BD
:10132000000000808088F800000E112020103F206F
:101330000000808080800000001F222222221300F3
:10134000008080F0888888180020203F202000003E
:101350000000808080808000006B949494936000F3
:1013600008F8008080800000203F210000203F20FE
:1013700000809898000000000020203F20200000FE
:10138000000000809898000000C08080807F0000EE
:1013900008F8000080808000203F24022D302000CB
:1013A000000808F8000000000020203F2020000076
:1013B0008080808080808000203F20003F20003F90
:1013C0008080008080800000203F210000203F209E
:1013D0000000808080800000001F202020201F004F
:1013E000808000808000000080FFA12020110E007E
:1013F0000000008080808000000E112020A0FF806F
:10140000808080008080800020203F21200001001B
:101410000000808080808000003324242424190070
:10142000008080E0808000000000001F202000007D
:101430008080000000808000001F202020103F20BE
:10144000808080000080808000010E30080601004E
:1014500080800080008080800F300C030C300F00F3
:1014600000808000808080000020312E0E3120001E
:10147000808080000080808080818E70180601004E
:1014800000808080808080000021302C222130006C
:10149000B01400080000002024000000980C000890
:1014A000D414000824000020E4040000A80C000864
:1014B00000000000010203040102030406070809FA
:1014C0000204060800000000000000000000000008
:0414D0000000000018
:04000005080000ED02
:00000001FF
